:100000000C947D190C94AE190C94AE190C94AE1985
:100010000C94AE190C94AE190C94AE190C94AE1944
:100020000C94AE190C94AE190C94AE190C94AE1934
:100030000C94AE190C94AE190C94AE190C94AE1924
:100040000C94AE190C94E8A20C94AE190C94AE1951
:100050000C94AE190C94AE190C947DB90C94AEFEB0
:100060000C94AE190C9431300C94AE190C94AE195A
:100070000C94AE190C94AE190C94AE190C94AE19E4
:100080000C94AE190C94AE190C94AE190C94AE19D4
:100090000C94AE190C94AE190C94AE190C94A0F7F4
:1000A0000C94AE190C94AE190C94AE190C94AE19B4
:1000B0000C94AE190C94AE190C94AE190C94AE19A4
:1000C0000C94AE190C94AE190C94AE190C94AE1994
:1000D0000C94AE190C94AE190C94AE190C94AE1984
:1000E0000C94AE19F9B909BA28BA38BA53BA63BA36
:1000F0007EBA83BA86BA8BBA8EBA93BA9DBAD1FF4A
:10010000D6FFDBFFE5FFEFFFD100F9FFCF000101D4
:10011000EB00C900ED00F700F900D100CB00F500BD
:10012000FB00FF00F300E900E700D900E500D7007D
:10013000E100DB00DF00D300D500E300EF00E500C5
:10014000CD00FD00DD00084AD73B3BCE016E84BCEC
:10015000BFFDC12F3D6C74319ABD56833DDA3D0021
:10016000C77F11BED9E4BB4C3E916BAAAABE00006A
:1001700000803F05A84CCDB2D44EB93836A9020C48
:1001800050B9918688083CA6AAAA2ABE0000008021
:100190003F000D941D000D944A000D94B6000D947F
:1001A00001000D9468000D94A2000D94A8000D9418
:1001B00090000D9485000D949A000D94BE000D944E
:1001C0009E000D9494000D94AC000D94C3000D940A
:1001D0007F000D947B000D9413000D9427000D9467
:1001E000B0000D9468010D948C000D9454000D9492
:1001F00036000D9440000D945E000D94BA000D94ED
:1002000089000D9409004D383420582059205A2077
:10021000450043616E6E6F7420656E746572207365
:1002200075626469723A20006175746F25692E6782
:10023000006572726F722077726974696E672074DC
:100240006F2066696C65004E6F7420534420707295
:10025000696E74696E67005344207072696E7469C8
:100260006E672062797465200044656C6574696FFF
:100270006E206661696C65642C2046696C653A2065
:100280000046696C652064656C657465643A006F4E
:1002900070656E206661696C65642C2046696C65CA
:1002A0003A200057726974696E6720746F2066691E
:1002B0006C653A20002E0A006F70656E20666169D9
:1002C0006C65642C2046696C653A20002E0A006F2C
:1002D00070656E206661696C65642C2046696C658A
:1002E0003A200046696C652073656C6563746564CB
:1002F000002053697A653A200046696C65206F706A
:10030000656E65643A20006F70656E206661696C89
:1003100065642C2046696C653A20004E6F77206634
:10032000726573682066696C653A20004E6F7720AD
:10033000646F696E672066696C653A2000222070E0
:100340006F73002220706172656E743A22005355FB
:1003500042524F5554494E452043414C4C20746104
:10036000726765743A22004B494C4C45442E20007C
:10037000747279696E6720746F2063616C6C20738E
:1003800075622D67636F64652066696C657320779D
:1003900069746820746F6F206D616E79206C65766A
:1003A000656C732E204D4158206C6576656C206914
:1003B000733A004D3234004D3233202573005344DC
:1003C0002063617264206F6B006F70656E526F6F97
:1003D00074206661696C656400766F6C756D652E5E
:1003E000696E6974206661696C65640053442069B4
:1003F0006E6974206661696C0020204D38353120AB
:100400005A005A2D50726F6265204F66667365748C
:1004100020286D6D293A0020204D323030204430A4
:100420000020204D32303020440020446973616246
:100430006C65640046696C616D656E7420736574EB
:1004400074696E67733A0020440020490020204DF3
:10045000333034205000204C002043002044002042
:10046000490020204D333031205000504944207342
:10047000657474696E67733A00204600204200205C
:10048000204D313435205331204800204600204291
:100490000020204D3134352053302048004D617408
:1004A000657269616C206865617475702070617235
:1004B000616D65746572733A00205A0020590020FE
:1004C000204D323036205800486F6D65206F6666CB
:1004D00073657420286D6D293A00204500205A006C
:1004E00020580020420020540020204D323035207A
:1004F0005300416476616E63656420766172696160
:10050000626C65733A20533D4D696E206665656483
:100510007261746520286D6D2F73292C20543D4D18
:10052000696E2074726176656C20666565647261BF
:10053000746520286D6D2F73292C20423D6D696EE6
:10054000696D756D207365676D656E742074696D76
:100550006520286D73292C20583D6D6178696D7573
:100560006D205859206A65726B20286D6D2F732994
:100570002C20205A3D6D6178696D756D205A206A76
:1005800065726B20286D6D2F73292C2020453D6DE1
:100590006178696D756D2045206A65726B20286DE4
:1005A0006D2F73290020540020520020204D32303E
:1005B00034205000416363656C65726174696F6ECD
:1005C000733A20503D7072696E74696E672C2052C8
:1005D0003D7265747261637420616E6420543D7471
:1005E000726176656C00204500205A002059002079
:1005F000204D3230312058004D6178696D756D2085
:10060000416363656C65726174696F6E20286D6DFE
:100610002F7332293A00204500205A00205900202B
:10062000204D3230332058004D6178696D756D2052
:1006300066656564726174657320286D6D2F73291A
:100640003A00204500205A0020590020204D393220
:1006500020580053746570732070657220756E6940
:10066000743A0048617264636F646564204465662F
:1006700061756C742053657474696E6773204C6F78
:100680006164656400206279746573290020737465
:100690006F7265642073657474696E677320726528
:1006A00074726965766564202800206279746573C8
:1006B000290053657474696E67732053746F726593
:1006C000642028004572726F722077726974696EB7
:1006D0006720746F20454550524F4D21005072697C
:1006E0006E7465722068616C7465642E206B696C31
:1006F0006C28292063616C6C656421004B494C4C6B
:1007000045442E20004B494C4C45442E200020747B
:100710006F6F206C6F6E6720657874727573696F88
:100720006E2070726576656E7465640020636F6C10
:100730006420657874727573696F6E207072657667
:10074000656E746564006F6B00526573656E643A24
:1007500020003A20007A5F6D61783A20007A5F6D60
:10076000696E3A20005A204F6666736574004F66C2
:100770006673657473206170706C6965640045729E
:10078000723A20546F6F206661722100546F6F209F
:100790006661722066726F6D207265666572656E45
:1007A000636520706F696E740053657474696E6759
:1007B0002054726176656C20416363656C6572617B
:1007C00074696F6E3A200053657474696E672052C5
:1007D00065747261637420416363656C65726174F2
:1007E000696F6E3A200053657474696E67205072A9
:1007F000696E7420416363656C65726174696F6EC4
:100800003A200053657474696E67205072696E7483
:1008100020616E642054726176656C20416363656B
:100820006C65726174696F6E3A20004D3134352009
:10083000533C696E6465783E206F7574206F662046
:1008400072616E67652028302D3129007A5F6D69ED
:100850006E3A2000795F6D696E3A2000785F6D69AD
:100860006E3A2000205A3A0020593A0020436F7512
:100870006E7420583A200020453A00205A3A002051
:10088000593A00583A004649524D574152455F4E39
:10089000414D453A4D61726C696E20312E312E30DA
:1008A0002D52433620284769746875622920534FBA
:1008B000555243455F434F44455F55524C3A687427
:1008C0007470733A2F2F6769746875622E636F6D49
:1008D0002F426967426F7833442F4D61726C696EA5
:1008E0002D4879627269642050524F544F434F4CE7
:1008F0005F56455253494F4E3A312E30204D4143B9
:1009000048494E455F545950453A426967426F78AD
:1009100020312E3120502045585452554445525FC5
:10092000434F554E543A3120555549443A63656416
:1009300065326132662D343161322D343734382DD1
:10094000396231322D633535633632663336376678
:10095000660A00426967426F7820312E31205020AC
:100960004F66662E00426967426F7820312E312033
:10097000502072656164792E0042656420646F6E58
:10098000652E003F0020573A0042656420486561AB
:1009900074696E672E0048656174696E6720646FC4
:1009A0006E652E003F0020573A0048656174696EFD
:1009B000672E2E2E00426967426F7820312E31203B
:1009C000502072656164792E006F6B004D313133B8
:1009D0002053004B494C4C45442E20004543484F82
:1009E00000494E464F004552524F5253004452590F
:1009F00052554E00434F4D4D554E49434154494F7A
:100A00004E006F666600DC09E109E609ED09F409AC
:100A100044454255473A0048656174696E672E2E19
:100A20002E00426967426F7820312E3120502072AB
:100A3000656164792E005374616E64617264204450
:100A40006576696174696F6E3A20004D65616E3A32
:100A500020002020207369676D613A2000206D65B9
:100A6000616E3A20002020207A3A2000206F662014
:100A70000020207A3A2000793A2000783A2000209D
:100A80002020616E676C653A20005374617274694E
:100A90006E67207261646975733A2000506F7369E4
:100AA00074696F6E696E67207468652070726F621A
:100AB000652E2E2E0A003F4E756D626572206F66A0
:100AC000206C65677320696E206D6F76656D656E4D
:100AD00074206E6F7420706C61757369626C652030
:100AE00028302D3135292E0A00590058003F536116
:100AF0006D706C652073697A65206E6F7420706C00
:100B000061757369626C652028342D3530292E0A91
:100B1000004D3438205A2D50726F62652052657036
:100B20006561746162696C69747920746573740AB3
:100B3000003F566572626F7365204C6576656C2068
:100B40006E6F7420706C61757369626C65202830FB
:100B50002D34292E0A002569206D696E2C20256907
:100B60002073656300456E642066696C65206C695E
:100B7000737400426567696E2066696C65206C69F4
:100B80007374004E6F206D6F76652E004269674268
:100B90006F7820312E3120502072656164792E00EB
:100BA000526573756D696E67207072696E74005757
:100BB00061697420666F7220757365722E2E2E0027
:100BC0005445535400205A3A200020593A200042FC
:100BD000656420583A2000205A3A200020593A20D3
:100BE0000042656420583A2000202B00200A436F01
:100BF0007272656374656420426564204865696744
:100C000068742076732E2042656420546F706F6C78
:100C10006F67793A200A00202B002028302C3029D9
:100C20000A002020204F2D2D2046524F4E54202DBB
:100C30002D2B0A002020207C202020202020202076
:100C40002020207C0A002020207C20202020282D0D
:100C500029202020207C20540A002054207C2020A1
:100C60002020202020202020207C20480A00204610
:100C7000207C20282D29204E20282B29207C20472D
:100C80000A002045207C2020202020202020202019
:100C9000207C20490A00204C207C20202020282B6A
:100CA00029202020207C20520A002020207C202087
:100CB0002020202020202020207C0A002020202B03
:100CC0002D2D2D204241434B202D2D2B0A00200A93
:100CD0004265642048656967687420546F706F6767
:100CE00072617068793A200A004D65616E206F6606
:100CF0002073616D706C656420706F696E74733AF7
:100D0000200020643A200020623A200045716E20C5
:100D1000636F656666696369656E74733A20613AEC
:100D2000200028422961636B00284629726F6E7487
:100D3000002852296967687400284C296566740088
:100D40003F4E756D626572206F662070726F6265CE
:100D500064202850296F696E747320697320696D4F
:100D6000706C61757369626C65202832206D696EE4
:100D7000696D756D292E0A0052756E6E696E672059
:100D8000696E204452592D52554E206D6F64650096
:100D9000473239204175746F20426564204C657676
:100DA000656C696E670A003F2856296572626F7329
:100DB00065204C6576656C20697320696D706C6187
:100DC000757369626C652028302D34292E00486FB8
:100DD0006D6520582F59206265666F7265205A0034
:100DE000486F6D6520582F59206265666F726520C7
:100DF0005A005761726E696E673A20486F6D696E6E
:100E0000672042756D702044697669736F72203C6B
:100E10002031005A2070726F6265206F75742E2029
:100E2000626564005A2070726F6265206F75742E5F
:100E30002062656400536C6565702E2E2E00204084
:100E40003A002042403A00202F0020423A00202F52
:100E50000020543A0020706F736974696F6E206FC0
:100E60007574206F662072616E67652E003F507248
:100E70006F62652000627573793A207061757365E1
:100E80006420666F7220696E707574006275737984
:100E90003A2070617573656420666F7220757365A2
:100EA0007200627573793A2070726F63657373694B
:100EB0006E6700220A00556E6B6E6F776E20636F4F
:100EC0006D6D616E643A20220020496E76616C6916
:100ED00064206578747275646572200025692068E5
:100EE0006F757273202569206D696E757465730066
:100EF000446F6E65207072696E74696E67206669F2
:100F00006C65004B494C4C45442E200053544F50C7
:100F10005045442E20005072696E746572207374BF
:100F20006F707065642064756520746F20657272DF
:100F30006F72732E2046697820746865206572721E
:100F40006F7220616E6420757365204D39393920C8
:100F5000746F20726573746172742E202854656DED
:100F6000706572617475726520697320726573654E
:100F7000742E205365742069742061667465722034
:100F800072657374617274696E6729004E6F204CCC
:100F9000696E65204E756D62657220776974682090
:100FA000636865636B73756D2C204C617374204CA2
:100FB000696E653A20004E6F20436865636B7375F8
:100FC0006D2077697468206C696E65206E756D623E
:100FD00065722C204C617374204C696E653A200058
:100FE000636865636B73756D206D69736D617463A0
:100FF000682C204C617374204C696E653A20004C5B
:10100000696E65204E756D626572206973206E6F22
:1010100074204C617374204C696E65204E756D624E
:1010200065722B312C204C617374204C696E653ACB
:1010300020004D31313000446F6E65207361766958
:101040006E672066696C652E004D32390020205095
:101050006C616E6E65724275666665724279746522
:10106000733A20002046726565204D656D6F727978
:101070003A20004A756E2031352032303136004337
:101080006F6D70696C65643A20002847726567204F
:10109000486F6C6C6F7761792C204475616C2048C7
:1010A00079627269642900207C20417574686F72CE
:1010B0003A2000323031362D30362D303120313665
:1010C0003A303000204C617374205570646174654F
:1010D000643A200020312E312E302D524336004DFF
:1010E00061726C696E0020536F667477617265205F
:1010F000526573657400205761746368646F67207C
:101100005265736574002042726F776E206F75743C
:10111000205265736574002045787465726E616C49
:1011200020526573657400506F7765725570007357
:1011300074617274002200656E7175657565696E03
:1011400067202200FFFFFF000040400000404000F9
:101150000000400000964300006B430000964300EF
:1011600000000000000000000000000000964300A6
:10117000006B4300009643000000000000000000E8
:101180000000006563686F3A004572726F723A0042
:1011900020746F6F206C6F6E672065787472757342
:1011A000696F6E2070726576656E74656400206389
:1011B0006F6C6420657874727573696F6E207072DD
:1011C0006576656E746564007C3C3E5E2B3D3F2F0A
:1011D0005B5D3B2C2A225C004D383420582059207E
:1011E0005A204500456E6473746F70732025632028
:1011F000256320256320256300205A3A0020593AB0
:101200000020583A00656E6473746F7073206869CB
:10121000743A200024F4D43050C38E20C2A2401768
:10122000828B7011127A910D816CD90AA861E10844
:10123000C7586607615143061E4B5D05C145A704AB
:101240001A411104093D9803713931034036DB021C
:1012500065339102D4305402802E1D02632CEE01BE
:10126000752AC501B028A001102781018F256401CE
:101270002B244B01E0223401AC211F018D200D01F4
:10128000801FFC00841EED00971DDF00B81CD200FB
:10129000E61BC600201BBC00641AB200B219A800ED
:1012A0000A19A0006A189900D117910040178B0005
:1012B000B516840031167E00B31579003A15730017
:1012C000C7146F0058146A00EE1366008813630099
:1012D00025135E00C7125B006C12570015125400F4
:1012E000C111510070114F0021114B00D61049005F
:1012F0008D1047004610440002104200C00F40000D
:10130000800F3E00420F3C00060F3B00CB0E380022
:10131000930E37005C0E3500270E3400F30D3200BB
:10132000C10D3100900D3000600D2E00320D2D00EA
:10133000050D2C00D90C2B00AE0C2900850C2900C2
:101340005C0C2700350C27000E0C2600E80B24004F
:10135000C40B2400A00B23007D0B23005A0B21009B
:10136000390B2100180B2000F80A1F00D90A1E00B3
:10137000BB0A1E009D0A1D00800A1D00630A1C0096
:10138000470A1B002C0A1B00110A1A00F7091A0051
:10139000DD091900C4091900AB09190092091700E9
:1013A0007B091800630917004C091600360916005E
:1013B000200916000A091500F5081500E0081400B8
:1013C000CC081400B8081400A408140090081300F6
:1013D0007D0812006B08130058081200460812001E
:1013E000340811002308110012081100010811002F
:1013F000F0071000E0071000D0071000C007100031
:10140000B0070F00A107100091070E0083070F001F
:1014100074070F0065070E0057070E0049070E00FE
:101420003B070D002E070E0020070D0013070D00CF
:1014300006070D00F9060C00ED060D00E0060C0095
:10144000D4060C00C8060C00BC060C00B0060C004C
:10145000A4060B0099060C008D060B0082060B00FB
:1014600077060B006C060B0061060A0057060B009E
:101470004C060A0042060A0038060A002E060A0038
:1014800024060A001A060A001006090007060A00C8
:10149000FD050900F4050900EB050900E205090056
:1014A000D9050900D0050900C7050900BE050900D6
:1014B000B5050800AD050800A50509009C05080054
:1014C000940508008C050800840508007C050800C8
:1014D000740508006C050700650508005D05070038
:1014E000560508004E05070047050700400508009F
:1014F00038050700310507002A0507002305070006
:101500001C050600160507000F0507000805060064
:1015100002050700FB040600F5040700EE040600C0
:10152000E8040600E2040700DB040600D504060018
:10153000CF040600C9040600C3040600BD0406006B
:10154000B7040600B1040500AC040600A6040600BA
:10155000A00405009B040600950405009004060005
:101560008A04050085040500800406007A0405004D
:1015700075040500700405006B0405006604050091
:10158000610405005C0405005704050052040500D1
:101590004D04050048040500430405003E04040012
:1015A0003A04050035040500300404002C0405004D
:1015B00027040400230405001E0404001A04040088
:1015C00016040500110404000D04040009040500BC
:1015D0000404040000040400FC030400F8030400F5
:1015E000F4030400F0030400EC030400E803040027
:1015F000E4030400E0030400DC030400D803040057
:10160000D4030400D0030400CC030400C803030087
:10161000C503030024F404D9201BC40C5C0E9804F9
:10162000C4095F0265077101F405F900FB04B3000A
:1016300048048700C10369005803550003034500AF
:10164000BE023A008402310053022A00290225001A
:1016500004022000E4011C00C8011900AF011700BA
:101660009801140084011300710110006101100041
:1016700051010E0043010D0036010B002B010B0040
:1016800020010B00150109000C01090003010800ED
:10169000FB000800F3000800EB000700E400060070
:1016A000DE000600D8000600D2000600CC000500CF
:1016B000C7000500C2000500BD000400B900040019
:1016C000B5000400B1000400AD000400A90004004E
:1016D000A5000300A20003009F0004009B0003007C
:1016E000980003009500020093000300900003009F
:1016F0008D0002008B0003008800020086000200BB
:1017000084000300810002007F0002007D000200CF
:101710007B000200790002007700010076000200E1
:101720007400020072000100710002006F000200EC
:101730006D0001006C0002006A00010069000200F7
:1017400067000100660001006500010064000200FE
:101750006200010061000100600001005F00020002
:101760005D0001005C0001005B0001005A00010007
:101770005900010058000100570001005600010007
:101780005500010054000100530000005300010007
:101790005200010051000100500001004F00010003
:1017A0004E0000004E0001004D0001004C00010001
:1017B0004B0000004B0001004A00010049000100FD
:1017C00048000000480001004700010046000000FA
:1017D00046000100450000004500010044000100F2
:1017E00043000000430001004200000042000100ED
:1017F0004100000041000100400001003F000000E6
:101800003F0001003E0000003E0001003D000000DE
:101810003D0001003C0000003C0000003C000100D5
:101820003B0000003B0001003A0000003A000100CC
:1018300039000000390001003800000038000000C5
:1018400038000100370000003700010036000000BA
:1018500036000000360001003500000035000000B1
:1018600035000100340000003400000034000100A5
:10187000330000003300000033000100320000009C
:101880003200000032000100310000003100000091
:101890003100010030000000300000003000010085
:1018A0002F0000002F0000002F0000002F0001007B
:1018B0002E0000002E0000002E0001002D00000070
:1018C0002D0000002D0000002D0001002C00000064
:1018D0002C0000002C0000002C0001002B00000058
:1018E0002B0000002B0000002B0001002A0000004C
:1018F0002A0000002A0000002A0001002900000040
:101900002900000029000000290000002900010032
:101910002800000028000000280000002800000027
:101920002800010027000000270000002700000019
:10193000270000002700010026000000260000000C
:1019400026000000260000002600010025000000FF
:1019500025000000250000002500000025000000F3
:1019600025000100240000002400000024000000E5
:1019700024000000240001002300000023000000D8
:1019800023000000230000002300000023000000CB
:1019900023000100220000002200000022000000BD
:1019A00022000000220000002200010021000000AF
:1019B00021000000210000002100000021000000A3
:1019C0002100000021000100200000002000000094
:1019D0002000000020000000200000002000000087
:1019E00020000000200001001F0000001F00000078
:1019F0001F0000001F0000001F0000001F0000006B
:101A00001F0001001E0000001E0000001E0000005C
:101A10001E0000004D494E54454D502074726967B8
:101A20006765726564004572723A204D494E5445AF
:101A30004D5020424544004D415854454D5020746E
:101A40007269676765726564004572723A204D413C
:101A50005854454D502042454400546865726D61AC
:101A60006C2052756E6177617900544845524D4142
:101A70004C2052554E415741590048656174696E7A
:101A800067206661696C65640048656174696E67AA
:101A9000206661696C6564004D494E54454D502087
:101AA000747269676765726564004572723A204DA9
:101AB000494E54454D5000626564002C2073797383
:101AC00074656D2073746F70706564212048656162
:101AD0007465725F49443A20004D415854454D5059
:101AE00020747269676765726564004572723A2096
:101AF0004D415854454D50004B64200023646566A9
:101B0000696E65202044454641554C545F004B6941
:101B1000200023646566696E652020444546415572
:101B20004C545F004B70200023646566696E65202D
:101B30002044454641554C545F005049442041756E
:101B4000746F74756E652066696E6973686564216B
:101B50002050757420746865206C617374204B701C
:101B60002C204B6920616E64204B6420636F6E7380
:101B700074616E74732066726F6D2062656C6F772E
:101B800020696E746F20436F6E6669677572617449
:101B9000696F6E2E6800504944204175746F7475EA
:101BA0006E65206661696C6564212074696D656F7E
:101BB000757400504944204175746F74756E6520CA
:101BC0006661696C6564212054656D70657261742D
:101BD00075726520746F6F206869676800204B64B8
:101BE0003A2000204B693A2000204B703A20002018
:101BF000436C61737369632050494420002054751D
:101C00003A2000204B753A2000206D61783A200080
:101C1000206D696E3A200020643A200020626961DC
:101C2000733A200000000000300E0100C00E0A00D0
:101C3000500F1400D00F1E0060102800E01032007A
:101C400070113C00F01146007012500000135A0051
:101C50008013640000146E00901478001015820048
:101C600090158C00101696009016A0001017AA0070
:101C70009017B4001018BE009018C8001019D200B8
:101C80009019DC00101AE600801AF000001BFA0020
:101C9000801B0401F01B0E01701C1801F01C2201B6
:101CA000601D2C01E01D3601501E4001D01E4A016E
:101CB000401F5401B01F5E0130206801A020720156
:101CC00010217C0190218601002290016026F40100
:101CD000902A5802802EBC0250322003E035840343
:101CE0005039E803803C4C041000C90210012C015B
:101CF0004001220170011801B0010E01F001040140
:101D00005002FA00B002F0003003E600D003DC001D
:101D10009004D2007005C800A006BE000008B40000
:101D2000B009AA00D00BA000600E960060118C00D4
:101D30000015820020197800C01D6E00A0226400EA
:101D4000B0275A00902C500000314600E0343C008F
:101D500010383200903A2800603C1E00A03D14006C
:101D6000803E0A00203F0000436172642072656D6E
:101D70006F766564004361726420696E7365727486
:101D80006564004D3432380020003F000920005ABD
:101D90000059005800466C6F7700466C6F7700461C
:101DA000616E2073706565640046616E20737065B6
:101DB00065640042656400426564004E6F7A7A6C27
:101DC00065004E6F7A7A6C650053706565640053E8
:101DD00070656564004D61696E004D6F76652058D1
:101DE000004D6F76652059004D6F7665205A00458D
:101DF0007874727564657200457874727564657282
:101E0000004D6F7665205A004D6F76652059004D64
:101E10006F76652058004D6F766520617869730094
:101E20004D6F766520302E316D6D004D6F766520DB
:101E3000316D6D004D6F76652031306D6D005072E3
:101E40006570617265005072656865617420504C00
:101E50004120426564005072656865617420504C91
:101E6000410050726570617265005072656865610D
:101E70007420414253204265640050726568656178
:101E800074204142530050726570617265004D3894
:101E9000300053776974636820706F776572206FC4
:101EA0006E004D38310053776974636820706F7726
:101EB0006572206F666600436F6F6C646F776E00AB
:101EC00050726568656174204142530050726568C4
:101ED00065617420504C41004D3834004469736191
:101EE000626C65207374657070657273004D6F76F7
:101EF000652061786973004732380A4732390047F4
:101F00003239004C6576656C2062656400536574F7
:101F100020686F6D65206F66667365747300473265
:101F200038004175746F20686F6D65004D61696E92
:101F30000053746F7265206D656D6F727900426534
:101F40006400426564004E6F7A7A6C65004E6F7A69
:101F50007A6C650046616E20737065656400466149
:101F60006E2073706565640054656D706572617490
:101F70007572650053746F7265206D656D6F72794F
:101F80000042656400426564004E6F7A7A6C6500B9
:101F90004E6F7A7A6C650046616E20737065656479
:101FA0000046616E2073706565640054656D7065F0
:101FB0007261747572650050726568656174204164
:101FC000425320636F6E66005072656865617420CD
:101FD000504C4120636F6E66005049442D430050C1
:101FE00049442D43005049442D44005049442D4458
:101FF000005049442D49005049442D49005049445E
:102000002D50005049442D50002008204661637433
:102010000020082046616374002008204D6178008C
:102020002008204D6178002008204D696E002008AE
:10203000204D696E004175746F74656D70004F6658
:1020400066004F6E200046616E2073706565640007
:1020500046616E2073706565640042656400426588
:1020600064004E6F7A7A6C65004E6F7A7A6C650008
:10207000436F6E74726F6C004573746570732F6D6F
:102080006D004573746570732F6D6D005A737465C0
:1020900070732F6D6D005A73746570732F6D6D00C2
:1020A0005973746570732F6D6D0059737465707317
:1020B0002F6D6D005873746570732F6D6D005873BC
:1020C000746570732F6D6D00412D74726176656C4F
:1020D00000412D74726176656C00412D72657472D9
:1020E00061637400412D7265747261637400416DA7
:1020F0006178204500416D6178204500416D61782F
:10210000205A00416D6178205A00416D6178205954
:1021100000416D6178205900416D6178205800417F
:102120006D61782058005654726176206D696E009A
:102130005654726176206D696E00566D696E005658
:102140006D696E00566D6178204500566D6178208E
:102150004500566D6178205A00566D6178205A000E
:10216000566D6178205900566D6178205900566D82
:102170006178205800566D617820580056652D6AA8
:1021800065726B0056652D6A65726B00567A2D6A12
:1021900065726B00567A2D6A65726B005678792DE0
:1021A0006A65726B005678792D6A65726B004163BF
:1021B00063656C00416363656C005A204F6666730B
:1021C0006574005A204F666673657400436F6E74C1
:1021D000726F6C0046696C2E204469612E0046695E
:1021E0006C2E204469612E004520696E206D6D3390
:1021F000004F6666004F6E2000436F6E74726F6C06
:1022000000526573746F7265206661696C736166F4
:1022100065004C6F6164206D656D6F727900537459
:102220006F7265206D656D6F72790046696C616DC6
:10223000656E74004D6F74696F6E0054656D7065E6
:10224000726174757265004D61696E00022E2E0018
:102250004D61696E004E6F205344206361726400CB
:102260005072696E742066726F6D2053440053740F
:102270006F70207072696E7400526573756D6520A1
:102280007072696E74005061757365207072696E4A
:102290007400436F6E74726F6C005072657061727F
:1022A000650054756E6500496E666F2073637265D4
:1022B000656E0000060900FE070192032120FFFF62
:1022C00008FF07FF000000060000010707060200E4
:1022D00080808080800080030202060105A0A005A6
:1022E00007070600005050F850F850500507070641
:1022F00000002078A07028F020050707060000C025
:10230000C810204098180507070600006090A040FC
:10231000A89068020303060104C040800307070673
:1023200001002040808080402003070706010080D4
:1023300040202020408005050506000120A870A847
:10234000200505050600012020F8202002030306D1
:1023500002FFC04080050101060003F802020206E8
:102360000200C0C0050505060001081020408005D8
:1023700007070600007088888888887003070706AA
:10238000010040C040404040E005070706000070E3
:102390008808708080F8050707060000F8102010F4
:1023A0000808F005070706000010305090F81010DC
:1023B000050707060000F880F00808887005070781
:1023C000060000708080F08888700507070600000E
:1023D000F8081020202020050707060000708888D4
:1023E00070888870050707060000708888780808DC
:1023F00070020505060200C0C000C0C00206060645
:1024000002FFC0C000C04080040707060000102083
:102410004080402010050303060002F800F804077E
:1024200007060100804020102040800507070600B5
:10243000007088081020002005070706000070883B
:102440000868A8A870050707060000708888F88843
:102450008888050707060000F08888F08888F0055E
:1024600007070600007088808080887005070706CF
:102470000000F08888888888F0050707060000F8C3
:102480008080F08080F8050707060000F88080F063
:10249000808080050707060000708880B8888870F3
:1024A000050707060000888888F8888888010707DC
:1024B000060200808080808080800507070600007B
:1024C000381010101090600507070600008890A0D3
:1024D000C0A090880507070600008080808080806B
:1024E000F805070706000088D8A8888888880507A7
:1024F000070600008888C8A898888805070706008E
:102500000070888888888870050707060000F088B2
:1025100088F080808005070706000070888888A8FA
:102520009068050707060000F08888F0A0908805ED
:102530000707060000788080700808F00507070686
:102540000000F82020202020200507070600008832
:10255000888888888870050707060000888888882A
:102560008850200507070600008888888888A850BA
:10257000050707060000888850205088880507074F
:1025800006000088888850202020050707060000E4
:10259000F80810204080F8030707060100E080805B
:1025A000808080E0050505060001804020100803BA
:1025B0000707060100E02020202020E00503030695
:1025C0000004205088050101060000F802020206FE
:1025D000020580400505050600007008788878052A
:1025E00007070600008080B0C88888F0050505064A
:1025F00000007080808870050707060000080868E2
:10260000988888780505050600007088F8807005B0
:1026100007070600003048E0404040400506060637
:1026200000FF708888780870050707060000808022
:10263000B0C8888888010707060200800080808073
:1026400080800308080601FF200020202020A040F1
:10265000040707060000808090A0C0A09003070731
:10266000060100C04040404040E00505050600006E
:10267000D0A8A8A8A8050505060000B0C8888888C5
:1026800005050506000070888888700506060600A6
:10269000FFF08888F080800506060600FF788888AD
:1026A000780808050505060000B0C880808005058B
:1026B0000506000070807008F0040707060000405F
:1026C00040E04040403005050506000088888898B5
:1026D0006805050506000088888850200505050660
:1026E00000008888A8A8500505050600008850202D
:1026F00050880506060600FF88888878087005055A
:1027000005060000F8102040F80307070601002026
:102710004040804040200107070602008080808002
:1027200080808003070706010080404020404080F1
:10273000050202060002689000000006000000008A
:102740000006000000000006000000000006000077
:102750000000000600000000000600000000000667
:10276000000000000006000000000006000000005D
:102770000006000000000006000000000006000047
:102780000000000600000000000600000000000637
:10279000000000000006000000000006000000002D
:1027A0000006000000000006000000000006000017
:1027B0000000000600000000000600000000000607
:1027C00000000000000600000000000600000000FD
:1027D00000060000000000060000000000060000E7
:1027E00000000006000000000006000000000006D7
:1027F00000000000000600000000000600000000CD
:10280000000600000107070602008000808080802B
:10281000800507070600002070A8A0A87020050703
:1028200007060000304040E04050A80505050600BE
:10283000008870507088050707060000885020F84F
:1028400020F8200107070602008080800080808039
:102850000508080600003048205050209060030111
:1028600001060107A0050707060000F888B8B8B8F8
:1028700088F8050707060001700878887800F805D1
:1028800005050600012850A0502805030306000195
:10289000F808080202020602064080050707060043
:1028A00000F888A88898A8F8050101060006F80431
:1028B00004040600036090906005070706000020EE
:1028C00020F8202000F80405050600036090204051
:1028D000F0030505060003E020E020E00202020606
:1028E000020640800508080600FF8888888898E866
:1028F0008080050707060000789898781818180255
:102900000202060202C0C00202020602FF40800369
:10291000050506000340C04040E00507070600012A
:10292000708888887000F8050505060001A0502809
:1029300050A00507070600008890A858B8080805A9
:1029400007070600008890B8489820380508080650
:102950000000C040C048D838080805070706000036
:1029600020002040808870050808060000402000F4
:102970007088F88888050808060000102000708814
:10298000F888880508080600002050007088F8883C
:10299000880508080600006890007088F888880597
:1029A00008080600005000708888F8888805080824
:1029B0000600002050207088F88888050707060068
:1029C000003860A0B8E0A0B80508080600FF7088CD
:1029D000808088702060050808060000402000F80C
:1029E00080F080F8050808060000081000F880F064
:1029F00080F8050808060000205000F880F080F8F4
:102A00000507070600005000F880F080F80308086A
:102A1000060100804000E0404040E0030808060155
:102A200000204000E0404040E0030808060100406C
:102A3000A000E0404040E0030707060100A000E0DE
:102A4000404040E0050707060000704848E8484855
:102A50007005080806000068900088C8A8988805D6
:102A600008080600004020708888888870050808DB
:102A70000600001020708888888870050808060005
:102A800000205000708888887005080806000068DB
:102A90009000708888887005080806000050007053
:102AA00088888888700505050600018850205088B0
:102AB0000508080600FF1070A8A8A8A8704005081F
:102AC0000806000040208888888888700508080665
:102AD0000000102088888888887005080806000093
:102AE000205000888888887005080806000050007B
:102AF000888888888870050808060000102088509B
:102B0000202020200509090600FFC04070484870B9
:102B10004040E00408080601FF609090A09090E01B
:102B200080050808060000402000700878887805B5
:102B3000080806000010200070087888780508084A
:102B40000600002050007008788878050808060004
:102B50000068900070087888780507070600005024
:102B6000007008788878050808060000205020705A
:102B700008788878050606060000D02878A0A850B6
:102B80000506060600FF70808870206005080806AC
:102B900000004020007088F88070050808060000DA
:102BA0001020007088F8807005080806000020508A
:102BB000007088F8807005070706000050007088D4
:102BC000F8807003080806010080400040C04040C3
:102BD000E003080806010020400040C04040E00338
:102BE000080806010040A00040C04040E00307077D
:102BF000060100A00040C04040E0050707060000B5
:102C0000A040A010788870050808060000689000B1
:102C1000B0C8888888050808060000402000708831
:102C200088887005080806000010200070888888D1
:102C3000700508080600002050007088888870051C
:102C400008080600006890007088888870050707EB
:102C50000600005000708888887005050506000190
:102C60002000F800200507070600FF1070A8A8A89C
:102C70007040050808060000402000888888986891
:102C80000508080600001020008888889868050854
:102C90000806000020500088888898680507070605
:102CA0000000500088888898680509090600FF1010
:102CB0002000888888F808700407070601FFC040D4
:102CC00060506040E00508080600FF5000888888D2
:102CD00078087000060900FE0000000000010900ED
:102CE00008FE000005080806000040F0C888889823
:102CF0007810050808060000C0F88888888888F8D9
:102D00000505050600012030F830200508080600FA
:102D1000002070F820202020E00509090600FF208F
:102D200070A8A8B8888870200509090600FFE0800F
:102D3000C0B0A8283028280509090600FFF8A8888F
:102D400088888888A8F8050A0A0600FE2050505096
:102D50005088A8A8887003030306000340A0400021
:102D600000000000000000000000007FFFE0000005
:102D7000000000000000000000007000E000000003
:102D800000000000000000000061F860000000008A
:102D9000000000000000000041F8200000000000DA
:102DA0000000000000000040F020000000000000D3
:102DB0000000000000004060200000000000000053
:102DC00000000000005801A07F800000000000000B
:102DD000004104005C63A0FFC00000000000000090
:102DE0002082005EF7A0FFC000000000000000206D
:102DF00082005EF7A0FFC000000000000000410458
:102E0000005C63A07F8000000000000000820800DA
:102E10005801A07F80000000000000010410004065
:102E20006020FFC00000000000000104100040F01E
:102E300020FFC00000000000000082080041F820D0
:102E4000FFC00000000000000041040061F8603F86
:102E500000000000000000000000007000E01E0004
:102E600000000000000001FFFF807FFFE00C000079
:102E7000000000000001FFFF8000000000000000D3
:102E800000000000000000007FFFE00000000000E4
:102E9000000000000000007000E0000000000000E2
:102EA000000000000000630C600000000000000053
:102EB0000000000000470E2000000000000000009D
:102EC000000000004F0F2000000000000000000084
:102ED0000000005F0FA000000000000000000000E4
:102EE00000005E07A07F8000000000000000410499
:102EF00000406020FFC000000000000000208200B1
:102F000040F020FFC00000000000000020820040D0
:102F1000F020FFC0000000000000004104004060FD
:102F2000207F80000000000000008208005E07A0F3
:102F30007F80000000000000010410005F0FA0FF70
:102F4000C0000000000000010410004F0F20FFC06F
:102F500000000000000000820800470E20FFC000B3
:102F6000000000000000410400630C603F0000000E
:102F700000000000000000007000E01E00000000E3
:102F800000000001FFFF807FFFE00C000000000058
:102F9000000001FFFF80000000FFFFFF800FFC0F1B
:102FA00081F80FFC00F81E0FFFFFFF800FFF0F835B
:102FB000FE0FFF03FE1E0FFFFFFF800FFF0F87FFB7
:102FC0000FFF07FF1F1FE00003800FFF8F8FFF0F12
:102FD000FF87FF0F1EE00003800F8F8F8F8F8F8F73
:102FE0008F8F8F1EE03E03800F8F8F8F8F8F8F8F7D
:102FF0008F87BCE03E03800F8F8F8F8F8F8F8F8FD7
:1030000087BCE03E03800F8F8F8F8F8F8F8F8F87CE
:10301000FCE03E03800FFF8F8F8F8FFF8F8F83F831
:10302000E03E03800FFF0F8F800FFF0F8F83F8E0CC
:103030001C03800FFC0F8F800FFC0F8F83F8E008BC
:1030400003800FFF0F8F9F8FFF0F8F83F8E0000328
:10305000800FFF8F8F9F8FFF8F8F83F8E00003809B
:103060000F8F8F8F9F8F8F8F8F87FCE00003800FD4
:103070008F8F8F8F8F8F8F8F87BCE00003800F8F94
:103080008F8F8F8F8F8F8F87BCE00003800F8F8F84
:103090008F8F8F8F8F8F873CE00003800F8F8F8FF4
:1030A0008F8F8F8F8F8F1EE00003800F8F8F8F8FFA
:1030B0008F8F8F8F8F1EE00003800FFF8F8FFF8F0A
:1030C000FF87FF0F1EE00003800FFF8F87FF8FFF3A
:1030D00087FF1F1FE00003800FFF0F83FB8FFF039D
:1030E000FE1E0FE00003800FFE0F81F38FFE00F83D
:1030F0001E0FE00003800000000000000000000040
:1031000000E000038000000000000000000000005C
:10311000E00003800000000000000000000000E765
:10312000FFF3800000000000000000000000E7FF47
:10313000F3800000000000000000000000E0000339
:10314000800000000000000000000000E00003809C
:103150000000000000000000000000E0000380000C
:1031600000000000000000000000FFFFFF800000E2
:10317000000000000000000000FFFFFF80000000D2
:103180000000000000000000FFFFFF8000000000C2
:103190000000000000000000000A0B02090C0D0EE8
:1031A0000807030401000000000000000000000008
:1031B000000000000000000000000000000000000F
:1031C00000000012111000000000000000000000CC
:1031D00000000000000000000000000000010210DC
:1031E0002020080810204010204080020102010821
:1031F00004020101020408102040808040201008D1
:103200000402018004020180402010080402010829
:103210000402010102040810204080010204081089
:103220002040800505050507050808080802020278
:10323000020A0A0808040404040101010101010151
:10324000010303030303030303040707070C0C0C28
:103250000C0C0C0C0C020202020606060606060600
:10326000060B0B0B0B0B0B0B0B0000200023002697
:103270000029002C002F003200000100000301068D
:1032800001090100002200250028002B002E00313A
:1032900000340002010000050108010B01000021BB
:1032A00000240027002A002D003000330001010017
:1032B00000040107010A014E414E494E4954594943
:1032C0004E46CDCCCC3D0AD7233C17B7D13877CC6E
:1032D0002B329595E6241FB14F0A000020410000D3
:1032E000C84200401C4620BCBE4CCA1B0E5AAEC58C
:1032F0009D748D6D8AF274F7956D11241FBECFEF0A
:10330000D1E2DEBFCDBF00E00CBF14E0A0E0B2E030
:10331000E8E1FBE102E00BBF02C007900D92AC3E7A
:10332000B107D9F727E1ACEEB4E001C01D92A83592
:10333000B207E1F712E3C8EFD2E300E006C022973C
:103340000109FE010BBF0F94F006C23FD10780E0D8
:103350000807A9F70F945B010D947B0D0C940000F6
:10336000452BC1F020910A01206220930A013FB74A
:10337000F89420910B01206220930B013FBF0E9423
:1033800027FF9FB7F89480910B018F7D80930B01ED
:103390009FBF08950C9427FFFC01148217821382AB
:1033A00012828CE494E09183808308952CE434E0CD
:1033B000FC01318320832781222319F004960C9489
:1033C000AE970895CF92DF92EF92FF920F931F93E3
:1033D000CF93DF93EC018F96DFDFCE01805B9F4FB1
:1033E000DBDF7E012FE6E20EF11C87016E013BE57B
:1033F000C31A3EEFD30AC801CFDF015E1F4F0C1581
:103400001D05C9F7FE01EA55FE4F89E1818314824B
:103410003596178ACE0187539E4FBEDFFE01E658D0
:10342000FD4F108211821282138234961082118213
:10343000128213821A821B8218821982F80110826A
:10344000FE01E851FE4F108286E391E0F7019C01F6
:10345000119221503040E1F7FE01EA57FD4F81E023
:1034600080831EA61DA60E94F8FECE57DD4F68572A
:103470007C4E8F4F9F4F688379838A839B83DF9134
:10348000CF911F910F91FF90EF90DF90CF90089513
:10349000FC0120E03EE2DB014C91403241F028305B
:1034A00011F430833196DB014C91408331962F5FCC
:1034B0006F5F7F4F2B3079F7108208952F923F92E4
:1034C0004F925F926F927F928F929F92AF92BF9234
:1034D000CF92DF92EF92FF920F931F93CF93DF93E0
:1034E000CDB7DEB7C657D1090FB6F894DEBF0FBE11
:1034F000CDBF8C016B015A0129012DB73EB7E39670
:103500003FAF2EAFE397AD961FAEAD9734E0A30E5D
:10351000B11C4296E5969FAF8EAFE597180199E7EB
:10352000291A9DEF390AF801E757FD4FAF96FFAF13
:10353000EEAFAF973801F5E06F0E711C7E012FE5FD
:10354000E20EF11C80E490E08C0F9D1F0496E7963C
:103550009FAF8EAFE797E5964EAD5FADE597BE01A5
:103560006F5F7F4FC5010E94149618160CF041C181
:103570002C85322F3871303109F0BCC0F1018081C7
:1035800091810197029708F4B5C02DB73EB7E19637
:103590003FAF2EAFE197BE016F5F7F4FC70178DF6E
:1035A00081E0F601908191119DC0E1E0F0E0D7014A
:1035B0000D900020E9F7EE19FF09EA0FFB1F319685
:1035C0002DB73EB72E1B3F0B0FB6F8943EBF0FBE74
:1035D0002DBFEDB7FEB731964F01882319F061E298
:1035E00073E001C0B601C4010F947C0AB701C401A5
:1035F0000F945D0A61E273E0C4010F945D0ACE018D
:10360000805C9F4FC9DE21E0A701B501E7968EAD32
:103610009FADE7970E94A599811137C0F101808184
:103620009181892B91F5E3E8F1E18491882341F0C0
:103630009091C00095FFFCCF8093C6003196F5CFE6
:10364000E3E2F3E08191882339F09091C00095FF87
:10365000FCCF8093C600F6CF8091C00085FFFCCFE1
:103660008AE08093C600F7018191882339F0909118
:10367000C00095FFFCCF8093C600F6CF8091C000BC
:1036800085FFFCCF8AE08093C6008BE1FE01EC5BF6
:10369000FF4FDE01959601900D928A95E1F72496F1
:1036A0008EAD9FAD24979CA38BA38CE494E09AA34A
:1036B00089A320E030E0AE014F5D5F4FB401C80147
:1036C000FDDECE01819672DECE01805C9F4F6EDE04
:1036D000E1962EAD3FADE1970FB6F8943EBF0FBE19
:1036E0002DBF39CF80E001900020E9F73197EC1928
:1036F000FD095DCF8981882309F47BC0853E09F4EB
:103700002ACF8E3209F427CFF80182898E3209F44C
:1037100022CF23FD20CF81E0303109F080E0F80195
:103720008483811108C08985873409F014CF8A8584
:103730008E3709F410CFF10180819181813091059C
:1037400069F08230910581F1892B09F004CFBE0127
:103750006F5F7F4FC3019CDEF60110C0AF96EEADE8
:10376000FFADAF9780819181019691838083F3CEE5
:103770009091C00095FFFCCF8093C600819181118C
:10378000F7CFF3018191882339F09091C00095FF24
:10379000FCCF8093C600F6CF8091C00085FFFCCFA0
:1037A0008AE08093C600D7CEBE016F5F7F4FC30112
:1037B0006FDE4114510439F0B301C2010F944A0A7B
:1037C000892B79F416C0AD96FFADAD972F2F30E061
:1037D000AF96EEADFFADAF97808191812817390785
:1037E00041F0AD96FFADAD97FF5FAD96FFAFAD97E2
:1037F000B2CEE3962EAD3FADE3970FB6F8943EBF41
:103800000FBE2DBFCA58DF4F0FB6F894DEBF0FBEF4
:10381000CDBFDF91CF911F910F91FF90EF90DF907F
:10382000CF90BF90AF909F908F907F906F905F9060
:103830004F903F902F900895EF92FF920F931F9318
:10384000CF93DF93CDB7DEB76F970FB6F894DEBF97
:103850000FBECDBF8C01FC01E957FD4F11821082D4
:103860007C0183E3E80EF11C40E050E0BA01C7019F
:103870000E94CB968BE1F701DE01159601900D9227
:103880008A95E1F7F80181A992A99C838B838CE446
:1038900094E09A83898320E030E0AE014F5F5F4F70
:1038A0006DE473E0C8010ADECE0101967FDD6F96FC
:1038B0000FB6F894DEBF0FBECDBFDF91CF911F9141
:1038C0000F91FF90EF900895EF92FF920F931F9347
:1038D000CF93DF93EC011B828EA9882321F0CE01C8
:1038E000C3960E94AE977E018AE5E81A8EEFF80A29
:1038F00045E360E0C7010E942B9281111FC0E3E8FD
:10390000F1E18491882341F09091C00095FFFCCFB4
:103910008093C6003196F5CFECEEF3E084918823D6
:1039200041F09091C00095FFFCCF8093C600319686
:10393000F5CF8091C00085FFFCCF76C08E01055584
:103940001E4F41E0B701C8010E94AF9F811126C000
:1039500040E0B701C8010E94AF9F81111FC0E9E894
:10396000F1E18491882341F09091C00095FFFCCF54
:103970008093C6003196F5CFE9EDF3E0849188237A
:1039800041F09091C00095FFFCCF8093C600319626
:10399000F5CF8091C00085FFFCCF46C0B801CE01B5
:1039A000C3960E94B89481111FC0E9E8F1E18491A7
:1039B000882341F09091C00095FFFCCF8093C60012
:1039C0003196F5CFE9ECF3E08491882341F09091B2
:1039D000C00095FFFCCF8093C6003196F5CF809153
:1039E000C00085FFFCCF20C081E08B83E3E8F1E1DC
:1039F0008491882341F09091C00095FFFCCF809383
:103A0000C6003196F5CFEEEBF3E08491882341F0C8
:103A10009091C00095FFFCCF8093C6003196F5CF02
:103A20008091C00085FFFCCF8AE08093C600CE0164
:103A3000805B9F4F2BE1FE01F396DC011496019011
:103A40000D922A95E1F729A93AA9FC013383228333
:103A50003297AF96D183C083DF91CF911F910F91A1
:103A6000FF90EF900895FC01128213820895CF9287
:103A7000DF92EF92FF920F931F93CF93DF93CDB717
:103A8000DEB7CDB6DEB6FB0101900020E9F7E61BFC
:103A9000F70B34968DB79EB78E1B9F0B0FB6F8941D
:103AA0009EBF0FBE8DBF0DB71EB70F5F1F4F7F9319
:103AB0006F9387EB93E09F938F931F930F930F94D4
:103AC000A00A780194E0E90EF11C0F900F900F907E
:103AD0000F900F900F90F7018081882349F099276C
:103AE00087FD90950F94EB09F70181937F01F3CF48
:103AF00060E0C8010E947C3383EB93E00E94213494
:103B00000FB6F894DEBE0FBECDBEDF91CF911F91F0
:103B10000F91FF90EF90DF90CF900895FC012381EB
:103B2000222311F021E022830895FC01228121113A
:103B300012820895AF92BF92CF92DF92EF92FF92DE
:103B40000F931F93CF93DF931F92CDB7DEB78C01F6
:103B50008FE2FB0181935F01D12C21E07801FBE52D
:103B6000EF1AFEEFFF0A8FE1C82EF7018081D81609
:103B7000C8F4B501C801CD9C800D911D11248D584C
:103B80009F4F29830E945F94C50129815C010196A2
:103B9000F5013081332321F02D3810F42F5FF6CF5B
:103BA000D394E3CF27FD11C0B501C80183539E4FC5
:103BB0000F90DF91CF911F910F91FF90EF90DF90C9
:103BC000CF90BF90AF900C945F94F50110820F904E
:103BD000DF91CF911F910F91FF90EF90DF90CF90E9
:103BE000BF90AF9008953F924F925F926F927F92F5
:103BF0008F929F92AF92BF92CF92DF92EF92FF92FD
:103C00000F931F93CF93DF93CDB7DEB7AC970FB66B
:103C1000F894DEBF0FBECDBF7C015B01FC01838148
:103C2000882309F4EDC0C70183539E4F0E94AE97CD
:103C3000F7011282CE0101966C01AEDB27019EE4F2
:103C4000490E511CC7018F96F20191838083F501C3
:103C500080818F3209F077C06FE270E0C5010F9468
:103C6000680A8C010F5F1F4F9AE0392E011511056C
:103C700009F46FC06FE270E0C8010F94680A4C014C
:103C8000009709F467C00817190708F063C03C01E2
:103C9000601A710AA301B801CE0180960F94910AAF
:103CA000E0E2F0E0EC0FFD1FE60DF71D1082FE01D3
:103CB000B0968191882339F09091C00095FFFCCF98
:103CC0008093C600F6CF8091C00085FFFCCF309274
:103CD000C600F201608171816115710519F06C5F98
:103CE0007F4F02C060E070E021E0AE01405E5F4FB8
:103CF000CE0105960E94A59981111EC0EFE8F2E061
:103D00008491882341F09091C00095FFFCCF80936F
:103D1000C6003196F5CFFE01B0968191882339F027
:103D20009091C00095FFFCCF8093C600F6CF8091A4
:103D3000C00085FFFCCF5FC0F201D182C082840148
:103D40000F5F1F4F93CFC701805B9F4FF20191839D
:103D500080838501F20180819181009711F00496A2
:103D600002C080E090E0B8010E947B9A811103C0FC
:103D7000E9E6F2E02EC0E1E8F2E08491882341F028
:103D80009091C00095FFFCCF8093C6003196F5CF8F
:103D9000F8018191882339F09091C00095FFFCCF04
:103DA0008093C600F6CF8091C00085FFFCCF8AE0EB
:103DB0008093C600F701E258FD4F108211821282F3
:103DC00013821CC09091C00095FFFCCF8093C60069
:103DD000319684918111F6CFF8018191882339F0D1
:103DE0009091C00095FFFCCF8093C600F6CF8091E4
:103DF000C00085FFFCCF8EE28093C600C601D6DAF4
:103E0000AC960FB6F894DEBF0FBECDBFDF91CF9159
:103E10001F910F91FF90EF90DF90CF90BF90AF90E8
:103E20009F908F907F906F905F904F903F900895FC
:103E3000CF93DF93EC018B81811103C0E7E4F2E0C3
:103E400039C0E7E5F2E08491882341F09091C00009
:103E500095FFFCCF8093C6003196F5CFFE01E25866
:103E6000FD4F40815181628173812AE030E08CEE08
:103E700094E00E9499318091C00085FFFCCF8FE2D1
:103E80008093C600C658DD4F488159816A817B8185
:103E90002AE030E08CEE94E00E9499318091C000DD
:103EA00085FFFCCF0EC09091C00095FFFCCF8093A2
:103EB000C600319684918111F6CF8091C00085FFB4
:103EC000FCCF8AE08093C600DF91CF910895AF9236
:103ED000BF92CF92DF92EF92FF920F931F93CF93F7
:103EE000DF935C01EB01FB0101900020E9F78F01FA
:103EF00001501109061B170B6C01F3E3CF1AFEEFFB
:103F0000DF0AF60110826EE470E0CE010F94680AB9
:103F10007C01009729F4F8013197EC0FFD1F0DC0CB
:103F200060E270E00F94680AEC0121966AE270E0AA
:103F3000C7010F94680AFC0131978DE081838AE004
:103F400082831382BE01C50187539E4F0E94589CF5
:103F5000F6018081882309F1E9E8F1E18491882361
:103F600041F09091C00095FFFCCF8093C600319640
:103F7000F5CFE1E3F2E08491882341F09091C00015
:103F800095FFFCCF8093C6003196F5CF8091C0009D
:103F900085FFFCCF8AE08093C600DF91CF911F910F
:103FA0000F91FF90EF90DF90CF90BF90AF9008956A
:103FB0006F927F928F929F92AF92BF92CF92DF9239
:103FC000EF92FF920F931F93CF93DF93CDB7DEB79E
:103FD000AA970FB6F894DEBF0FBECDBF8C018A57EB
:103FE0009D4F7C01611114C0FC018081882309F47C
:103FF00098C00E94F8FEF801EE57FD4F8080918036
:10400000A280B380681979098A099B0997FF89C042
:10401000F7011082F8018381811107C0C80154DCC7
:10402000F8018381882309F47CC0F80186A58F9369
:1040300085A58F9388E292E09F938F937E01F1E2B2
:10404000EF0EF11CFF92EF920F94A00A0F900F90C9
:104050000F900F900F900F90B12CF701019000205E
:10406000E9F73197EE19FF09BE1684F46701CB0C0E
:10407000D11CB7FCDA94F6018081992787FD9095D1
:104080000F94EB09F6018083B394E7CF4801F3E383
:104090008F0E911C40E050E0BA01C4010E94CB9603
:1040A000612CCE0101965C0140E050E0B501C401F5
:1040B0000E94149618164CF5712CF5010190002001
:1040C000E9F73197EA19FB097E1674F46501C70C0C
:1040D000D11C77FCDA94F601808190E00F94EB0913
:1040E000F60180837394E9CF8A858E37E9F245E043
:1040F00050E0B701C5010F94830A892BA9F6B701D7
:10410000C801B5DC66246394CFCF611004C08FEF83
:104110009FEFF80104C0F80185A596A5019696A722
:1041200085A7AA960FB6F894DEBF0FBECDBFDF916C
:10413000CF911F910F91FF90EF90DF90CF90BF90A4
:10414000AF909F908F907F906F9008950F931F93E3
:10415000CF93DF93EC018C0103531E4FC8010E94E3
:104160006497C8010E94AE9719821882DF91CF919F
:104170001F910F910895CF92DF92EF92FF920F93CC
:104180001F93CF93DF93CDB7DEB76F970FB6F89439
:10419000DEBF0FBECDBF8C016A017C018EE4E80E4C
:1041A000F11CC801805B9F4FF70191838083E75C1E
:1041B000FD4F22E030E031832083329671836083AB
:1041C00040E050E0BA0104960E94CB96F70180814E
:1041D00091812BE1FC013496DE01159601900D9240
:1041E0002A95E1F7FC01828193819C838B838CE487
:1041F00094E09A8389839601AE014F5F5F4F6DE42F
:1042000073E0C8015BD9CE010196D0D86F960FB686
:10421000F894DEBF0FBECDBFDF91CF911F910F91FC
:10422000FF90EF90DF90CF9008952F923F924F92A2
:104230005F926F927F928F929F92AF92BF92CF9236
:10424000DF92EF92FF920F931F93CF93DF93CDB73F
:10425000DEB7AC970FB6F894DEBF0FBECDBF8C01B2
:104260006B01342EFC018381882309F4CDC2E05315
:10427000FE4F8081882309F4FAC0211103C0E3E8CE
:10428000F1E1CDC07801F8E1EF1AFEEFFF0AF70186
:104290008081811103C0E3E8F1E135C0E9E8F1E193
:1042A0008491882341F09091C00095FFFCCF8093CA
:1042B000C6003196F5CFE0E7F3E08491882341F022
:1042C0009091C00095FFFCCF8093C6003196F5CF4A
:1042D0004AE050E061E070E08CEE94E00E946D31C5
:1042E0008091C00085FFFCCF8AE08093C60087E6FE
:1042F00093E00E94FE5788C29091C00095FFFCCFCA
:104300008093C600319684918111F6CFEEE4F3E0FC
:104310008491882341F09091C00095FFFCCF809359
:10432000C6003196F5CFF6018191882339F090913E
:10433000C00095FFFCCF8093C600F6CFE3E4F3E026
:104340008491882341F09091C00095FFFCCF809329
:10435000C6003196F5CFF70180813DE8B32EB80154
:10436000B89E600D711D112463517E4FC801E2DBC0
:10437000F7018081F801B89EE00DF11D1124E35191
:10438000FE4F8191882339F09091C00095FFFCCFBA
:104390008093C600F6CFEDE3F3E08491882341F0EB
:1043A0009091C00095FFFCCF8093C6003196F5CF69
:1043B0005801F2E8AF1AFDEFBF0AF50140815181C3
:1043C000628173812AE030E08CEE94E00E949931A2
:1043D0008091C00085FFFCCF8AE08093C600F70182
:1043E0002081F80184E0289FE00DF11D1124AF0128
:1043F00047515E4FF50180819181A281B381FA011D
:1044000080839183A283B3832F5FF701208329C028
:104410009091C00095FFFCCF8093C60031968491A7
:104420008111F6CFECE2F3E08491882341F0909182
:10443000C00095FFFCCF8093C6003196F5CFF60102
:104440008191882339F09091C00095FFFCCF809333
:10445000C600F6CF8091C00085FFFCCF8AE0809334
:10446000C600C80183539E4F0E94AE9730C0F8012A
:10447000E851FE4F1082E3E8F1E18491882341F096
:104480009091C00095FFFCCF8093C6003196F5CF88
:10449000EBE1F3E08491882341F09091C00095FF17
:1044A000FCCF8093C6003196F5CFF6018191882329
:1044B00039F09091C00095FFFCCF8093C600F6CFF5
:1044C0008091C00085FFFCCF8AE08093C600F80190
:1044D0001282CE0101965C010E94CC1928019EE453
:1044E000490E511CC8018F96F20191838083F60119
:1044F00080818F3209F077C07601FFEFEF1AFF0A53
:104500002AE0222EE114F10409F473C06FE270E096
:10451000C7010F94680A4C01009709F46BC0E816B4
:10452000F90608F067C03C016E187F08A301B701C7
:10453000CE0180960F94910AE0E2F0E0EC0FFD1FAF
:10454000E60DF71D1082FE01B0968191882339F0A7
:104550009091C00095FFFCCF8093C600F6CF80916C
:10456000C00085FFFCCF2092C600F20160817181FE
:104570006115710519F06C5F7F4F02C060E070E05B
:1045800021E0AE01405E5F4FCE0105960E94A599E5
:10459000811121C0E7E0F3E08491882341F09091FC
:1045A000C00095FFFCCF8093C6003196F5CFFE0189
:1045B000B0968191882339F09091C00095FFFCCF8F
:1045C0008093C600F6CF8091C00085FFFCCF8EE2BD
:1045D0008093C60016C1F201B182A0827401FFEF80
:1045E000EF1AFF0A8FCFC801805B9F4FF2019183C2
:1045F00080837601C80183539E4F4C01F201608194
:104600007181332009F4A3C06115710519F06C5F45
:104610007F4F02C060E070E021E0A701C4010E946A
:10462000A599811103C0EFECF2E075C098012658FE
:104630003D4FF40181899289A389B489F90180836E
:104640009183A283B383E9EFF2E08491882341F060
:104650009091C00095FFFCCF8093C6003196F5CFB6
:10466000F7018191882339F09091C00095FFFCCF2C
:104670008093C600F6CFE1EFF2E08491882341F009
:104680009091C00095FFFCCF8093C6003196F5CF86
:10469000F90140815181628173812AE030E08CEE22
:1046A00094E00E9499318091C00085FFFCCF8AE0A0
:1046B0008093C600F801E258FD4F108211821282E9
:1046C0001382E3EEF2E08491882341F09091C000E0
:1046D00095FFFCCF8093C6003196F5CF8091C00046
:1046E00085FFFCCF8AE08093C600A70160E070E000
:1046F000C80141DDF8018289882319F0C80142967A
:1047000001C0C70160E07BC09091C00095FFFCCF65
:104710008093C600319684918111F6CFF701819183
:10472000882339F09091C00095FFFCCF8093C6009C
:10473000F6CFECECF2E08491882309F462C090910A
:10474000C00095FFFCCF8093C6003196F4CF611571
:10475000710519F06C5F7F4F02C060E070E026E5E4
:10476000A701C4010E94A599811125C0E8EBF2E0E0
:104770008491882341F09091C00095FFFCCF8093F5
:10478000C6003196F5CFF7018191882339F09091D9
:10479000C00095FFFCCF8093C600F6CFE5EBF2E0BA
:1047A0008491882371F19091C00095FFFCCF809394
:1047B000C6003196F5CF81E0F8018083E3EAF2E0AC
:1047C0008491882341F09091C00095FFFCCF8093A5
:1047D000C6003196F5CFF6018191882339F090918A
:1047E000C00095FFFCCF8093C600F6CF8091C0003B
:1047F00085FFFCCF8AE08093C60060E0C7010E947D
:104800006ECEC5010E94D619AC960FB6F894DEBFE5
:104810000FBECDBFDF91CF911F910F91FF90EF9011
:10482000DF90CF90BF90AF909F908F907F906F90D0
:104830005F904F903F902F90089521E0FC012183DD
:1048400020E040E0F2CCCF92DF92EF92FF920F9304
:104850001F93CF93DF93CDB7DEB76F970FB6F89462
:10486000DEBF0FBECDBF8C016C012EE4C20ED11C89
:10487000805B9F4FF60191838083E75CFD4F21E0D1
:1048800030E0318320837801F7E7EF1AFDEFFF0A6C
:10489000F7011182108240E050E0BA0104960E94B4
:1048A000CB96F601808191812BE1FC013496DE01EB
:1048B000159601900D922A95E1F7FC018281938172
:1048C0009C838B838CE494E09A83898320E030E09E
:1048D000AE014F5F5F4F6DE473E0C8010E945E1A46
:1048E000CE0101960E94D619F701808191816F96C1
:1048F0000FB6F894DEBF0FBECDBFDF91CF911F91F1
:104900000F91FF90EF90DF90CF900895AF92BF92FC
:10491000CF92DF92EF92FF920F931F93CF93DF938B
:10492000CDB7DEB76F970FB6F894DEBF0FBECDBF21
:104930008C015B01CE0101960E94CC19F801E95A65
:10494000FF4F80817801811104C02FE2E20EF11C3B
:1049500003C030E5E30EF11C670144E0C40ED11C36
:1049600021E0A501B601CE0105960E94A59981110D
:104970002DC0E3E8F1E18491882341F09091C000DB
:1049800095FFFCCF8093C6003196F5CFE2E1F2E0CF
:104990008491882341F09091C00095FFFCCF8093D3
:1049A000C6003196F5CFF5018191882339F09091B9
:1049B000C00095FFFCCF8093C600F6CF8091C00069
:1049C00085FFFCCF8AE08093C60030C0F801EB552C
:1049D000FE4F80818A30D0F491E0980F9083F801E7
:1049E0002FE1829FE00DF11D1124CF0181599F4FCE
:1049F0002BE1F601DC01149601900D922A95E1F766
:104A0000F70122813381FC0133832283005B1F4F36
:104A10008BE1FE013596D801149601900D928A958E
:104A2000E1F78B819C81F80193838283CE0101960B
:104A30000E94D6196F960FB6F894DEBF0FBECDBF99
:104A4000DF91CF911F910F91FF90EF90DF90CF906A
:104A5000BF90AF900895CF93DF93FC01EB55FE4FCD
:104A600020812223D1F021502083EC013FE1239FBC
:104A7000C00DD11D1124C159DF4F805B9F4F2BE129
:104A8000FE013496DC01149601900D922A95E1F70F
:104A90002A813B81FC0133832283DF91CF910895EA
:104AA000EF92FF920F931F93CF93DF93EC010E943D
:104AB0008CA98E0108511E4FF80180819E0123535D
:104AC0003E4F79018823A1F1C9010E94AE97F801F8
:104AD000808181508083BE01FDE88F9F600D711D34
:104AE000112463517E4F21E041E0CE019EDBF801AD
:104AF0008081FE0124E0829FE00DF11D1124E75129
:104B0000FE4F4081518162817381FE01E258FD4F69
:104B10004083518362837383C7010E94CB96CE0189
:104B2000DF91CF911F910F91FF90EF900C948E1D0C
:104B3000C9010E94AE971A8286E092E00E94213459
:104B40008091720F882349F11092720F0091FB053A
:104B500010E0E801CC0FDD1FCF54DC4E6881798175
:104B6000882777FD8095982F0F94580320913E0257
:104B700030913F0240914002509141020F94B9049C
:104B800018165CF419821882C801DF91CF911F9129
:104B90000F91FF90EF900C943BB1DF91CF911F915B
:104BA0000F91FF90EF900895AF92BF92DF92EF9236
:104BB000FF920F931F93CF93DF931F92CDB7DEB772
:104BC0008C015B01460F8AE0D82E4A1509F43BC0E0
:104BD0007501F50161915F01F8018081918149833F
:104BE0000F94C40CF801808191810F94BC0CF701E3
:104BF00090814981891701F1E3E8F1E184918823EB
:104C000041F09091C00095FFFCCF8093C600319693
:104C1000F5CFE4ECF6E08491882341F09091C00058
:104C200095FFFCCF8093C6003196F5CF8091C000F0
:104C300085FFFCCFD092C600F8018081918101965A
:104C400091838083C2CF0F90DF91CF911F910F91FD
:104C5000FF90EF90DF90BF90AF900895EF92FF929A
:104C60000F931F93CF93DF931F92CDB7DEB78C01C5
:104C70007B01460FF8018081918149830F94BC0C20
:104C8000F70181937F01F8018081918101969183E1
:104C9000808349814E11EECF0F90DF91CF911F910C
:104CA0000F91FF90EF900895CF92DF92EF92FF92D5
:104CB0000F931F93CF93DF93CDB7DEB765970FB6F2
:104CC000F894DEBF0FBECDBF19861A861B861C86E0
:104CD00080E390E3A0E3B0E08D839E83AF83B88749
:104CE00084E690E09A8B898B44E0BE016B5F7F4F36
:104CF000CE01419659DF40E163EB7FE0CE01419662
:104D000053DF40E163EC7FE0CE0141964DDF40E1AF
:104D100063EA7FE0CE01419647DF44E06BE97FE044
:104D2000CE01419641DF44E067E97FE0CE01419644
:104D30003BDF44E063E97FE0CE01419635DF44E0AC
:104D40006FE97FE0CE0141962FDF44E063E87FE02A
:104D5000CE01419629DF44E063ED7FE0CE0141962C
:104D600023DF44E06FE87FE0CE0141961DDF44E0A1
:104D70006BE87FE0CE01419617DF44E067E87FE013
:104D8000CE01419611DF4CE06AE076E0CE0141961B
:104D90000BDF83E08D8B8C8B1B8A19861A861B8612
:104DA0001C8641E0BE016D5E7F4FCE014196FCDE68
:104DB00044E0BE01675F7F4FCE014196F5DE41E0E2
:104DC000BE016B5E7F4FCE014196EEDE41E0BE013B
:104DD0006C5E7F4FCE014196E7DE10E09D898C89A5
:104DE000212F30E0989FC001112444E02817390793
:104DF00044F4BE01675F7F4FCE014196D5DE1F5F51
:104E0000EDCF63E172E0CE014196CEDE19861A86BF
:104E10001B861C861AE0115041F044E0BE01675F1A
:104E20007F4FCE014196C0DEF6CF42E062E876E1E8
:104E3000CE014196B9DE42E060E876E1CE014196CE
:104E4000B3DE42E06EE776E1CE014196ADDE42E0B0
:104E50006CE776E1CE014196A7DE42E06AE776E1B3
:104E6000CE014196A1DE42E068E776E1CE014196AF
:104E70009BDEC12C90E8D92E9BE3E92E95E4F92E18
:104E8000111119C044E065E872E0CE0141968CDE54
:104E900044E061E872E0CE01419686DE44E06DE7D1
:104EA00072E0CE01419680DE44E069E772E0CE0117
:104EB00041967ADE1AC0C986DA86EB86FC8644E023
:104EC000BE01675F7F4FCE0141966EDE19861A865E
:104ED0001B861C8604E0015041F044E0BE01675F80
:104EE0007F4FCE01419660DEF6CF1F5F143041F652
:104EF00042E06FE072E0CE01419656DE44E061E9A7
:104F000072E0CE01419650DE44E06DE872E0CE01E1
:104F100041964ADE44E069E872E0CE01419644DE03
:104F200080E290E0988B8F8742E0BE01615F7F4F07
:104F3000CE01419639DE80E090E0A0E8BFE38987AA
:104F40009A87AB87BC8744E0BE01675F7F4FCE0185
:104F500041962ADE41E062E276E0CE01419624DE0F
:104F600010E011110CC080912D0290912E02A091A1
:104F70002F02B091300289879A87AB87BC8744E0C3
:104F8000BE01675F7F4FCE0141960EDE1F5F14307A
:104F900041F786E592E3A3E3B0E089839A83AB838C
:104FA000BC8384E690E09E878D8744E0BE016F5FFE
:104FB0007F4FCE010D96F8DDE3E8F1E1849188237F
:104FC00041F09091C00095FFFCCF8093C6003196D0
:104FD000F5CF69897A8982EB96E00E940933EAEA83
:104FE000F6E08491882341F09091C00095FFFCCFBA
:104FF0008093C6003196F5CF8091C00085FFFCCF2D
:105000008AE08093C60065960FB6F894DEBF0FBEA7
:10501000CDBFDF91CF911F910F91FF90EF90DF9067
:10502000CF900895AF92BF92DF92EF92FF920F93CD
:105030001F93CF93DF93CDB7DEB7E0970FB6F89409
:10504000DEBF0FBECDBF80E1EBEEF2E0DE01919658
:1050500001900D928A95E1F780E1EBEFF2E0DE013D
:10506000519601900D928A95E1F780E1EBE0F3E033
:10507000DE01119601900D928A95E1F77E0181E2A1
:10508000E80EF11C03EB1FE0BE016F5E7F4F43ECA7
:105090005FE09E012F5F3F4FE3EAAE2EEFE0BE2EB2
:1050A000D12CF70181919191A191B1917F01F801EA
:1050B00081939193A193B1938F01FB018191919180
:1050C000A191B191BF01FA0181939193A193B19301
:1050D000AF01F90181919191A191B1919F01F501E8
:1050E00081939193A193B1935F01D394F4E0DF1284
:1050F000D8CF0E94757F80E090E0AAE7B4E4809367
:105100009B0F90939C0FA0939D0FB0939E0F40E038
:1051100050E46CE975E44093970F5093980F6093B7
:10512000990F70939A0F8093930F9093940FA0937D
:10513000950FB093960F10929F0F1092A00F1092A0
:10514000A10F1092A20F80E29EE4A0E0B0E0809355
:10515000D30F9093D40FA093D50FB093D60F109286
:10516000830F1092840F1092850F1092860F80E0AB
:1051700090E0A0E0B1E480938F0F9093900FA09304
:10518000910FB093920F8DEC9CECACECBEE380934E
:105190008B0F90938C0FA0938D0FB0938E0F80E0A8
:1051A00090E0A0EAB0E48093870F9093880FA093DB
:1051B000890FB0938A0F1092120610921306109264
:1051C00014061092150610920E0610920F061092F9
:1051D00010061092110610920A0610920B061092F9
:1051E0000C0610920D0680E090E0A0E8BFEB8093E3
:1051F000130290931402A0931502B09316028CED43
:1052000090E090938316809382168CE390E09093C5
:1052100081168093801610927F1610927E1680EF72
:1052200090E090937D1680937C1688E790E09093B1
:105230007B1680937A1610927916109278168AE966
:1052400099E9A9EEB1E48093850290938602A09338
:105250008702B093880269E27CE587E990E40E94C6
:1052600044BB609381027093820280938302909387
:1052700084026CEE71E585E392E40E9450BB60937A
:105280007D0270937E0280937F029093800280E083
:1052900090E0A8ECB2E48093790290937A02A09314
:1052A0007B02B0937C0284E190E0909310028093A3
:1052B0000F020E9416AC80E090E0A8EAB3E480936D
:1052C000910290939202A0939302B093940260E0B3
:1052D00070E084E792E40E9444BB60938D02709377
:1052E0008E0280938F029093900263E373E387EEC4
:1052F00093E40E9450BB6093890270938A0280936A
:105300008B0290938C021092220680E090E0A0E441
:10531000B0E480932D0290932E02A0932F02B093BD
:1053200030020E94BD67E3E8F1E18491882341F0F7
:105330009091C00095FFFCCF8093C6003196F5CFC9
:10534000E3E6F6E08491882341F09091C00095FF58
:10535000FCCF8093C6003196F5CF8091C00085FFC9
:10536000FCCF8AE08093C600E0960FB6F894DEBFCB
:105370000FBECDBFDF91CF911F910F91FF90EF90A6
:10538000DF90BF90AF900895CF93C82F882389F105
:105390004091B30F5091B40F6091B50F7091B60F5B
:1053A0008BE496E00E941A334091B70F5091B80FEA
:1053B0006091B90F7091BA0F88E496E00E941A3399
:1053C0004091BB0F5091BC0F6091BD0F7091BE0F0B
:1053D00085E496E00E941A334091BF0F5091C00FB0
:1053E0006091C10F7091C20F82E496E00E941A335F
:1053F0002FC0E3E8F1E18491882341F09091C0004F
:1054000095FFFCCF8093C6003196F5CFE3E5F6E03B
:105410008491882341F09091C00095FFFCCF809348
:10542000C6003196F5CF8091C00085FFFCCF8AE0A1
:105430008093C600E3E8F1E18491882309F4A8CFC2
:105440009091C00095FFFCCF8093C6003196F4CFB9
:105450008091C00085FFFCCF8AE08093C600CC23FA
:1054600089F14091C30F5091C40F6091C50F7091A5
:10547000C60F8FE196E00E941A334091C70F5091FA
:10548000C80F6091C90F7091CA0F8CE196E00E941D
:105490001A334091CB0F5091CC0F6091CD0F70918A
:1054A000CE0F89E196E00E941A334091CF0F5091C0
:1054B000D00F6091D10F7091D20F86E196E00E94DB
:1054C0001A332FC0E3E8F1E18491882341F09091F1
:1054D000C00095FFFCCF8093C6003196F5CFE8E27F
:1054E000F6E08491882341F09091C00095FFFCCFB5
:1054F0008093C6003196F5CF8091C00085FFFCCF28
:105500008AE08093C600E3E8F1E18491882309F4FE
:10551000A8CF9091C00095FFFCCF8093C600319634
:10552000F4CF8091C00085FFFCCF8AE08093C60055
:10553000CC2389F14091A30F5091A40F6091A50F46
:105540007091A60F8FEE95E00E942B334091A70F2C
:105550005091A80F6091A90F7091AA0F8CEE95E061
:105560000E942B334091AB0F5091AC0F6091AD0F67
:105570007091AE0F89EE95E00E942B334091AF0FF2
:105580005091B00F6091B10F7091B20F86EE95E01F
:105590000E942B332FC0E3E8F1E18491882341F08E
:1055A0009091C00095FFFCCF8093C6003196F5CF57
:1055B000E8EFF5E08491882341F09091C00095FFD9
:1055C000FCCF8093C6003196F5CF8091C00085FF57
:1055D000FCCF8AE08093C600E3E8F1E18491882360
:1055E00009F4A8CF9091C00095FFFCCF8093C6002E
:1055F0003196F4CF8091C00085FFFCCF8AE0809384
:10560000C600CC2321F140919B0F50919C0F6091DB
:105610009D0F70919E0F8BEA95E00E941A33409186
:10562000970F5091980F6091990F70919A0F88EA97
:1056300095E00E941A334091930F5091940F60911E
:10564000950F7091960F85EA95E0F4D72FC0E3E8A7
:10565000F1E18491882341F09091C00095FFFCCF47
:105660008093C6003196F5CFE4EBF5E08491882372
:1056700041F09091C00095FFFCCF8093C600319619
:10568000F5CF8091C00085FFFCCF8AE08093C600F3
:10569000E3E8F1E18491882309F4B5CF9091C0004B
:1056A00095FFFCCF8093C6003196F4CF8091C00067
:1056B00085FFFCCF8AE08093C600CC2309F443C069
:1056C00040919F0F5091A00F6091A10F7091A20F78
:1056D00089EE94E0AFD74091830F5091840F609191
:1056E000850F7091860F86EE94E0A4D74091D30F7A
:1056F0005091D40F6091D50F7091D60F83EE94E046
:10570000AAD740918F0F5091900F6091910F709197
:10571000920F80EE94E08ED740918B0F50918C0FBA
:1057200060918D0F70918E0F8DED94E083D7409135
:10573000870F5091880F6091890F70918A0F8AEDC1
:1057400094E078D72FC0E3E8F1E18491882341F019
:105750009091C00095FFFCCF8093C6003196F5CFA5
:10576000E2EFF4E08491882341F09091C00095FF2E
:10577000FCCF8093C6003196F5CF8091C00085FFA5
:10578000FCCF8AE08093C600E3E8F1E184918823AE
:1057900009F496CF9091C00095FFFCCF8093C6008E
:1057A0003196F4CF8091C00085FFFCCF8AE08093D2
:1057B000C600CC2311F140910A0650910B0660916E
:1057C0000C0670910D068FEB94E034D740910E06D5
:1057D00050910F0660911006709111068CEB94E0C9
:1057E00029D74091120650911306609114067091CA
:1057F000150689EB94E01ED72FC0E3E8F1E1849110
:10580000882341F09091C00095FFFCCF8093C600A3
:105810003196F5CFE8ECF4E08491882341F0909143
:10582000C00095FFFCCF8093C6003196F5CF8091E4
:10583000C00085FFFCCF8AE08093C600E3E8F1E179
:105840008491882309F4B7CF9091C00095FFFCCFD5
:105850008093C6003196F4CF8091C00085FFFCCFC5
:105860008AE08093C600CC23B1F0609182167091DB
:10587000831681E994E0CDD66091801670918116EF
:105880008EE894E0C6D660917E1670917F168BE804
:1058900094E0BFD62FC0E3E8F1E18491882341F082
:1058A0009091C00095FFFCCF8093C6003196F5CF54
:1058B000EDE9F4E08491882341F09091C00095FFD8
:1058C000FCCF8093C6003196F5CF8091C00085FF54
:1058D000FCCF8AE08093C600E3E8F1E1849188235D
:1058E00009F4C3CF9091C00095FFFCCF8093C60010
:1058F0003196F4CF8091C00085FFFCCF8AE0809381
:10590000C600CC23B1F060917C1670917D168FE7B4
:1059100094E07FD660917A1670917B168CE794E0C4
:1059200078D6609178167091791689E794E071D6EF
:105930000DC0E3E8F1E18491882329F39091C00040
:1059400095FFFCCF8093C6003196F5CF8091C000C3
:1059500085FFFCCF8AE08093C600CC2309F43CC0CD
:105960004091850250918602609187027091880271
:1059700082E694E05FD6609181027091820280910C
:105980008302909184020E944ABBAB01BC018FE567
:1059900094E050D660917D0270917E0280917F02EA
:1059A000909180020E9456BBAB01BC018CE594E053
:1059B00041D64091790250917A0260917B027091B8
:1059C0007C0289E594E036D660910F027091100256
:1059D00086E594E01ED62FC0E3E8F1E184918823A8
:1059E00041F09091C00095FFFCCF8093C6003196A6
:1059F000F5CFEBE6F4E08491882341F09091C0006C
:105A000095FFFCCF8093C6003196F5CF8091C00002
:105A100085FFFCCF8AE08093C600E3E8F1E1849142
:105A2000882309F49DCF9091C00095FFFCCF80930F
:105A3000C6003196F4CF8091C00085FFFCCF8AE08C
:105A40008093C600CC2351F1409191025091920273
:105A500060919302709194028DE494E0EBD5609193
:105A60008D0270918E0280918F02909190020E941F
:105A70004ABBAB01BC018AE494E0DCD560918902A9
:105A800070918A0280918B0290918C020E9456BB89
:105A9000AB01BC0187E494E0CDD50DC0E3E8F1E1B2
:105AA0008491882389F29091C00095FFFCCF809368
:105AB000C6003196F5CF8091C00085FFFCCF8AE00B
:105AC0008093C600CC2361F040912D0250912E02AC
:105AD00060912F027091300281E294E0ABD545C015
