:100000000C9474190C94A5190C94A5190C94A519A9
:100010000C94A5190C94A5190C94A5190C94A51968
:100020000C94A5190C94A5190C94A5190C94A51958
:100030000C94A5190C94A5190C94A5190C94A51948
:100040000C94A5190C948FA20C94A5190C94A519C5
:100050000C94A5190C94A5190C9424B90C9455FE74
:100060000C94A5190C9428300C94A5190C94A5197E
:100070000C94A5190C94A5190C94A5190C94A51908
:100080000C94A5190C94A5190C94A5190C94A519F8
:100090000C94A5190C94A5190C94A5190C9447F768
:1000A0000C94A5190C94A5190C94A5190C94A519D8
:1000B0000C94A5190C94A5190C94A5190C94A519C8
:1000C0000C94A5190C94A5190C94A5190C94A519B8
:1000D0000C94A5190C94A5190C94A5190C94A519A8
:1000E0000C94A519A0B9B0B9CFB9DFB9FAB90ABA59
:1000F00025BA2ABA2DBA32BA35BA3ABA44BA78FF12
:100100007DFF82FF8CFF96FFCB00A0FFA8FFB0FF12
:10011000BAFFC4FFCEFFDDFFE7FFCB00F1FFFBFF1F
:10012000EB00EF00E900E300E100D300DF00D100C5
:10013000DB00D500D900CD00CF00DD00E500DF00F9
:10014000C900ED00D700084AD73B3BCE016E84BC06
:10015000BFFDC12F3D6C74319ABD56833DDA3D0021
:10016000C77F11BED9E4BB4C3E916BAAAABE00006A
:1001700000803F05A84CCDB2D44EB93836A9020C48
:1001800050B9918688083CA6AAAA2ABE0000008021
:100190003F000D945D000D940F000D9449000D94E7
:1001A0004F000D9437000D942C000D9441000D94D8
:1001B00065000D9445000D943B000D9453000D9483
:1001C0006A000D9426000D9422000D9457000D94A2
:1001D0000F010D9433000D9405000D9461000D94F2
:1001E00030004D383420582059205A2045004361B2
:1001F0006E6E6F7420656E746572207375626469CB
:10020000723A20006175746F25692E6700657272FD
:100210006F722077726974696E6720746F206669E7
:100220006C65004E6F74205344207072696E74695F
:100230006E67005344207072696E74696E67206245
:10024000797465200044656C6574696F6E20666121
:10025000696C65642C2046696C653A200046696CBF
:10026000652064656C657465643A006F70656E2026
:100270006661696C65642C2046696C653A2000579C
:10028000726974696E6720746F2066696C653A20C4
:10029000002E0A006F70656E206661696C65642CC3
:1002A0002046696C653A20002E0A006F70656E204A
:1002B0006661696C65642C2046696C653A2000466D
:1002C000696C652073656C656374656400205369AF
:1002D0007A653A200046696C65206F70656E6564CA
:1002E0003A20006F70656E206661696C65642C2031
:1002F00046696C653A20004E6F77206672657368B8
:100300002066696C653A20004E6F7720646F696ED5
:10031000672066696C653A20002220706F730022A6
:1003200020706172656E743A2200535542524F55E7
:1003300054494E452043414C4C20746172676574AA
:100340003A22004B494C4C45442E20007472796986
:100350006E6720746F2063616C6C207375622D670B
:10036000636F64652066696C6573207769746820C3
:10037000746F6F206D616E79206C6576656C732E7D
:10038000204D4158206C6576656C2069733A004DAC
:100390003234004D323320257300534420636172A0
:1003A00064206F6B006F70656E526F6F74206661B2
:1003B000696C656400766F6C756D652E696E697425
:1003C000206661696C656400534420696E6974201D
:1003D0006661696C0020204D383531205A005A2D55
:1003E00050726F6265204F666673657420286D6D6C
:1003F000293A0020204D3230302044300020204D5A
:100400003230302044002044697361626C656400BE
:1004100046696C616D656E742073657474696E678E
:10042000733A0020440020490020204D333034200E
:100430005000204C00204300204400204900202090
:100440004D33303120500050494420736574746935
:100450006E67733A0020460020420020204D313460
:100460003520533120480020460020420020204DF6
:100470003134352053302048004D61746572696114
:100480006C2068656174757020706172616D65744F
:100490006572733A00205A0020590020204D3230F6
:1004A00036205800486F6D65206F6666736574204E
:1004B000286D6D293A00204500205A002058002060
:1004C000420020540020204D32303520530041643A
:1004D00076616E636564207661726961626C6573D2
:1004E0003A20533D4D696E2066656564726174659E
:1004F00020286D6D2F73292C20543D4D696E20747A
:10050000726176656C206665656472617465202829
:100510006D6D2F73292C20423D6D696E696D756D6F
:10052000207365676D656E742074696D6520286D34
:1005300073292C20583D6D6178696D756D2058596F
:10054000206A65726B20286D6D2F73292C20205A2C
:100550003D6D6178696D756D205A206A65726B20FA
:10056000286D6D2F73292C2020453D6D6178696DB4
:10057000756D2045206A65726B20286D6D2F73297B
:100580000020540020520020204D323034205000F2
:10059000416363656C65726174696F6E733A205074
:1005A0003D7072696E74696E672C20523D7265747D
:1005B0007261637420616E6420543D74726176656B
:1005C0006C00204500205A0020590020204D323078
:1005D000312058004D6178696D756D204163636508
:1005E0006C65726174696F6E20286D6D2F7332298E
:1005F0003A00204500205A0020590020204D32307A
:10060000332058004D6178696D756D2066656564AD
:10061000726174657320286D6D2F73293A0020452F
:1006200000205A0020590020204D39322058005314
:10063000746570732070657220756E69743A004835
:10064000617264636F6465642044656661756C748F
:100650002053657474696E6773204C6F61646564C0
:100660000020627974657329002073746F72656469
:100670002073657474696E6773207265747269653E
:1006800076656420280020627974657329005365BB
:100690007474696E67732053746F726564202800E8
:1006A0004572726F722077726974696E6720746F19
:1006B00020454550524F4D21005072696E7465724D
:1006C0002068616C7465642E206B696C6C2829202D
:1006D00063616C6C656421004B494C4C45442E2091
:1006E000004B494C4C45442E200020746F6F206C09
:1006F0006F6E6720657874727573696F6E207072A3
:100700006576656E7465640020636F6C642065783F
:1007100074727573696F6E2070726576656E74653C
:1007200064006F6B00526573656E643A20003A2076
:10073000007A5F6D61783A20007A5F6D696E3A20C9
:10074000005A204F6666736574004F666673657461
:1007500073206170706C696564004572723A205450
:100760006F6F206661722100546F6F206661722086
:1007700066726F6D207265666572656E6365207066
:100780006F696E740053657474696E67205472618A
:1007900076656C20416363656C65726174696F6E28
:1007A0003A200053657474696E67205265747261F3
:1007B000637420416363656C65726174696F6E3A3E
:1007C000200053657474696E67205072696E7420DE
:1007D000416363656C65726174696F6E3A200053A2
:1007E000657474696E67205072696E7420616E64FE
:1007F0002054726176656C20416363656C6572613B
:1008000074696F6E3A20004D31343520533C696E67
:100810006465783E206F7574206F662072616E6724
:10082000652028302D3129007A5F6D696E3A2000ED
:10083000795F6D696E3A2000785F6D696E3A2000CD
:10084000205A3A0020593A0020436F756E742058A0
:100850003A200020453A00205A3A0020593A0058E0
:100860003A004649524D574152455F4E414D453A37
:100870004D61726C696E20312E312E302D5243360F
:1008800020284769746875622920534F55524345A3
:100890005F434F44455F55524C3A68747470733AE5
:1008A0002F2F6769746875622E636F6D2F426967B9
:1008B000426F7833442F4D61726C696E2D487962B6
:1008C0007269642050524F544F434F4C5F5645520B
:1008D00053494F4E3A312E30204D414348494E4501
:1008E0005F545950453A426967426F7820487962AF
:1008F00072696420502045585452554445525F4314
:100900004F554E543A3120555549443A6365646514
:10091000326132662D343161322D343734382D391D
:100920006231322D6335356336326633363766666B
:100930000A00426967426F782048796272696420D0
:1009400050204F66662E00426967426F78204879D2
:100950006272696420502072656164792E0042657C
:100960006420646F6E652E003F0020573A00426598
:10097000642048656174696E672E0048656174691A
:100980006E6720646F6E652E003F0020573A004866
:10099000656174696E672E2E2E00426967426F781A
:1009A0002048796272696420502072656164792EF2
:1009B000006F6B004D3131332053004B494C4C4597
:1009C000442E20004543484F00494E464F004552B3
:1009D000524F52530044525952554E00434F4D4DC1
:1009E000554E49434154494F4E006F666600C40955
:1009F000C909CE09D509DC0944454255473A0048A2
:100A0000656174696E672E2E2E00426967426F78A9
:100A10002048796272696420502072656164792E81
:100A2000005374616E646172642044657669617418
:100A3000696F6E3A20004D65616E3A2000202020DB
:100A40007369676D613A2000206D65616E3A200020
:100A50002020207A3A2000206F66200020207A3A59
:100A60002000793A2000783A2000202020616E672B
:100A70006C653A20005374617274696E672072610C
:100A8000646975733A2000506F736974696F6E6999
:100A90006E67207468652070726F62652E2E2E0A54
:100AA000003F4E756D626572206F66206C656773DE
:100AB00020696E206D6F76656D656E74206E6F7443
:100AC00020706C61757369626C652028302D31353A
:100AD000292E0A00590058003F53616D706C652043
:100AE00073697A65206E6F7420706C6175736962CA
:100AF0006C652028342D3530292E0A004D343820DD
:100B00005A2D50726F626520526570656174616222
:100B1000696C69747920746573740A003F56657254
:100B2000626F7365204C6576656C206E6F74207003
:100B30006C61757369626C652028302D34292E0A2A
:100B4000002569206D696E2C20256920736563007E
:100B5000456E642066696C65206C6973740042653B
:100B600067696E2066696C65206C697374004E6FEE
:100B7000206D6F76652E00426967426F7820487954
:100B80006272696420502072656164792E0052653A
:100B900073756D696E67207072696E740057616954
:100BA0007420666F7220757365722E2E2E00544568
:100BB000535400205A3A200020593A2000426564DC
:100BC00020583A2000205A3A200020593A2000426A
:100BD000656420583A2000202B00200A436F72726F
:100BE000656374656420426564204865696768745C
:100BF0002076732E2042656420546F706F6C6F678F
:100C0000793A200A00202B002028302C30290A00B5
:100C10002020204F2D2D2046524F4E54202D2D2B7D
:100C20000A002020207C202020202020202020209E
:100C3000207C0A002020207C20202020282D292014
:100C40002020207C20540A002054207C20202020BA
:100C5000202020202020207C20480A002046207CC4
:100C600020282D29204E20282B29207C20470A00CF
:100C70002045207C20202020202020202020207C97
:100C800020490A00204C207C20202020282B2920CD
:100C90002020207C20520A002020207C20202020A0
:100CA000202020202020207C0A002020202B2D2DF9
:100CB0002D204241434B202D2D2B0A00200A426556
:100CC000642048656967687420546F706F6772614B
:100CD0007068793A200A004D65616E206F66207356
:100CE000616D706C656420706F696E74733A20007A
:100CF00020643A200020623A200045716E20636F24
:100D0000656666696369656E74733A20613A2000AE
:100D100028422961636B00284629726F6E7400288F
:100D200052296967687400284C29656674003F4E33
:100D3000756D626572206F662070726F62656420E7
:100D40002850296F696E747320697320696D706C07
:100D500061757369626C65202832206D696E696DFA
:100D6000756D292E0A0052756E6E696E6720696E68
:100D7000204452592D52554E206D6F646500473204
:100D800039204175746F20426564204C6576656C2E
:100D9000696E670A003F2856296572626F73652085
:100DA0004C6576656C20697320696D706C61757334
:100DB00069626C652028302D34292E00486F6D65DE
:100DC00020582F59206265666F7265205A00486F5F
:100DD0006D6520582F59206265666F7265205A0034
:100DE0005761726E696E673A20486F6D696E672051
:100DF00042756D702044697669736F72203C2031B2
:100E0000005A2070726F6265206F75742E206265C3
:100E100064005A2070726F6265206F75742E2062B4
:100E2000656400536C6565702E2E2E0020403A00DC
:100E30002042403A00202F0020423A00202F00207C
:100E4000543A0020706F736974696F6E206F757407
:100E5000206F662072616E67652E003F50726F6270
:100E6000652000627573793A20706175736564203E
:100E7000666F7220696E70757400627573793A20BE
:100E800070617573656420666F722075736572009A
:100E9000627573793A2070726F63657373696E67F8
:100EA00000220A00556E6B6E6F776E20636F6D6D5A
:100EB000616E643A20220020496E76616C6964207C
:100EC00065787472756465722000256920686F7595
:100ED0007273202569206D696E7574657300446FA7
:100EE0006E65207072696E74696E672066696C65E4
:100EF000004B494C4C45442E200053544F50504514
:100F0000442E20005072696E7465722073746F7085
:100F10007065642064756520746F206572726F72ED
:100F2000732E2046697820746865206572726F722E
:100F300020616E6420757365204D39393920746FD6
:100F400020726573746172742E202854656D70650B
:100F50007261747572652069732072657365742E91
:100F6000205365742069742061667465722072650F
:100F70007374617274696E6729004E6F204C696EDC
:100F800065204E756D6265722077697468206368AC
:100F900065636B73756D2C204C617374204C696EA6
:100FA000653A20004E6F20436865636B73756D2052
:100FB00077697468206C696E65206E756D62657204
:100FC0002C204C617374204C696E653A2000636874
:100FD00065636B73756D206D69736D617463682CE7
:100FE000204C617374204C696E653A20004C696E28
:100FF00065204E756D626572206973206E6F742076
:101000004C617374204C696E65204E756D6265721B
:101010002B312C204C617374204C696E653A200092
:101020004D31313000446F6E6520736176696E67B3
:101030002066696C652E004D3239002020506C61AD
:101040006E6E657242756666657242797465733A52
:1010500020002046726565204D656D6F72793A20DB
:10106000004A756E203130203230313600436F6DCA
:1010700070696C65643A2000284772656720486F84
:101080006C6C6F7761792C2050726F204879627296
:1010900069642900207C20417574686F723A2000D1
:1010A000323031362D30362D30312031363A303035
:1010B00000204C61737420557064617465643A203B
:1010C0000020312E312E302D524336004D61726C8E
:1010D000696E0020536F6674776172652052657384
:1010E000657400205761746368646F67205265738C
:1010F0006574002042726F776E206F7574205265A0
:10110000736574002045787465726E616C20526559
:1011100073657400506F77657255700073746172F7
:1011200074002200656E7175657565696E672022B1
:1011300000FFFFFF00004040000040400000004072
:101140000000964300006B4300009643000000003F
:1011500000000000000000000000964300006B4308
:1011600000009643000000000000000000000000A6
:101170006563686F3A004572726F723A0020746F4F
:101180006F206C6F6E6720657874727573696F6E0F
:101190002070726576656E7465640020636F6C64A0
:1011A00020657874727573696F6E207072657665EC
:1011B0006E746564007C3C3E5E2B3D3F2F5B5D3B67
:1011C0002C2A225C004D383420582059205A2045C2
:1011D00000456E6473746F7073202563202563204F
:1011E000256320256300205A3A0020593A002058F0
:1011F0003A00656E6473746F7073206869743A2086
:101200000024F4D43050C38E20C2A24017828B70C9
:1012100011127A910D816CD90AA861E108C758664C
:1012200007615143061E4B5D05C145A7041A4111D4
:1012300004093D9803713931034036DB026533916F
:1012400002D4305402802E1D02632CEE01752AC593
:1012500001B028A001102781018F2564012B244BA8
:1012600001E0223401AC211F018D200D01801FFC03
:1012700000841EED00971DDF00B81CD200E61BC6DF
:1012800000201BBC00641AB200B219A8000A19A001
:10129000006A189900D117910040178B00B5168489
:1012A0000031167E00B31579003A157300C7146F2C
:1012B0000058146A00EE1366008813630025135E5D
:1012C00000C7125B006C12570015125400C1115177
:1012D0000070114F0021114B00D61049008D1047AE
:1012E000004610440002104200C00F4000800F3E34
:1012F00000420F3C00060F3B00CB0E3800930E3728
:10130000005C0E3500270E3400F30D3200C10D31A4
:1013100000900D3000600D2E00320D2D00050D2CBB
:1013200000D90C2B00AE0C2900850C29005C0C2781
:1013300000350C27000E0C2600E80B2400C40B24FB
:1013400000A00B23007D0B23005A0B2100390B2139
:1013500000180B2000F80A1F00D90A1E00BB0A1E45
:10136000009D0A1D00800A1D00630A1C00470A1B1D
:10137000002C0A1B00110A1A00F7091A00DD0919CE
:1013800000C4091900AB091900920917007B09185C
:1013900000630917004C09160036091600200916CB
:1013A000000A091500F5081500E0081400CC08141F
:1013B00000B8081400A4081400900813007D081257
:1013C000006B081300580812004608120034081178
:1013D00000230811001208110001081100F0071085
:1013E00000E0071000D0071000C0071000B0070F82
:1013F00000A107100091070E0083070F0074070F6C
:101400000065070E0057070E0049070E003B070D49
:10141000002E070E0020070D0013070D0006070D14
:1014200000F9060C00ED060D00E0060C00D4060CD9
:1014300000C8060C00BC060C00B0060C00A4060B8D
:101440000099060C008D060B0082060B0077060B38
:10145000006C060B0061060A0057060B004C060ADA
:101460000042060A0038060A002E060A0024060A70
:10147000001A060A001006090007060A00FD050901
:1014800000F4050900EB050900E2050900D905098A
:1014900000D0050900C7050900BE050900B505080B
:1014A00000AD050800A50509009C05080094050885
:1014B000008C050800840508007C050800740508F8
:1014C000006C050700650508005D05070056050866
:1014D000004E0507004705070040050800380507CE
:1014E00000310507002A050700230507001C050633
:1014F00000160507000F050700080506000205078E
:1015000000FB040600F5040700EE040600E80406EC
:1015100000E2040700DB040600D5040600CF040641
:1015200000C9040600C3040600BD040600B7040693
:1015300000B1040500AC040600A6040600A00405E2
:10154000009B04060095040500900406008A04052B
:101550000085040500800406007A04050075040572
:1015600000700405006B04050066040500610405B5
:10157000005C04050057040500520405004D0405F5
:101580000048040500430405003E0404003A040535
:101590000035040500300404002C04050027040471
:1015A00000230405001E0404001A040400160405A8
:1015B00000110404000D04040009040500040404DF
:1015C0000000040400FC030400F8030400F4030416
:1015D00000F0030400EC030400E8030400E4030447
:1015E00000E0030400DC030400D8030400D4030477
:1015F00000D0030400CC030400C8030300C50303A8
:101600000024F404D9201BC40C5C0E9804C4095FA8
:101610000265077101F405F900FB04B30048048773
:1016200000C10369005803550003034500BE023A98
:10163000008402310053022A0029022500040220FE
:1016400000E4011C00C8011900AF01170098011443
:101650000084011300710110006101100051010E9E
:101660000043010D0036010B002B010B0020010B84
:1016700000150109000C01090003010800FB000826
:1016800000F3000800EB000700E4000600DE00069F
:1016900000D8000600D2000600CC000500C70005F7
:1016A00000C2000500BD000400B9000400B500043C
:1016B00000B1000400AD000400A9000400A500036F
:1016C00000A20003009F0004009B00030098000399
:1016D000009500020093000300900003008D0002BB
:1016E000008B0003008800020086000200840003D3
:1016F00000810002007F0002007D0002007B0002EA
:1017000000790002007700010076000200740002F8
:101710000072000100710002006F0002006D000104
:10172000006C0002006A000100690002006700010D
:101730000066000100650001006400020062000113
:101740000061000100600001005F0002005D000117
:10175000005C0001005B0001005A0001005900011B
:10176000005800010057000100560001005500011B
:10177000005400010053000000530001005200011A
:101780000051000100500001004F0001004E000018
:10179000004E0001004D0001004C0001004B000014
:1017A000004B0001004A0001004900010048000010
:1017B000004800010047000100460000004600010B
:1017C0000045000000450001004400010043000006
:1017D00000430001004200000042000100410000FF
:1017E0000041000100400001003F0000003F0001F7
:1017F000003E0000003E0001003D0000003D0001F1
:10180000003C0000003C0000003C0001003B0000E8
:10181000003B0001003A0000003A000100390000DE
:1018200000390001003800000038000000380001D5
:1018300000370000003700010036000000360000CD
:1018400000360001003500000035000000350001C1
:1018500000340000003400000034000100330000B8
:1018600000330000003300010032000000320000AD
:1018700000320001003100000031000000310001A1
:10188000003000000030000000300001002F000098
:10189000002F0000002F0000002F0001002E00008C
:1018A000002E0000002E0001002D0000002D000081
:1018B000002D0000002D0001002C0000002C000075
:1018C000002C0000002C0001002B0000002B000069
:1018D000002B0000002B0001002A0000002A00005D
:1018E000002A0000002A0001002900000029000051
:1018F0000029000000290000002900010028000044
:101900000028000000280000002800000028000136
:10191000002700000027000000270000002700002B
:10192000002700010026000000260000002600001D
:101930000026000000260001002500000025000010
:101940000025000000250000002500000025000102
:1019500000240000002400000024000000240000F7
:1019600000240001002300000023000000230000E9
:1019700000230000002300000023000000230001DA
:1019800000220000002200000022000000220000CF
:1019900000220000002200010021000000210000C0
:1019A00000210000002100000021000000210000B3
:1019B00000210001002000000020000000200000A5
:1019C0000020000000200000002000000020000097
:1019D00000200001001F0000001F0000001F000089
:1019E000001F0000001F0000001F0000001F00017A
:1019F000001E0000001E0000001E0000001E00006F
:101A0000004D494E54454D502074726967676572A8
:101A10006564004572723A204D494E54454D502040
:101A2000424544004D415854454D502074726967F9
:101A30006765726564004572723A204D415854459D
:101A40004D502042454400546865726D616C2052CF
:101A5000756E6177617900544845524D414C205272
:101A6000554E415741590048656174696E6720665B
:101A700061696C65640048656174696E67206661C0
:101A8000696C6564004D494E54454D50207472692F
:101A9000676765726564004572723A204D494E541D
:101AA000454D5000626564002C2073797374656D38
:101AB0002073746F7070656421204865617465726D
:101AC0005F49443A20004D415854454D50207472AE
:101AD00069676765726564004572723A204D4158C6
:101AE00054454D50004B64200023646566696E6563
:101AF000202044454641554C545F004B692000234B
:101B0000646566696E65202044454641554C545FC6
:101B1000004B70200023646566696E652020444593
:101B20004641554C545F00504944204175746F74D0
:101B3000756E652066696E697368656421205075ED
:101B40007420746865206C617374204B702C204B7A
:101B50006920616E64204B6420636F6E7374616EE4
:101B600074732066726F6D2062656C6F7720696E8A
:101B7000746F20436F6E66696775726174696F6E0A
:101B80002E6800504944204175746F74756E65204D
:101B90006661696C6564212074696D656F75740098
:101BA000504944204175746F74756E652066616993
:101BB0006C6564212054656D706572617475726521
:101BC00020746F6F206869676800204B643A2000BA
:101BD000204B693A2000204B703A200020436C6172
:101BE000737369632050494420002054753A2000E3
:101BF000204B753A2000206D61783A2000206D69F5
:101C00006E3A200020643A200020626961733A2015
:101C10000000000000300E0100C00E0A00500F143A
:101C200000D00F1E0060102800E010320070113C40
:101C300000F01146007012500000135A0080136427
:101C40000000146E00901478001015820090158C1E
:101C500000101696009016A0001017AA009017B456
:101C6000001018BE009018C8001019D2009019DC9E
:101C700000101AE600801AF000001BFA00801B0416
:101C800001F01B0E01701C1801F01C2201601D2CBC
:101C900001E01D3601501E4001D01E4A01401F5474
:101CA00001B01F5E0130206801A020720110217C6C
:101CB0000190218601002290016026F401902A58AB
:101CC00002802EBC0250322003E03584035039E8F4
:101CD00003803C4C041000C90210012C0140012279
:101CE0000170011801B0010E01F00104015002FA67
:101CF00000B002F0003003E600D003DC009004D214
:101D0000007005C800A006BE000008B400B009AA13
:101D100000D00BA000600E960060118C00001582B0
:101D20000020197800C01D6E00A0226400B0275A60
:101D300000902C500000314600E0343C0010383256
:101D400000903A2800603C1E00A03D1400803E0A2E
:101D500000203F0000436172642072656D6F7665FC
:101D600064004361726420696E7365727465640017
:101D70004D3432380020003F000920005A0059003D
:101D80005800466C6F7700466C6F770046616E2096
:101D900073706565640046616E20737065656400EC
:101DA00042656400426564004E6F7A7A6C65004E4D
:101DB0006F7A7A6C65005370656564005370656571
:101DC00064004D61696E004D6F76652058004D6F5F
:101DD00076652059004D6F7665205A0045787472FB
:101DE00075646572004578747275646572004D6F34
:101DF0007665205A004D6F76652059004D6F7665E7
:101E00002058004D6F76652061786973004D6F76BC
:101E10006520302E316D6D004D6F766520316D6D12
:101E2000004D6F76652031306D6D005072657061C8
:101E30007265005072656865617420504C412042A3
:101E40006564005072656865617420504C410050B3
:101E500072657061726500507265686561742041D9
:101E60004253204265640050726568656174204188
:101E700042530050726570617265004D38300053F6
:101E8000776974636820706F776572206F6E004D9C
:101E900038310053776974636820706F77657220FA
:101EA0006F666600436F6F6C646F776E005072658B
:101EB00068656174204142530050726568656174C1
:101EC00020504C41004D38340044697361626C65A8
:101ED000207374657070657273004D6F7665206154
:101EE000786973004732380A47323900473239007F
:101EF0004C6576656C206265640053657420686F7C
:101F00006D65206F666673657473004732380041F3
:101F100075746F20686F6D65004D61696E00537454
:101F20006F7265206D656D6F727900426564004265
:101F30006564004E6F7A7A6C65004E6F7A7A6C65D4
:101F40000046616E2073706565640046616E2073A3
:101F5000706565640054656D706572617475726555
:101F60000053746F7265206D656D6F727900426504
:101F70006400426564004E6F7A7A6C65004E6F7A39
:101F80007A6C650046616E20737065656400466119
:101F90006E2073706565640054656D706572617460
:101FA0007572650050726568656174204142532006
:101FB000636F6E66005072656865617420504C41B5
:101FC00020636F6E66005049442D43005049442DF4
:101FD00043005049442D44005049442D4400504989
:101FE000442D49005049442D49005049442D50008A
:101FF0005049442D50002008204661637400200899
:102000002046616374002008204D6178002008207C
:102010004D6178002008204D696E002008204D6930
:102020006E004175746F74656D70004F6666004F89
:102030006E200046616E2073706565640046616EB7
:102040002073706565640042656400426564004EFB
:102050006F7A7A6C65004E6F7A7A6C6500436F6EAA
:1020600074726F6C004573746570732F6D6D0045ED
:1020700073746570732F6D6D005A73746570732F70
:102080006D6D005A73746570732F6D6D00597374A4
:102090006570732F6D6D005973746570732F6D6D5E
:1020A000005873746570732F6D6D0058737465708C
:1020B000732F6D6D00412D74726176656C00412D3A
:1020C00074726176656C00412D726574726163741F
:1020D00000412D7265747261637400416D617820F6
:1020E0004500416D6178204500416D6178205A00BE
:1020F000416D6178205A00416D6178205900416D31
:102100006178205900416D6178205800416D6178F7
:102110002058005654726176206D696E00565472D4
:102120006176206D696E00566D696E00566D696E40
:1021300000566D6178204500566D61782045005647
:102140006D6178205A00566D6178205A00566D6195
:1021500078205900566D6178205900566D617820BD
:102160005800566D617820580056652D6A65726B6F
:102170000056652D6A65726B00567A2D6A65726B22
:1021800000567A2D6A65726B005678792D6A6572F1
:102190006B005678792D6A65726B00416363656CDC
:1021A00000416363656C005A204F66667365740076
:1021B0005A204F666673657400436F6E74726F6C5D
:1021C0000046696C2E204469612E0046696C2E2001
:1021D0004469612E004520696E206D6D33004F66A5
:1021E00066004F6E2000436F6E74726F6C00526514
:1021F00073746F7265206661696C73616665004C0B
:102200006F6164206D656D6F72790053746F7265D4
:10221000206D656D6F72790046696C616D656E74D5
:10222000004D6F74696F6E0054656D7065726174F6
:10223000757265004D61696E00022E2E004D616958
:102240006E004E6F205344206361726400507269C7
:102250006E742066726F6D2053440053746F70204B
:102260007072696E7400526573756D652070726965
:102270006E74005061757365207072696E740043EE
:102280006F6E74726F6C005072657061726500548D
:10229000756E6500496E666F2073637265656E00CA
:1022A00000060900FE070192032120FFFF08FF0737
:1022B000FF00000006000001070706020080808082
:1022C00080800080030202060105A0A00507070622
:1022D00000005050F850F850500507070600002045
:1022E00078A07028F020050707060000C0C810205D
:1022F0004098180507070600006090A040A8906865
:10230000020303060104C040800307070601002002
:102310004080808040200307070601008040202085
:1023200020408005050506000120A870A8200505AD
:10233000050600012020F820200203030602FFC04A
:102340004080050101060003F8020202060200C0F7
:10235000C005050506000108102040800507070696
:10236000000070888888888870030707060100408D
:10237000C040404040E00507070600007088087034
:102380008080F8050707060000F81020100808F004
:1023900005070706000010305090F81010050707D9
:1023A000060000F880F0080888700507070600009E
:1023B000708080F0888870050707060000F8081014
:1023C0002020202005070706000070888870888874
:1023D00070050707060000708888780808700205F5
:1023E00005060200C0C000C0C00206060602FFC00B
:1023F000C000C04080040707060000102040804055
:102400002010050303060002F800F8040707060180
:1024100000804020102040800507070600007088DB
:10242000081020002005070706000070880868A82B
:10243000A870050707060000708888F88888880556
:102440000707060000F08888F08888F0050707066F
:10245000000070888080808870050707060000F003
:102460008888888888F0050707060000F88080F0D3
:102470008080F8050707060000F88080F0808080E3
:10248000050707060000708880B888887005070770
:10249000060000888888F8888888010707060200F7
:1024A000808080808080800507070600003810103B
:1024B000101090600507070600008890A0C0A0904B
:1024C00088050707060000808080808080F8050767
:1024D0000706000088D8A8888888880507070600AE
:1024E000008888C8A89888880507070600007088B3
:1024F0008888888870050707060000F08888F080C3
:10250000808005070706000070888888A890680505
:102510000707060000F08888F0A0908805070706E6
:102520000000788080700808F0050707060000F8B2
:1025300020202020202005070706000088888888A2
:1025400088887005070706000088888888885020DA
:102550000507070600008888888888A850050707AF
:10256000060000888850205088880507070600006C
:1025700088888850202020050707060000F80810EA
:10258000204080F8030707060100E08080808080FB
:10259000E005050506000180402010080307070636
:1025A0000100E02020202020E00503030600042095
:1025B0005088050101060000F802020206020580AB
:1025C00040050505060000700878887805070706AD
:1025D00000008080B0C88888F005050506000070FE
:1025E00080808870050707060000080868988888BA
:1025F000780505050600007088F880700507070655
:1026000000003048E0404040400506060600FF70EC
:1026100088887808700507070600008080B0C888A1
:102620008888010707060200800080808080800380
:1026300008080601FF200020202020A040040707F2
:10264000060000808090A0C0A0900307070601004C
:10265000C04040404040E0050505060000D0A8A865
:10266000A8A8050505060000B0C8888888050505E6
:1026700006000070888888700506060600FFF0884E
:1026800088F080800506060600FF788888780808AC
:10269000050505060000B0C8808080050505060018
:1026A0000070807008F00407070600004040E0401A
:1026B00040403005050506000088888898680505B3
:1026C000050600008888885020050505060000885A
:1026D00088A8A850050505060000885020508805E8
:1026E00006060600FF88888878087005050506003C
:1026F00000F8102040F80307070601002040408042
:102700004040200107070602008080808080808092
:102710000307070601008040402040408005020278
:10272000060002689000000006000000000006009D
:10273000000000000600000000000600000000008D
:102740000600000000000600000000000600000077
:102750000000060000000000060000000000060067
:10276000000000000600000000000600000000005D
:102770000600000000000600000000000600000047
:102780000000060000000000060000000000060037
:10279000000000000600000000000600000000002D
:1027A0000600000000000600000000000600000017
:1027B0000000060000000000060000000000060007
:1027C00000000000060000000000060000000000FD
:1027D00006000000000006000000000006000000E7
:1027E00000000600000000000600000000000600D7
:1027F00000010707060200800080808080800507B6
:10280000070600002070A8A0A87020050707060092
:1028100000304040E04050A80505050600008870E3
:10282000507088050707060000885020F820F8201F
:10283000010707060200808080008080800508086C
:10284000060000304820505020906003010106012E
:1028500007A0050707060000F888B8B8B888F8058B
:102860000707060001700878887800F80505050656
:1028700000012850A05028050303060001F80808AD
:102880000202020602064080050707060000F888DB
:10289000A88898A8F8050101060006F804040406B3
:1028A0000003609090600507070600002020F820D4
:1028B0002000F804050506000360902040F00305A1
:1028C00005060003E020E020E002020206020640C6
:1028D000800508080600FF8888888898E8808005B9
:1028E0000707060000789898781818180202020660
:1028F0000202C0C00202020602FF40800305050674
:10290000000340C04040E0050707060001708888CA
:10291000887000F8050505060001A0502850A005A4
:1029200007070600008890A858B80808050707069A
:1029300000008890B848982038050808060000C0B4
:1029400040C048D8380808050707060000200020C6
:10295000408088700508080600004020007088F854
:1029600088880508080600001020007088F888880C
:102970000508080600002050007088F888880508BF
:10298000080600006890007088F888880508080626
:1029900000005000708888F8888805080806000044
:1029A0002050207088F888880507070600003860E6
:1029B000A0B8E0A0B80508080600FF7088808088ED
:1029C000702060050808060000402000F880F080B4
:1029D000F8050808060000081000F880F080F805E7
:1029E0000808060000205000F880F080F80507076E
:1029F0000600005000F880F080F803080806010087
:102A0000804000E0404040E003080806010020400C
:102A100000E0404040E003080806010040A000E05C
:102A2000404040E0030707060100A000E0404040AE
:102A3000E0050707060000704848E84848700508A8
:102A40000806000068900088C8A89888050808064D
:102A500000004020708888888870050808060000FB
:102A600010207088888888700508080600002050AB
:102A7000007088888870050808060000689000705B
:102A800088888870050808060000500070888888CB
:102A90008870050505060001885020508805080843
:102AA0000600FF1070A8A8A8A87040050808060036
:102AB0000040208888888888700508080600001073
:102AC0002088888888887005080806000020500043
:102AD0008888888870050808060000500088888863
:102AE00088887005080806000010208850202020E3
:102AF000200509090600FFC040704848704040E0CA
:102B00000408080601FF609090A09090E0800508FE
:102B1000080600004020007008788878050808063C
:102B2000000010200070087888780508080600006A
:102B30002050007008788878050808060000689022
:102B400000700878887805070706000050007008B4
:102B500078887805080806000020502070087888DA
:102B600078050606060000D02878A0A850050606BD
:102B70000600FF708088702060050808060000408D
:102B800020007088F88070050808060000102000FA
:102B90007088F880700508080600002050007088D2
:102BA000F8807005070706000050007088F88070F4
:102BB00003080806010080400040C04040E00308D0
:102BC0000806010020400040C04040E0030808061D
:102BD000010040A00040C04040E00307070601009C
:102BE000A00040C04040E0050707060000A040A04C
:102BF00010788870050808060000689000B0C88842
:102C000088880508080600004020007088888870C1
:102C100005080806000010200070888888700508E4
:102C20000806000020500070888888700508080693
:102C3000000068900070888888700507070600000B
:102C4000500070888888700505050600012000F88E
:102C500000200507070600FF1070A8A8A87040050F
:102C60000808060000402000888888986805080841
:102C7000060000102000888888986805080806006B
:102C800000205000888888986805070706000050D3
:102C90000088888898680509090600FF10200088C8
:102CA0008888F808700407070601FFC0406050607C
:102CB00040E00508080600FF500088888878087002
:102CC00000060900FE000000000001090008FE00E7
:102CD0000005080806000040F0C8888898781005AC
:102CE0000808060000C0F88888888888F805050567
:102CF0000600012030F8302005080806000020708A
:102D0000F820202020E00509090600FF2070A8A86F
:102D1000B8888870200509090600FFE080C0B0A8C7
:102D2000283028280509090600FFF8A8888888881F
:102D300088A8F8050A0A0600FE205050505088A8BE
:102D4000A8887003030306000340A04000000000B1
:102D500000000000000000007FFFE0000000000015
:102D6000000000000000007000E000000000000013
:102D700000000000000061F860000000000000009A
:102D8000000000000041F8200000000000000000EA
:102D90000000000040F020000000000000000000E3
:102DA0000000004060200000000000000000000063
:102DB00000005801A07F80000000000000004104D6
:102DC000005C63A0FFC00000000000000020820043
:102DD0005EF7A0FFC0000000000000002082005E3F
:102DE000F7A0FFC0000000000000004104005C6389
:102DF000A07F80000000000000008208005801A0B1
:102E00007F8000000000000001041000406020FFEF
:102E1000C00000000000000104100040F020FFC0CE
:102E20000000000000000082080041F820FFC00000
:102E300000000000000041040061F8603F00000055
:102E400000000000000000007000E01E0000000014
:102E500000000001FFFF807FFFE00C000000000089
:102E6000000001FFFF8000000000000000000000E3
:102E700000000000007FFFE00000000000000000F4
:102E8000000000007000E0000000000000000000F2
:102E9000000000630C600000000000000000000063
:102EA0000000470E200000000000000000000000AD
:102EB000004F0F2000000000000000000000000094
:102EC0005F0FA00000000000000000000000005E96
:102ED00007A07F8000000000000000410400406067
:102EE00020FFC00000000000000020820040F02011
:102EF000FFC00000000000000020820040F020FF22
:102F0000C0000000000000004104004060207F80FD
:102F1000000000000000008208005E07A07F800023
:102F20000000000000010410005F0FA0FFC00000BF
:102F300000000000010410004F0F20FFC00000003F
:102F400000000000820800470E20FFC000000000C3
:102F5000000000410400630C603F0000000000001E
:102F600000000000007000E01E00000000000000F3
:102F700001FFFF807FFFE00C000000000000000167
:102F8000FFFF80000000FFFFFF800FFC0F81F80FA4
:102F9000FC00F81E0FFFFFFF800FFF0F83FE0FFFE7
:102FA00003FE1E0FFFFFFF800FFF0F87FF0FFF07BE
:102FB000FF1F1FE00003800FFF8F8FFF0FFF87FFB2
:102FC0000F1EE00003800F8F8F8F8F8F8F8F8F8F5B
:102FD0001EE03E03800F8F8F8F8F8F8F8F8F87BC68
:102FE000E03E03800F8F8F8F8F8F8F8F8F87BCE096
:102FF0003E03800F8F8F8F8F8F8F8F8F87FCE03EE8
:1030000003800FFF8F8F8F8FFF8F8F83F8E03E033A
:10301000800FFF0F8F800FFF0F8F83F8E01C03805E
:103020000FFC0F8F800FFC0F8F83F8E00803800FD9
:10303000FF0F8F9F8FFF0F8F83F8E00003800FFF3C
:103040008F8F9F8FFF8F8F83F8E00003800F8F8F0C
:103050008F9F8F8F8F8F87FCE00003800F8F8F8F64
:103060008F8F8F8F8F87BCE00003800F8F8F8F8FA4
:103070008F8F8F8F87BCE00003800F8F8F8F8F8F94
:103080008F8F8F873CE00003800F8F8F8F8F8F8F04
:103090008F8F8F1EE00003800F8F8F8F8F8F8F8F0A
:1030A0008F8F1EE00003800FFF8F8FFF8FFF87FF42
:1030B0000F1EE00003800FFF8F87FF8FFF87FF1F2A
:1030C0001FE00003800FFF0F83FB8FFF03FE1E0F27
:1030D000E00003800FFE0F81F38FFE00F81E0FE06B
:1030E0000003800000000000000000000000E0007D
:1030F00003800000000000000000000000E000036A
:10310000800000000000000000000000E7FFF380E6
:103110000000000000000000000000E7FFF3800056
:1031200000000000000000000000E000038000003C
:10313000000000000000000000E00003800000002C
:103140000000000000000000E0000380000000001C
:1031500000000000000000FFFFFF800000000000F2
:10316000000000000000FFFFFF80000000000000E2
:103170000000000000FFFFFF8000000000000000D2
:103180000000000000000A0B02090C0D0E080703E6
:10319000040100000000000000000000000000002A
:1031A000000000000000000000000000000000001F
:1031B00012111000000000000000000000000000DC
:1031C00000000000000000000000010210202008A4
:1031D0000810204010204080020102010804020172
:1031E00001020408102040808040201008040201E1
:1031F000800402018040201008040201080402013A
:1032000001020408102040800102040810204080C0
:1032100005050505070508080808020202020A0A52
:103220000808040404040101010101010101030370
:10323000030303030303040707070C0C0C0C0C0C1B
:103240000C0C0202020206060606060606060B0B18
:103250000B0B0B0B0B0B000020002300260029009A
:103260002C002F00320000010000030106010901BB
:1032700000002200250028002B002E003100340021
:1032800002010000050108010B01000021002400DB
:1032900027002A002D003000330001010000040146
:1032A00007010A014E414E494E495459494E46CDF7
:1032B000CCCC3D0AD7233C17B7D13877CC2B3295ED
:1032C00095E6241FB14F0A000020410000C84200CB
:1032D000401C4620BCBE4CCA1B0E5AAEC59D740095
:1032E000346D31F21BF73C6D11241FBECFEFD1E2DC
:1032F000DEBFCDBF00E00CBF14E0A0E0B2E0E6E628
:10330000FAE102E00BBF02C007900D92AC3EB1079C
:10331000D9F727E1ACEEB4E001C01D92A835B207A1
:10332000E1F712E3C6EED2E300E006C022970109FE
:10333000FE010BBF0F949706C03ED10780E008073F
:10334000A9F70F9402010D94220D0C940000452B57
:10335000C1F020910A01206220930A013FB7F8943E
:1033600020910B01206220930B013FBF0E94CEFEF3
:103370009FB7F89480910B018F7D80930B019FBFC5
:1033800008950C94CEFEFC011482178213821282DF
:103390008CE494E09183808308952CE434E0FC0174
:1033A000318320832781222319F004960C945597AA
:1033B0000895CF92DF92EF92FF920F931F93CF93D6
:1033C000DF93EC018F96DFDFCE01805B9F4FDBDF69
:1033D0007E012FE6E20EF11C87016E013BE5C31A68
:1033E0003EEFD30AC801CFDF015E1F4F0C151D054C
:1033F000C9F7FE01EA55FE4F89E1818314823596B3
:10340000178ACE0187539E4FBEDFFE01E658FD4F5F
:1034100010821182128213823496108211821282DB
:1034200013821A821B8218821982F8011082FE010F
:10343000E851FE4F108286E391E0F7019C01119262
:1034400021503040E1F7FE01EA57FD4F81E08083D3
:103450001EA61DA60E949FFECE57DD4F68577C4ECC
:103460008F4F9F4F688379838A839B83DF91CF91AE
:103470001F910F91FF90EF90DF90CF900895FC0186
:1034800020E03EE2DB014C91403241F0283011F463
:1034900030833196DB014C91408331962F5F6F5F13
:1034A0007F4F2B3079F7108208952F923F924F92E1
:1034B0005F926F927F928F929F92AF92BF92CF92C4
:1034C000DF92EF92FF920F931F93CF93DF93CDB7CD
:1034D000DEB7C657D1090FB6F894DEBF0FBECDBF19
:1034E0008C016B015A0129012DB73EB7E3963FAF1E
:1034F0002EAFE397AD961FAEAD9734E0A30EB11C8F
:103500004296E5969FAF8EAFE597180199E7291A85
:103510009DEF390AF801E757FD4FAF96FFAFEEAFC9
:10352000AF973801F5E06F0E711C7E012FE5E20EBA
:10353000F11C80E490E08C0F9D1F0496E7969FAFEE
:103540008EAFE797E5964EAD5FADE597BE016F5F35
:103550007F4FC5010E94BB9518160CF041C12C8508
:10356000322F3871303109F0BCC0F1018081918176
:103570000197029708F4B5C02DB73EB7E1963FAF6B
:103580002EAFE197BE016F5F7F4FC70178DF81E00B
:10359000F601908191119DC0E1E0F0E0D7010D901E
:1035A0000020E9F7EE19FF09EA0FFB1F31962DB74E
:1035B0003EB72E1B3F0B0FB6F8943EBF0FBE2DBF7C
:1035C000EDB7FEB731964F01882319F061E273E041
:1035D00001C0B601C4010F94230AB701C4010F94BE
:1035E000040A61E273E0C4010F94040ACE01805C16
:1035F0009F4FC9DE21E0A701B501E7968EAD9FADD3
:10360000E7970E944C99811137C0F1018081918127
:10361000892B91F5E0E7F1E18491882341F09091C5
:10362000C00095FFFCCF8093C6003196F5CFE3E252
:10363000F3E08191882339F09091C00095FFFCCF91
:103640008093C600F6CF8091C00085FFFCCF8AE052
:103650008093C600F7018191882339F09091C000D2
:1036600095FFFCCF8093C600F6CF8091C00085FF08
:10367000FCCF8AE08093C6008BE1FE01EC5BFF4F3C
:10368000DE01959601900D928A95E1F724968EAD14
:103690009FAD24979CA38BA38CE494E09AA389A369
:1036A00020E030E0AE014F5D5F4FB401C801FDDEA8
:1036B000CE01819672DECE01805C9F4F6EDEE19678
:1036C0002EAD3FADE1970FB6F8943EBF0FBE2DBFB4
:1036D00039CF80E001900020E9F73197EC19FD091E
:1036E0005DCF8981882309F47BC0853E09F42ACF08
:1036F0008E3209F427CFF80182898E3209F422CF65
:1037000023FD20CF81E0303109F080E0F80184838F
:10371000811108C08985873409F014CF8A858E37D6
:1037200009F410CFF101808191818130910569F018
:103730008230910581F1892B09F004CFBE016F5FC2
:103740007F4FC3019CDEF60110C0AF96EEADFFAD1A
:10375000AF9780819181019691838083F3CE909180
:10376000C00095FFFCCF8093C60081918111F7CFF7
:10377000F3018191882339F09091C00095FFFCCF2F
:103780008093C600F6CF8091C00085FFFCCF8AE011
:103790008093C600D7CEBE016F5F7F4FC3016FDE3F
:1037A0004114510439F0B301C2010F94F109892B7E
:1037B00079F416C0AD96FFADAD972F2F30E0AF96E0
:1037C000EEADFFADAF97808191812817390741F0A9
:1037D000AD96FFADAD97FF5FAD96FFAFAD97B2CEA3
:1037E000E3962EAD3FADE3970FB6F8943EBF0FBE04
:1037F0002DBFCA58DF4F0FB6F894DEBF0FBECDBF46
:10380000DF91CF911F910F91FF90EF90DF90CF90BC
:10381000BF90AF909F908F907F906F905F904F90F0
:103820003F902F900895EF92FF920F931F93CF93A5
:10383000DF93CDB7DEB76F970FB6F894DEBF0FBE3C
:10384000CDBF8C01FC01E957FD4F118210827C0134
:1038500083E3E80EF11C40E050E0BA01C7010E948A
:1038600072968BE1F701DE01159601900D928A9513
:10387000E1F7F80181A992A99C838B838CE494E001
:103880009A83898320E030E0AE014F5F5F4F6DE4A3
:1038900073E0C8010ADECE0101967FDD6F960FB698
:1038A000F894DEBF0FBECDBFDF91CF911F910F9176
:1038B000FF90EF900895EF92FF920F931F93CF9395
:1038C000DF93EC011B828EA9882321F0CE01C396E1
:1038D0000E9455977E018AE5E81A8EEFF80A45E3C3
:1038E00060E0C7010E94D29181111FC0E0E7F1E1C1
:1038F0008491882341F09091C00095FFFCCF809384
:10390000C6003196F5CFE8ECF3E08491882341F0CE
:103910009091C00095FFFCCF8093C6003196F5CF03
:103920008091C00085FFFCCF76C08E0105551E4FEB
:1039300041E0B701C8010E94569F811126C040E0B6
:10394000B701C8010E94569F81111FC0E6E7F1E14F
:103950008491882341F09091C00095FFFCCF809323
:10396000C6003196F5CFE5EBF3E08491882341F072
:103970009091C00095FFFCCF8093C6003196F5CFA3
:103980008091C00085FFFCCF46C0B801CE01C39630
:103990000E945F9481111FC0E6E7F1E184918823C2
:1039A00041F09091C00095FFFCCF8093C600319606
:1039B000F5CFE5EAF3E08491882341F09091C000CF
:1039C00095FFFCCF8093C6003196F5CF8091C00063
:1039D00085FFFCCF20C081E08B83E0E7F1E184919B
:1039E000882341F09091C00095FFFCCF8093C600E2
:1039F0003196F5CFEAE9F3E08491882341F0909184
:103A0000C00095FFFCCF8093C6003196F5CF809122
:103A1000C00085FFFCCF8AE08093C600CE01805BAA
:103A20009F4F2BE1FE01F396DC01149601900D925D
:103A30002A95E1F729A93AA9FC0133832283329719
:103A4000AF96D183C083DF91CF911F910F91FF90EB
:103A5000EF900895FC01128213820895CF92DF92B5
:103A6000EF92FF920F931F93CF93DF93CDB7DEB703
:103A7000CDB6DEB6FB0101900020E9F7E61BF70B9F
:103A800034968DB79EB78E1B9F0B0FB6F8949EBFD2
:103A90000FBE8DBF0DB71EB70F5F1F4F7F936F9384
:103AA00083E993E09F938F931F930F930F94470A9B
:103AB000780194E0E90EF11C0F900F900F900F9099
:103AC0000F900F90F7018081882349F0992787FD97
:103AD00090950F949209F70181937F01F3CF60E0F5
:103AE000C8010E9473338FE893E00E9418340FB628
:103AF000F894DEBE0FBECDBEDF91CF911F910F9126
:103B0000FF90EF90DF90CF900895FC012381222356
:103B100011F021E022830895FC01228121111282FB
:103B20000895AF92BF92CF92DF92EF92FF920F93E0
:103B30001F93CF93DF931F92CDB7DEB78C018FE237
:103B4000FB0181935F01D12C21E07801FBE5EF1AA5
:103B5000FEEFFF0A8FE1C82EF7018081D816C8F466
:103B6000B501C801CD9C800D911D11248D589F4F2A
:103B700029830E940694C50129815C010196F50103
:103B80003081332321F02D3810F42F5FF6CFD394FA
:103B9000E3CF27FD11C0B501C80183539E4F0F909D
:103BA000DF91CF911F910F91FF90EF90DF90CF9019
:103BB000BF90AF900C940694F50110820F90DF91A6
:103BC000CF911F910F91FF90EF90DF90CF90BF901A
:103BD000AF9008953F924F925F926F927F928F9233
:103BE0009F92AF92BF92CF92DF92EF92FF920F938C
:103BF0001F93CF93DF93CDB7DEB7AC970FB6F89492
:103C0000DEBF0FBECDBF7C015B01FC018381882339
:103C100009F4EDC0C70183539E4F0E945597F701E9
:103C20001282CE0101966C01AEDB27019EE4490EA3
:103C3000511CC7018F96F20191838083F501808129
:103C40008F3209F077C06FE270E0C5010F940F0A60
:103C50008C010F5F1F4F9AE0392E0115110509F4F1
:103C60006FC06FE270E0C8010F940F0A4C0100971B
:103C700009F467C00817190708F063C03C01601A0F
:103C8000710AA301B801CE0180960F94380AE0E2D0
:103C9000F0E0EC0FFD1FE60DF71D1082FE01B0965F
:103CA0008191882339F09091C00095FFFCCF8093DB
:103CB000C600F6CF8091C00085FFFCCF3092C600D1
:103CC000F201608171816115710519F06C5F7F4FA0
:103CD00002C060E070E021E0AE01405E5F4FCE01C7
:103CE00005960E944C9981111EC0EBE6F2E084918A
:103CF000882341F09091C00095FFFCCF8093C600CF
:103D00003196F5CFFE01B0968191882339F09091DC
:103D1000C00095FFFCCF8093C600F6CF8091C00015
:103D200085FFFCCF5FC0F201D182C08284010F5FAA
:103D30001F4F93CFC701805B9F4FF2019183808318
:103D40008501F20180819181009711F0049602C0F3
:103D500080E090E0B8010E94229A811103C0E5E45E
:103D6000F2E02EC0EDE5F2E08491882341F09091DD
:103D7000C00095FFFCCF8093C6003196F5CFF801C7
:103D80008191882339F09091C00095FFFCCF8093FA
:103D9000C600F6CF8091C00085FFFCCF8AE08093FB
:103DA000C600F701E258FD4F108211821282138281
:103DB0001CC09091C00095FFFCCF8093C600319647
:103DC00084918111F6CFF8018191882339F0909187
:103DD000C00095FFFCCF8093C600F6CF8091C00055
:103DE00085FFFCCF8EE28093C600C601D6DAAC9682
:103DF0000FB6F894DEBF0FBECDBFDF91CF911F91FC
:103E00000F91FF90EF90DF90CF90BF90AF909F9079
:103E10008F907F906F905F904F903F900895CF93D9
:103E2000DF93EC018B81811103C0E3E2F2E039C042
:103E3000E3E3F2E08491882341F09091C00095FF84
:103E4000FCCF8093C6003196F5CFFE01E258FD4FBE
:103E500040815181628173812AE030E08CEE94E0F0
:103E60000E9490318091C00085FFFCCF8FE280934B
:103E7000C600C658DD4F488159816A817B812AE09E
:103E800030E08CEE94E00E9490318091C00085FF7C
:103E9000FCCF0EC09091C00095FFFCCF8093C60070
:103EA000319684918111F6CF8091C00085FFFCCFBF
:103EB0008AE08093C600DF91CF910895AF92BF92C0
:103EC000CF92DF92EF92FF920F931F93CF93DF93E6
:103ED0005C01EB01FB0101900020E9F78F0101502B
:103EE0001109061B170B6C01F3E3CF1AFEEFDF0A73
:103EF000F60110826EE470E0CE010F940F0A7C018F
:103F0000009729F4F8013197EC0FFD1F0DC060E216
:103F100070E00F940F0AEC0121966AE270E0C7018D
:103F20000F940F0AFC0131978DE081838AE0828330
:103F30001382BE01C50187539E4F0E94FF9BF6016D
:103F40008081882309F1E6E7F1E18491882341F03B
:103F50009091C00095FFFCCF8093C6003196F5CFBD
:103F6000EDE0F2E08491882341F09091C00095FF4C
:103F7000FCCF8093C6003196F5CF8091C00085FFBD
:103F8000FCCF8AE08093C600DF91CF911F910F9103
:103F9000FF90EF90DF90CF90BF90AF9008956F9219
:103FA0007F928F929F92AF92BF92CF92DF92EF92C9
:103FB000FF920F931F93CF93DF93CDB7DEB7AA97EE
:103FC0000FB6F894DEBF0FBECDBF8C018A579D4F50
:103FD0007C01611114C0FC018081882309F498C020
:103FE0000E949FFEF801EE57FD4F80809180A280D5
:103FF000B380681979098A099B0997FF89C0F7017D
:104000001082F8018381811107C0C80154DCF801D6
:104010008381882309F47CC0F80186A58F9385A548
:104020008F9384E092E09F938F937E01F1E2EF0EF5
:10403000F11CFF92EF920F94470A0F900F900F9090
:104040000F900F900F90B12CF70101900020E9F72D
:104050003197EE19FF09BE1684F46701CB0CD11C11
:10406000B7FCDA94F6018081992787FD90950F942B
:104070009209F6018083B394E7CF4801F3E38F0EF2
:10408000911C40E050E0BA01C4010E947296612C7C
:10409000CE0101965C0140E050E0B501C4010E94F0
:1040A000BB9518164CF5712CF50101900020E9F72D
:1040B0003197EA19FB097E1674F46501C70CD11C0F
:1040C00077FCDA94F601808190E00F949209F60172
:1040D00080837394E9CF8A858E37E9F245E050E01A
:1040E000B701C5010F942A0A892BA9F6B701C801A7
:1040F000B5DC66246394CFCF611004C08FEF9FEFCF
:10410000F80104C0F80185A596A5019696A785A794
:10411000AA960FB6F894DEBF0FBECDBFDF91CF9148
:104120001F910F91FF90EF90DF90CF90BF90AF90D5
:104130009F908F907F906F9008950F931F93CF93D0
:10414000DF93EC018C0103531E4FC8010E940B97B3
:10415000C8010E94559719821882DF91CF911F9153
:104160000F910895CF92DF92EF92FF920F931F93DA
:10417000CF93DF93CDB7DEB76F970FB6F894DEBF5E
:104180000FBECDBF8C016A017C018EE4E80EF11CEC
:10419000C801805B9F4FF70191838083E75CFD4FEF
:1041A00022E030E03183208332967183608340E0E7
:1041B00050E0BA0104960E947296F70180819181C5
:1041C0002BE1FC013496DE01159601900D922A95A3
:1041D000E1F7FC01828193819C838B838CE494E0E2
:1041E0009A8389839601AE014F5F5F4F6DE473E060
:1041F000C8015BD9CE010196D0D86F960FB6F8945E
:10420000DEBF0FBECDBFDF91CF911F910F91FF9009
:10421000EF90DF90CF9008952F923F924F925F9250
:104220006F927F928F929F92AF92BF92CF92DF92C6
:10423000EF92FF920F931F93CF93DF93CDB7DEB72B
:10424000AC970FB6F894DEBF0FBECDBF8C016B01EB
:10425000342EFC018381882309F4CDC2E053FE4F44
:104260008081882309F4FAC0211103C0E0E7F1E15D
:10427000CDC07801F8E1EF1AFEEFFF0AF701808167
:10428000811103C0E0E7F1E135C0E6E7F1E1849197
:10429000882341F09091C00095FFFCCF8093C60029
:1042A0003196F5CFECE4F3E08491882341F09091CE
:1042B000C00095FFFCCF8093C6003196F5CF4AE051
:1042C00050E061E070E08CEE94E00E9464318091F7
:1042D000C00085FFFCCF8AE08093C60083E493E0B2
:1042E0000E94A85788C29091C00095FFFCCF809390
:1042F000C600319684918111F6CFEAE2F3E0849111
:10430000882341F09091C00095FFFCCF8093C600B8
:104310003196F5CFF6018191882339F09091C00054
:1043200095FFFCCF8093C600F6CFEFE1F3E08491D8
:10433000882341F09091C00095FFFCCF8093C60088
:104340003196F5CFF70180813DE8B32EB801B89ED4
:10435000600D711D112463517E4FC801E2DBF7012E
:104360008081F801B89EE00DF11D1124E351FE4F4C
:104370008191882339F09091C00095FFFCCF809304
:10438000C600F6CFE9E1F3E08491882341F09091F3
:10439000C00095FFFCCF8093C6003196F5CF580141
:1043A000F2E8AF1AFDEFBF0AF50140815181628149
:1043B00073812AE030E08CEE94E00E94903180918D
:1043C000C00085FFFCCF8AE08093C600F701208102
:1043D000F80184E0289FE00DF11D1124AF01475141
:1043E0005E4FF50180819181A281B381FA018083C2
:1043F0009183A283B3832F5FF701208329C090911B
:10440000C00095FFFCCF8093C60031968491811146
:10441000F6CFE8E0F3E08491882341F09091C0006A
:1044200095FFFCCF8093C6003196F5CFF6018191C0
:10443000882339F09091C00095FFFCCF8093C6008F
:10444000F6CF8091C00085FFFCCF8AE08093C60044
:10445000C80183539E4F0E94559730C0F801E85120
:10446000FE4F1082E0E7F1E18491882341F09091C2
:10447000C00095FFFCCF8093C6003196F5CFE7EFE3
:10448000F2E08491882341F09091C00095FFFCCF29
:104490008093C6003196F5CFF6018191882339F0DB
:1044A0009091C00095FFFCCF8093C600F6CF80911D
:1044B000C00085FFFCCF8AE08093C600F80112821D
:1044C000CE0101965C010E94C31928019EE4490EA9
:1044D000511CC8018F96F20191838083F60180817F
:1044E0008F3209F077C07601FFEFEF1AFF0A2AE05A
:1044F000222EE114F10409F473C06FE270E0C701E9
:104500000F940F0A4C01009709F46BC0E816F906E6
:1045100008F067C03C016E187F08A301B701CE0107
:1045200080960F94380AE0E2F0E0EC0FFD1FE60DF4
:10453000F71D1082FE01B0968191882339F0909189
:10454000C00095FFFCCF8093C600F6CF8091C000DD
:1045500085FFFCCF2092C600F20160817181611558
:10456000710519F06C5F7F4F02C060E070E021E0E0
:10457000AE01405E5F4FCE0105960E944C998111BD
:1045800021C0E3EEF2E08491882341F09091C000D5
:1045900095FFFCCF8093C6003196F5CFFE01B09613
:1045A0008191882339F09091C00095FFFCCF8093D2
:1045B000C600F6CF8091C00085FFFCCF8EE28093CD
:1045C000C60016C1F201B182A0827401FFEFEF1A9A
:1045D000FF0A8FCFC801805B9F4FF20191838083D8
:1045E0007601C80183539E4F4C01F20160817181B5
:1045F000332009F4A3C06115710519F06C5F7F4F7A
:1046000002C060E070E021E0A701C4010E944C9963
:10461000811103C0EBEAF2E075C0980126583D4FC6
:10462000F40181899289A389B489F90180839183F6
:10463000A283B383E5EDF2E08491882341F0909169
:10464000C00095FFFCCF8093C6003196F5CFF701EF
:104650008191882339F09091C00095FFFCCF809321
:10466000C600F6CFEDECF2E08491882341F0909102
:10467000C00095FFFCCF8093C6003196F5CFF901BD
:1046800040815181628173812AE030E08CEE94E0B8
:104690000E9490318091C00085FFFCCF8AE080931A
:1046A000C600F801E258FD4F108211821282138277
:1046B000EFEBF2E08491882341F09091C00095FFE8
:1046C000FCCF8093C6003196F5CF8091C00085FF66
:1046D000FCCF8AE08093C600A70160E070E0C801CB
:1046E00041DDF8018289882319F0C801429601C092
:1046F000C70160E07BC09091C00095FFFCCF809324
:10470000C600319684918111F6CFF70181918823FB
:1047100039F09091C00095FFFCCF8093C600F6CF92
:10472000E8EAF2E08491882309F462C09091C00025
:1047300095FFFCCF8093C6003196F4CF61157105CB
:1047400019F06C5F7F4F02C060E070E026E5A701C2
:10475000C4010E944C99811125C0E4E9F2E08491E2
:10476000882341F09091C00095FFFCCF8093C60054
:104770003196F5CFF7018191882339F09091C000EF
:1047800095FFFCCF8093C600F6CFE1E9F2E084917B
:10479000882371F19091C00095FFFCCF8093C600F3
:1047A0003196F5CF81E0F8018083EFE7F2E0849164
:1047B000882341F09091C00095FFFCCF8093C60004
:1047C0003196F5CFF6018191882339F09091C000A0
:1047D00095FFFCCF8093C600F6CF8091C00085FF87
:1047E000FCCF8AE08093C60060E0C7010E9415CE2E
:1047F000C5010E94CD19AC960FB6F894DEBF0FBE6E
:10480000CDBFDF91CF911F910F91FF90EF90DF907F
:10481000CF90BF90AF909F908F907F906F905F9060
:104820004F903F902F90089521E0FC01218320E0DC
:1048300040E0F2CCCF92DF92EF92FF920F931F9362
:10484000CF93DF93CDB7DEB76F970FB6F894DEBF87
:104850000FBECDBF8C016C012EE4C20ED11C805B5B
:104860009F4FF60191838083E75CFD4F21E030E0AC
:10487000318320837801F7E7EF1AFDEFFF0AF70194
:104880001182108240E050E0BA0104960E947296B4
:10489000F601808191812BE1FC013496DE011596B1
:1048A00001900D922A95E1F7FC01828193819C830E
:1048B0008B838CE494E09A83898320E030E0AE011E
:1048C0004F5F5F4F6DE473E0C8010E94551ACE013F
:1048D00001960E94CD19F701808191816F960FB6E4
:1048E000F894DEBF0FBECDBFDF91CF911F910F9126
:1048F000FF90EF90DF90CF900895AF92BF92CF924C
:10490000DF92EF92FF920F931F93CF93DF93CDB778
:10491000DEB76F970FB6F894DEBF0FBECDBF8C0128
:104920005B01CE0101960E94C319F801E95AFF4FBD
:1049300080817801811104C02FE2E20EF11C03C0D6
:1049400030E5E30EF11C670144E0C40ED11C21E008
:10495000A501B601CE0105960E944C9981112DC08A
:10496000E0E7F1E18491882341F09091C00095FF48
:10497000FCCF8093C6003196F5CFEEEEF1E0849146
:10498000882341F09091C00095FFFCCF8093C60032
:104990003196F5CFF5018191882339F09091C000CF
:1049A00095FFFCCF8093C600F6CF8091C00085FFB5
:1049B000FCCF8AE08093C60030C0F801EB55FE4F73
:1049C00080818A30D0F491E0980F9083F8012FE134
:1049D000829FE00DF11D1124CF0181599F4F2BE1E2
:1049E000F601DC01149601900D922A95E1F7F7018A
:1049F00022813381FC0133832283005B1F4F8BE1D3
:104A0000FE013596D801149601900D928A95E1F732
:104A10008B819C81F80193838283CE0101960E9451
:104A2000CD196F960FB6F894DEBF0FBECDBFDF91E4
:104A3000CF911F910F91FF90EF90DF90CF90BF909B
:104A4000AF900895CF93DF93FC01EB55FE4F20818B
:104A50002223D1F021502083EC013FE1239FC00DA0
:104A6000D11D1124C159DF4F805B9F4F2BE1FE0107
:104A70003496DC01149601900D922A95E1F72A8173
:104A80003B81FC0133832283DF91CF910895EF9224
:104A9000FF920F931F93CF93DF93EC010E9433A9F2
:104AA0008E0108511E4FF80180819E0123533E4F15
:104AB00079018823A1F1C9010E945597F8018081ED
:104AC00081508083BE01FDE88F9F600D711D112410
:104AD00063517E4F21E041E0CE019EDBF8018081F1
:104AE000FE0124E0829FE00DF11D1124E751FE4FED
:104AF0004081518162817381FE01E258FD4F408304
:104B0000518362837383C7010E947296CE01DF9145
:104B1000CF911F910F91FF90EF900C94851DC901CB
:104B20000E9455971A8282EE91E00E94183480917B
:104B3000720F882349F11092720F0091FB0510E06B
:104B4000E801CC0FDD1FCF54DC4E688179818827C6
:104B500077FD8095982F0F94FF0220913E023091AF
:104B60003F0240914002509141020F946004181698
:104B70005CF419821882C801DF91CF911F910F91C7
:104B8000FF90EF900C94E2B0DF91CF911F910F91C5
:104B9000FF90EF900895AF92BF92DF92EF92FF9255
:104BA0000F931F93CF93DF931F92CDB7DEB78C0186
:104BB0005B01460F8AE0D82E4A1509F43BC0750107
:104BC000F50161915F01F8018081918149830F9422
:104BD0006B0CF801808191810F94630CF701908137
:104BE0004981891701F1E0E7F1E18491882341F0DF
:104BF0009091C00095FFFCCF8093C6003196F5CF11
:104C0000E0EAF6E08491882341F09091C00095FF9E
:104C1000FCCF8093C6003196F5CF8091C00085FF10
:104C2000FCCFD092C600F8018081918101969183DA
:104C30008083C2CF0F90DF91CF911F910F91FF9092
:104C4000EF90DF90BF90AF900895EF92FF920F9397
:104C50001F93CF93DF931F92CDB7DEB78C017B01FB
:104C6000460FF8018081918149830F94630CF7010D
:104C700081937F01F80180819181019691838083E6
:104C800049814E11EECF0F90DF91CF911F910F917F
:104C9000FF90EF900895CF92DF92EF92FF920F93E3
:104CA0001F93CF93DF93CDB7DEB765970FB6F89418
:104CB000DEBF0FBECDBF19861A861B861C8680E319
:104CC00090E3A0E3B0E08D839E83AF83B88784E652
:104CD00090E09A8B898B44E0BE016B5F7F4FCE01E1
:104CE000419659DF40E163EB7FE0CE01419653DF0F
:104CF00040E163EC7FE0CE0141964DDF40E163EAA5
:104D00007FE0CE01419647DF44E06BE97FE0CE01D2
:104D1000419641DF44E067E97FE0CE0141963BDF09
:104D200044E063E97FE0CE01419635DF44E06FE97E
:104D30007FE0CE0141962FDF44E063E87FE0CE01C3
:104D4000419629DF44E063ED7FE0CE01419623DF09
:104D500044E06FE87FE0CE0141961DDF44E06BE860
:104D60007FE0CE01419617DF44E067E87FE0CE01A7
:104D7000419611DF4CE06AE076E0CE0141960BDF10
:104D800083E08D8B8C8B1B8A19861A861B861C866A
:104D900041E0BE016D5E7F4FCE014196FCDE44E0F6
:104DA000BE01675F7F4FCE014196F5DE41E0BE0157
:104DB0006B5E7F4FCE014196EEDE41E0BE016C5E40
:104DC0007F4FCE014196E7DE10E09D898C89212F2F
:104DD00030E0989FC001112444E02817390744F4BB
:104DE000BE01675F7F4FCE014196D5DE1F5FEDCFDD
:104DF00063E172E0CE014196CEDE19861A861B86EB
:104E00001C861AE0115041F044E0BE01675F7F4FFD
:104E1000CE014196C0DEF6CF42E062E876E1CE01F7
:104E20004196B9DE42E060E876E1CE014196B3DE1C
:104E300042E06EE776E1CE014196ADDE42E06CE7FE
:104E400076E1CE014196A7DE42E06AE776E1CE0147
:104E50004196A1DE42E068E776E1CE0141969BDE15
:104E6000C12C90E8D92E9BE3E92E95E4F92E11117F
:104E700019C044E065E872E0CE0141968CDE44E062
:104E800061E872E0CE01419686DE44E06DE772E0B3
:104E9000CE01419680DE44E069E772E0CE014196A2
:104EA0007ADE1AC0C986DA86EB86FC8644E0BE014B
:104EB000675F7F4FCE0141966EDE19861A861B868C
:104EC0001C8604E0015041F044E0BE01675F7F4F63
:104ED000CE01419660DEF6CF1F5F143041F642E00E
:104EE0006FE072E0CE01419656DE44E061E972E087
:104EF000CE01419650DE44E06DE872E0CE0141966D
:104F00004ADE44E069E872E0CE01419644DE80E288
:104F100090E0988B8F8742E0BE01615F7F4FCE01AA
:104F2000419639DE80E090E0A0E8BFE389879A8768
:104F3000AB87BC8744E0BE01675F7F4FCE014196DF
:104F40002ADE41E062E276E0CE01419624DE10E006
:104F500011110CC080912D0290912E02A0912F0270
:104F6000B091300289879A87AB87BC8744E0BE0145
:104F7000675F7F4FCE0141960EDE1F5F143041F711
:104F800086E592E3A3E3B0E089839A83AB83BC8395
:104F900084E690E09E878D8744E0BE016F5F7F4F7F
:104FA000CE010D96F8DDE0E7F1E18491882341F030
:104FB0009091C00095FFFCCF8093C6003196F5CF4D
:104FC00069897A898EE896E00E940033E6E8F6E087
:104FD0008491882341F09091C00095FFFCCF80938D
:104FE000C6003196F5CF8091C00085FFFCCF8AE0E6
:104FF0008093C60065960FB6F894DEBF0FBECDBF96
:10500000DF91CF911F910F91FF90EF90DF90CF90A4
:105010000895AF92BF92DF92EF92FF920F931F938A
:10502000CF93DF93CDB7DEB7E0970FB6F894DEBF2E
:105030000FBECDBF80E1EBEEF2E0DE019196019074
:105040000D928A95E1F780E1EBEFF2E0DE015196F7
:1050500001900D928A95E1F780E1EBE0F3E0DE014B
:10506000119601900D928A95E1F77E0181E2E80E9A
:10507000F11C03EB1FE0BE016F5E7F4F43EC5FE06E
:105080009E012F5F3F4FE3EAAE2EEFE0BE2ED12C04
:10509000F70181919191A191B1917F01F8018193E3
:1050A0009193A193B1938F01FB0181919191A19172
:1050B000B191BF01FA0181939193A193B193AF0193
:1050C000F90181919191A191B1919F01F501819394
:1050D0009193A193B1935F01D394F4E0DF12D8CF01
:1050E0000E941C7F80E090E0AAE7B4E480939B0FCD
:1050F00090939C0FA0939D0FB0939E0F40E050E4BF
:105100006CE975E44093970F5093980F6093990F53
:1051100070939A0F8093930F9093940FA093950F91
:10512000B093960F10929F0F1092A00F1092A10FA4
:105130001092A20F80E29EE4A0E0B0E08093D30F33
:105140009093D40FA093D50FB093D60F1092830FE6
:105150001092840F1092850F1092860F80E090E0DD
:10516000A0E0B1E480938F0F9093900FA093910FE4
:10517000B093920F8DEC9CECACECBEE380938B0F64
:1051800090938C0FA0938D0FB0938E0F80E090E0E2
:10519000A0EAB0E48093870F9093880FA093890FC3
:1051A000B0938A0F109212061092130610921406F2
:1051B0001092150610920E0610920F06109210060D
:1051C0001092110610920A0610920B0610920C060D
:1051D00010920D0680E090E0A0EAB0EC80931302FC
:1051E00090931402A0931502B09316028CED90E0F8
:1051F00090938316809382168CE390E090938116AF
:105200008093801610927F1610927E1680EF90E0A9
:1052100090937D1680937C1688E790E090937B16A0
:1052200080937A1610927916109278168AE999E985
:10523000A9EEB1E48093850290938602A093870241
:10524000B093880269E27CE587E990E40E94EBBABA
:105250006093810270938202809383029093840210
:105260006CEE71E585E392E40E94F7BA60937D02EB
:1052700070937E0280937F029093800280E090E0A2
:10528000A8ECB2E48093790290937A02A0937B0217
:10529000B0937C0284E190E09093100280930F021F
:1052A0000E94BDAB80E090E0A8EAB3E48093910255
:1052B00090939202A0939302B093940260E070E006
:1052C00084E792E40E94EBBA60938D0270938E02A1
:1052D00080938F029093900263E373E387EE93E4ED
:1052E0000E94F7BA6093890270938A0280938B02BE
:1052F00090938C021092220680E090E0A0E4B0E44B
:1053000080932D0290932E02A0932F02B09330022F
:105310000E946467E0E7F1E18491882341F0909175
:10532000C00095FFFCCF8093C6003196F5CFEFE328
:10533000F6E08491882341F09091C00095FFFCCF66
:105340008093C6003196F5CF8091C00085FFFCCFD9
:105350008AE08093C600E0960FB6F894DEBF0FBED9
:10536000CDBFDF91CF911F910F91FF90EF90DF9014
:10537000BF90AF900895CF93C82F882389F14091B3
:10538000B30F5091B40F6091B50F7091B60F87E2D3
:1053900096E00E9411334091B70F5091B80F609181
:1053A000B90F7091BA0F84E296E00E9411334091D8
:1053B000BB0F5091BC0F6091BD0F7091BE0F81E289
:1053C00096E00E9411334091BF0F5091C00F609141
:1053D000C10F7091C20F8EE196E00E9411332FC071
:1053E000E0E7F1E18491882341F09091C00095FFBE
:1053F000FCCF8093C6003196F5CFEFE2F6E08491C2
:10540000882341F09091C00095FFFCCF8093C600A7
:105410003196F5CF8091C00085FFFCCF8AE0809364
:10542000C600E0E7F1E18491882309F4A8CF9091C8
:10543000C00095FFFCCF8093C6003196F4CF8091D9
:10544000C00085FFFCCF8AE08093C600CC2389F1A1
:105450004091C30F5091C40F6091C50F7091C60F5A
:105460008BEF95E00E9411334091C70F5091C80F08
:105470006091C90F7091CA0F88EF95E00E941133B7
:105480004091CB0F5091CC0F6091CD0F7091CE0F0A
:1054900085EF95E00E9411334091CF0F5091D00FCE
:1054A0006091D10F7091D20F82EF95E00E9411337D
:1054B0002FC0E0E7F1E18491882341F09091C00092
:1054C00095FFFCCF8093C6003196F5CFE4E0F6E07F
:1054D0008491882341F09091C00095FFFCCF809388
:1054E000C6003196F5CF8091C00085FFFCCF8AE0E1
:1054F0008093C600E0E7F1E18491882309F4A8CF06
:105500009091C00095FFFCCF8093C6003196F4CFF8
:105510008091C00085FFFCCF8AE08093C600CC2339
:1055200089F14091A30F5091A40F6091A50F709144
:10553000A60F8BEC95E00E9422334091A70F50916B
:10554000A80F6091A90F7091AA0F88EC95E00E94B6
:1055500022334091AB0F5091AC0F6091AD0F709121
:10556000AE0F85EC95E00E9422334091AF0F509131
:10557000B00F6091B10F7091B20F82EC95E00E9474
:1055800022332FC0E0E7F1E18491882341F090912C
:10559000C00095FFFCCF8093C6003196F5CFE4EDB7
:1055A000F5E08491882341F09091C00095FFFCCFF5
:1055B0008093C6003196F5CF8091C00085FFFCCF67
:1055C0008AE08093C600E0E7F1E18491882309F442
:1055D000A8CF9091C00095FFFCCF8093C600319674
:1055E000F4CF8091C00085FFFCCF8AE08093C60095
:1055F000CC2321F140919B0F50919C0F60919D0F06
:1056000070919E0F87E895E00E9411334091970FAB
:105610005091980F6091990F70919A0F84E895E0DE
:105620000E9411334091930F5091940F6091950F08
:105630007091960F81E895E0F4D72FC0E0E7F1E193
:105640008491882341F09091C00095FFFCCF809316
:10565000C6003196F5CFE0E9F5E08491882341F06A
:105660009091C00095FFFCCF8093C6003196F5CF96
:105670008091C00085FFFCCF8AE08093C600E0E700
:10568000F1E18491882309F4B5CF9091C00095FF92
:10569000FCCF8093C6003196F4CF8091C00085FF87
:1056A000FCCF8AE08093C600CC2309F443C040912C
:1056B0009F0F5091A00F6091A10F7091A20F85ECE8
:1056C00094E0AFD74091830F5091840F6091850F84
:1056D0007091860F82EC94E0A4D74091D30F509143
:1056E000D40F6091D50F7091D60F8FEB94E0AAD7AD
:1056F00040918F0F5091900F6091910F7091920F88
:105700008CEB94E08ED740918B0F50918C0F609171
:105710008D0F70918E0F89EB94E083D74091870FA6
:105720005091880F6091890F70918A0F86EB94E0F9
:1057300078D72FC0E0E7F1E18491882341F0909180
:10574000C00095FFFCCF8093C6003196F5CFEEECFC
:10575000F4E08491882341F09091C00095FFFCCF44
:105760008093C6003196F5CF8091C00085FFFCCFB5
:105770008AE08093C600E0E7F1E18491882309F490
:1057800096CF9091C00095FFFCCF8093C6003196D4
:10579000F4CF8091C00085FFFCCF8AE08093C600E3
:1057A000CC2311F140910A0650910B0660910C0632
:1057B00070910D068BE994E034D740910E0650911C
:1057C0000F06609110067091110688E994E029D7C0
:1057D00040911206509113066091140670911506BF
:1057E00085E994E01ED72FC0E0E7F1E1849188239A
:1057F00041F09091C00095FFFCCF8093C600319698
:10580000F5CFE4EAF4E08491882341F09091C00060
:1058100095FFFCCF8093C6003196F5CF8091C000F4
:1058200085FFFCCF8AE08093C600E0E7F1E1849138
:10583000882309F4B7CF9091C00095FFFCCF8093E7
:10584000C6003196F4CF8091C00085FFFCCF8AE07E
:105850008093C600CC23B1F06091821670918316BC
:105860008DE694E0CDD660918016709181168AE61F
:1058700094E0C6D660917E1670917F1687E694E01C
:10588000BFD62FC0E0E7F1E18491882341F09091E9
:10589000C00095FFFCCF8093C6003196F5CFE9E7B5
:1058A000F4E08491882341F09091C00095FFFCCFF3
:1058B0008093C6003196F5CF8091C00085FFFCCF64
:1058C0008AE08093C600E0E7F1E18491882309F43F
:1058D000C3CF9091C00095FFFCCF8093C600319656
:1058E000F4CF8091C00085FFFCCF8AE08093C60092
:1058F000CC23B1F060917C1670917D168BE594E01D
:105900007FD660917A1670917B1688E594E078D600
:10591000609178167091791685E594E071D60DC086
:10592000E0E7F1E18491882329F39091C00095FF8D
:10593000FCCF8093C6003196F5CF8091C00085FFE3
:10594000FCCF8AE08093C600CC2309F43CC0409190
:1059500085025091860260918702709188028EE3E1
:1059600094E05FD6609181027091820280918302FF
:10597000909184020E94F1BAAB01BC018BE394E0E8
:1059800050D660917D0270917E0280917F0290914D
:1059900080020E94FDBAAB01BC0188E394E041D6CD
:1059A0004091790250917A0260917B0270917C0261
:1059B00085E394E036D660910F027091100282E385
:1059C00094E01ED62FC0E0E7F1E18491882341F0F6
:1059D0009091C00095FFFCCF8093C6003196F5CF23
:1059E000E7E4F4E08491882341F09091C00095FFB2
:1059F000FCCF8093C6003196F5CF8091C00085FF23
:105A0000FCCF8AE08093C600E0E7F1E1849188232F
:105A100009F49DCF9091C00095FFFCCF8093C60004
:105A20003196F4CF8091C00085FFFCCF8AE080934F
:105A3000C600CC2351F140919102509192026091A5
:105A400093027091940289E294E0EBD560918D020B
:105A500070918E0280918F02909190020E94F1BA13
:105A6000AB01BC0186E294E0DCD5609189027091C3
:105A70008A0280918B0290918C020E94FDBAAB0148
:105A8000BC0183E294E0CDD50DC0E0E7F1E1849163
:105A9000882389F29091C00095FFFCCF8093C600C7
:105AA0003196F5CF8091C00085FFFCCF8AE08093CE
:105AB000C600CC2361F040912D0250912E026091DE
:105AC0002F02709130028DEF93E0ABD545C0E0E737
:105AD000F1E18491882341F09091C00095FFFCCFC3
