:100000000C94BC180C94ED180C94ED180C94ED188D
:100010000C94ED180C94ED180C94ED180C94ED184C
:100020000C94ED180C94ED180C94ED180C94ED183C
:100030000C94ED180C94ED180C94ED180C94ED182C
:100040000C94ED180C9407890C94ED180C94ED1891
:100050000C94ED180C94ED180C94DCA00C9477E43F
:100060000C94ED180C9473300C94ED180C94ED185E
:100070000C94ED180C94ED180C94ED180C94ED18EC
:100080000C94ED180C94ED180C94ED180C94ED18DC
:100090000C94ED180C94ED180C94ED180C9469DD8B
:1000A0000C94ED180C94ED180C94ED180C94ED18BC
:1000B0000C94ED180C94ED180C94ED180C94ED18AC
:1000C0000C94ED180C94ED180C94ED180C94ED189C
:1000D0000C94ED180C94ED180C94ED180C94ED188C
:1000E0000C94ED1868A178A197A1A7A1C2A1D2A1F3
:1000F000EDA1F2A1F5A1FAA1FDA102A20CA29AE53F
:100100009FE5A4E5AEE5B8E531E6C2E5CAE5D2E58E
:10011000DCE5E6E5F0E5FFE509E631E613E61DE698
:1001200027E652E655E644E648E64EE68CE659E612
:100130005DE663E667E66BE671E675E679E68CE612
:100140007FE683E687E6084AD73B3BCE016E84BC58
:10015000BFFDC12F3D6C74319ABD56833DDA3D0021
:10016000C77F11BED9E4BB4C3E916BAAAABE00006A
:1001700000803F05A84CCDB2D44EB93836A9020C48
:1001800050B9918688083CA6AAAA2ABE0000008021
:100190003F004D383420582059205A2045004361F3
:1001A0006E6E6F7420656E7465722073756264691B
:1001B000723A20006175746F25692E67006572724E
:1001C0006F722077726974696E6720746F20666938
:1001D0006C65004E6F74205344207072696E7469B0
:1001E0006E67005344207072696E74696E67206296
:1001F000797465200044656C6574696F6E20666172
:10020000696C65642C2046696C653A200046696C0F
:10021000652064656C657465643A006F70656E2076
:100220006661696C65642C2046696C653A200057EC
:10023000726974696E6720746F2066696C653A2014
:10024000002E0A006F70656E206661696C65642C13
:100250002046696C653A20002E0A006F70656E209A
:100260006661696C65642C2046696C653A200046BD
:10027000696C652073656C656374656400205369FF
:100280007A653A200046696C65206F70656E65641A
:100290003A20006F70656E206661696C65642C2081
:1002A00046696C653A20004E6F7720667265736808
:1002B0002066696C653A20004E6F7720646F696E26
:1002C000672066696C653A20002220706F730022F7
:1002D00020706172656E743A2200535542524F5538
:1002E00054494E452043414C4C20746172676574FB
:1002F0003A22004B494C4C45442E200074727969D7
:100300006E6720746F2063616C6C207375622D675B
:10031000636F64652066696C657320776974682013
:10032000746F6F206D616E79206C6576656C732ECD
:10033000204D4158206C6576656C2069733A004DFC
:100340003234004D323320257300534420636172F0
:1003500064206F6B006F70656E526F6F7420666102
:10036000696C656400766F6C756D652E696E697475
:10037000206661696C656400534420696E6974206D
:100380006661696C0020204D3230302044300020FE
:10039000204D32303020543120440020204D323066
:1003A000302044002044697361626C6564004669D2
:1003B0006C616D656E742073657474696E67733AF1
:1003C0000020440020490020204D333034205000CC
:1003D000204C0020430020440020490020204D33C1
:1003E0003031205000204C002043002044002049A0
:1003F0000020500020204D3330312045005049442A
:100400002073657474696E67733A00204600204259
:100410000020204D31343520533120480020460043
:1004200020420020204D3134352053302048004DEB
:100430006174657269616C206865617475702070A3
:100440006172616D65746572733A00205A002059BB
:100450000020204D3432312058002059002058000F
:1004600020204D3432302053004D65736820626582
:1004700064206C6576656C696E673A00205A0020CE
:10048000590020204D323036205800486F6D6520CD
:100490006F666673657420286D6D293A00204500EB
:1004A000205A0020580020420020540020204D32C5
:1004B0003035205300416476616E63656420766157
:1004C000726961626C65733A20533D4D696E2066B6
:1004D0006565647261746520286D6D2F73292C2009
:1004E000543D4D696E2074726176656C2066656559
:1004F000647261746520286D6D2F73292C20423D34
:100500006D696E696D756D207365676D656E7420BC
:1005100074696D6520286D73292C20583D6D6178B4
:10052000696D756D205859206A65726B20286D6D54
:100530002F73292C20205A3D6D6178696D756D20CF
:100540005A206A65726B20286D6D2F73292C20202C
:10055000453D6D6178696D756D2045206A65726BEA
:1005600020286D6D2F732900205400205200202078
:100570004D323034205000416363656C65726174A4
:10058000696F6E733A20503D7072696E74696E6760
:100590002C20523D7265747261637420616E642018
:1005A000543D74726176656C00204500205A00202D
:1005B000590020204D3230312058004D6178696D4E
:1005C000756D20416363656C65726174696F6E203F
:1005D000286D6D2F7332293A00204500205A0020E3
:1005E000590020204D3230332058004D6178696D1C
:1005F000756D2066656564726174657320286D6D24
:100600002F73293A00204500205A0020590020204D
:100610004D39322058005374657073207065722014
:10062000756E69743A0048617264636F6465642032
:1006300044656661756C742053657474696E677384
:10064000204C6F61646564002062797465732900D1
:100650002073746F7265642073657474696E677358
:10066000207265747269657665642028002062795D
:10067000746573290053657474696E6773205374CD
:100680006F7265642028004572726F7220777269FC
:1006900074696E6720746F20454550524F4D21009C
:1006A0005072696E7465722068616C7465642E2086
:1006B0006B696C6C28292063616C6C656421004B4C
:1006C000494C4C45442E20004B494C4C45442E206F
:1006D0000020746F6F206C6F6E6720657874727580
:1006E00073696F6E2070726576656E746564002044
:1006F000636F6C6420657874727573696F6E2070B7
:10070000726576656E746564006F6B005265736523
:100710006E643A20004F6666736574732061707072
:100720006C696564004572723A20546F6F2066618F
:10073000722100546F6F206661722066726F6D20A7
:100740007265666572656E636520706F696E7400B0
:100750004D65736820585920696E64657820697307
:10076000206F7574206F6620626F756E6473004D24
:100770003432312072657175697265732058595A27
:1007800020706172616D657465727300486F746585
:100790006E64206F6666736574733A005365747493
:1007A000696E672054726176656C20416363656C85
:1007B00065726174696F6E3A200053657474696E76
:1007C00067205265747261637420416363656C6570
:1007D000726174696F6E3A200053657474696E6754
:1007E000205072696E7420416363656C6572617438
:1007F000696F6E3A200053657474696E6720507299
:10080000696E7420616E642054726176656C20415B
:100810006363656C65726174696F6E3A20004D3177
:10082000343520533C696E6465783E206F757420C2
:100830006F662072616E67652028302D3129007A3D
:100840005F6D696E3A2000795F6D696E3A200078BD
:100850005F6D696E3A2000205A3A0020593A002014
:10086000436F756E7420583A200020453A00205A94
:100870003A0020593A00583A004649524D574152E1
:10088000455F4E414D453A4D61726C696E20312E87
:10089000312E302D524336202847697468756229FD
:1008A00020534F555243455F434F44455F55524C8B
:1008B0003A68747470733A2F2F6769746875622E82
:1008C000636F6D2F426967426F7833442F4D6172B9
:1008D0006C696E2D4879627269642050524F544F92
:1008E000434F4C5F56455253494F4E3A312E3020BC
:1008F0004D414348494E455F545950453A42696716
:10090000426F78204469726563742045585452558B
:100910004445525F434F554E543A32205555494451
:100920003A63656465326132662D343161322D344B
:100930003734382D396231322D63353563363266BE
:1009400033363766660A00426967426F7820446929
:1009500072656374204F66662E00426967426F7845
:10096000204469726563742072656164792E004267
:10097000656420646F6E652E003F0020573A004288
:1009800065642048656174696E672E00486561740E
:10099000696E6720646F6E652E003F0020573A0035
:1009A00048656174696E672E2E2E00426967426F3A
:1009B00078204469726563742072656164792E00E1
:1009C0006F6B004D3131332053004B494C4C454443
:1009D0002E20004543484F00494E464F0045525295
:1009E0004F52530044525952554E00434F4D4D55AE
:1009F0004E49434154494F4E006F666600D309D8B3
:100A000009DD09E409EB0944454255473A004865C8
:100A10006174696E672E2E2E00426967426F7820DE
:100A20004469726563742072656164792E0025697A
:100A3000206D696E2C2025692073656300456E6406
:100A40002066696C65206C69737400426567696E25
:100A50002066696C65206C697374004E6F206D6F41
:100A600076652E00426967426F782044697265633B
:100A7000742072656164792E00526573756D696EBC
:100A800067207072696E74005761697420666F72B6
:100A900020757365722E2E2E0054455354005A2033
:100AA0006E6F7420656E74657265642E0A005A203C
:100AB0006E6F7420656E74657265642E0A0059202D
:100AC0006E6F7420656E74657265642E0A0059201D
:100AD0006F7574206F662072616E67652028312DF6
:100AE00033292E0A0058206E6F7420656E7465726B
:100AF00065642E0A0058206F7574206F662072613D
:100B00006E67652028312D33292E0A0047323800C0
:100B10004D6573682070726F62696E6720646F6ED6
:100B2000652E005374617274206D65736820707255
:100B30006F62696E672077697468202247323920B6
:100B40005331222066697273742E004732380A4787
:100B50003239205332004D65736820626564206C21
:100B60006576656C696E67206E6F74206163746969
:100B700076652E002020000A4D65617375726564EC
:100B800020706F696E74733A000A5A206F6666733C
:100B900065743A20000A5A207365617263682068A0
:100BA00065696768743A20004E756D20582C593A73
:100BB000200053206F7574206F662072616E676528
:100BC0002028302D34292E00486F6D6520582F596C
:100BD000206265666F7265205A00486F6D65205807
:100BE0002F59206265666F7265205A005761726ED8
:100BF000696E673A20486F6D696E672042756D7047
:100C00002044697669736F72203C2031005A20704D
:100C1000726F6265206F75742E20626564005A20C1
:100C200070726F6265206F75742E20626564005368
:100C30006C6565702E2E2E0020400020403A00206A
:100C400042403A00202F00205400202F0020423A3A
:100C500000202F0020543A00627573793A207061A9
:100C60007573656420666F7220696E7075740062BA
:100C70007573793A2070617573656420666F7220B0
:100C80007573657200627573793A2070726F63656F
:100C90007373696E6700220A00556E6B6E6F776E14
:100CA00020636F6D6D616E643A20220020496E767C
:100CB000616C6964206578747275646572200025C2
:100CC0006920686F757273202569206D696E75746F
:100CD000657300446F6E65207072696E74696E672B
:100CE0002066696C65004B494C4C45442E200053EE
:100CF000544F505045442E20005072696E746572F6
:100D00002073746F707065642064756520746F2043
:100D10006572726F72732E20466978207468652040
:100D20006572726F7220616E6420757365204D3933
:100D3000393920746F20726573746172742E2028A3
:100D400054656D7065726174757265206973207287
:100D5000657365742E205365742069742061667410
:100D600065722072657374617274696E6729004ED2
:100D70006F204C696E65204E756D626572207769D3
:100D8000746820636865636B73756D2C204C6173A8
:100D900074204C696E653A20004E6F20436865638D
:100DA0006B73756D2077697468206C696E65206E51
:100DB000756D6265722C204C617374204C696E6590
:100DC0003A2000636865636B73756D206D69736DA0
:100DD000617463682C204C617374204C696E653AB1
:100DE00020004C696E65204E756D626572206973D6
:100DF000206E6F74204C617374204C696E65204EB8
:100E0000756D6265722B312C204C617374204C69B6
:100E10006E653A20004D31313000446F6E652073AD
:100E20006176696E672066696C652E004D32390007
:100E30002020506C616E6E65724275666665724206
:100E4000797465733A20002046726565204D656DA2
:100E50006F72793A20004A756E202034203230318A
:100E60003600436F6D70696C65643A2000284772E4
:100E7000656720486F6C6C6F7761792C20426967D9
:100E8000426F7820446972656374204475616C29EF
:100E900000207C20417574686F723A200032303136
:100EA000362D30362D30312031363A303000204C5E
:100EB00061737420557064617465643A2000203158
:100EC0002E312E302D524336004D61726C696E000A
:100ED00020536F6674776172652052657365740084
:100EE000205761746368646F67205265736574008E
:100EF0002042726F776E206F75742052657365742F
:100F0000002045787465726E616C2052657365745B
:100F100000506F77657255700073746172740022AF
:100F200000656E7175657565696E67202200FFFF4B
:100F3000FF000040400000404000000040000082F0
:100F400043000070430000964300000000000000D2
:100F50000000000000000082430000704300009683
:100F6000430000000000000000000000006563680E
:100F70006F3A004572726F723A0020746F6F206C86
:100F80006F6E6720657874727573696F6E2070720A
:100F90006576656E7465640020636F6C64206578A7
:100FA00074727573696F6E2070726576656E7465A4
:100FB00064007C3C3E5E2B3D3F2F5B5D3B2C2A2238
:100FC0005C004D383420582059205A204500456E89
:100FD0006473746F7073202563202563202563205C
:100FE000256300205A3A0020593A0020583A0065FB
:100FF0006E6473746F7073206869743A200024F40F
:10100000D43050C38E20C2A24017828B7011127A46
:10101000910D816CD90AA861E108C7586607615132
:1010200043061E4B5D05C145A7041A411104093D45
:101030009803713931034036DB0265339102D430B5
:101040005402802E1D02632CEE01752AC501B028C2
:10105000A001102781018F2564012B244B01E02280
:101060003401AC211F018D200D01801FFC00841E66
:10107000ED00971DDF00B81CD200E61BC600201B48
:10108000BC00641AB200B219A8000A19A0006A18BC
:101090009900D117910040178B00B51684003116C6
:1010A0007E00B31579003A157300C7146F00581409
:1010B0006A00EE1366008813630025135E00C712F2
:1010C0005B006C12570015125400C11151007011D1
:1010D0004F0021114B00D61049008D1047004610DB
:1010E000440002104200C00F4000800F3E00420F3B
:1010F0003C00060F3B00CB0E3800930E37005C0E11
:101100003500270E3400F30D3200C10D3100900D73
:101110003000600D2E00320D2D00050D2C00D90C75
:101120002B00AE0C2900850C29005C0C2700350C27
:1011300027000E0C2600E80B2400C40B2400A00B93
:1011400023007D0B23005A0B2100390B2100180BC3
:101150002000F80A1F00D90A1E00BB0A1E009D0AC3
:101160001D00800A1D00630A1C00470A1B002C0A90
:101170001B00110A1A00F7091A00DD091900C40939
:101180001900AB091900920917007B0918006309BF
:1011900017004C09160036091600200916000A0926
:1011A0001500F5081500E0081400CC081400B80874
:1011B0001400A4081400900813007D0812006B08A6
:1011C00013005808120046081200340811002308C2
:1011D00011001208110001081100F0071000E007CB
:1011E0001000D0071000C0071000B0070F00A107C3
:1011F000100091070E0083070F0074070F006507AA
:101200000E0057070E0049070E003B070D002E0782
:101210000E0020070D0013070D0006070D00F9064C
:101220000C00ED060D00E0060C00D4060C00C8060C
:101230000C00BC060C00B0060C00A4060B009906BE
:101240000C008D060B0082060B0077060B006C0667
:101250000B0061060A0057060B004C060A00420606
:101260000A0038060A002E060A0024060A001A069A
:101270000A001006090007060A00FD050900F4052A
:101280000900EB050900E2050900D9050900D005B0
:101290000900C7050900BE050900B5050800AD0530
:1012A0000800A50509009C050800940508008C05A8
:1012B0000800840508007C050800740508006C051A
:1012C0000700650508005D050700560508004E0586
:1012D00007004705070040050800380507003105ED
:1012E00007002A050700230507001C050600160550
:1012F00007000F0507000805060002050700FB04AC
:101300000600F5040700EE040600E8040600E20407
:101310000700DB040600D5040600CF040600C9045C
:101320000600C3040600BD040600B7040600B104AD
:101330000500AC040600A6040600A00405009B04FA
:10134000060095040500900406008A040500850443
:101350000500800406007A04050075040500700489
:1013600005006B04050066040500610405005C04CB
:10137000050057040500520405004D04050048040B
:101380000500430405003E0404003A04050035044A
:101390000500300404002C04050027040400230485
:1013A00005001E0404001A040400160405001104BC
:1013B00004000D04040009040500040404000004F2
:1013C0000400FC030400F8030400F4030400F00329
:1013D0000400EC030400E8030400E4030400E00359
:1013E0000400DC030400D8030400D4030400D00389
:1013F0000400CC030400C8030300C503030024F465
:1014000004D9201BC40C5C0E9804C4095F02650754
:101410007101F405F900FB04B30048048700C1031F
:1014200069005803550003034500BE023A008402D8
:10143000310053022A002902250004022000E401A1
:101440001C00C8011900AF011700980114008401A5
:101450001300710110006101100051010E004301E1
:101460000D0036010B002B010B0020010B001501B4
:1014700009000C01090003010800FB000800F3004B
:101480000800EB000700E4000600DE000600D800BC
:101490000600D2000600CC000500C7000500C2000F
:1014A0000500BD000400B9000400B5000400B1004F
:1014B0000400AD000400A9000400A5000300A20080
:1014C00003009F0004009B000300980003009500A8
:1014D000020093000300900003008D0002008B00C7
:1014E00003008800020086000200840003008100DF
:1014F00002007F0002007D0002007B0002007900F4
:101500000200770001007600020074000200720001
:101510000100710002006F0002006D0001006C000C
:1015200002006A0001006900020067000100660015
:10153000010065000100640002006200010061001A
:101540000100600001005F0002005D0001005C001E
:1015500001005B0001005A00010059000100580021
:101560000100570001005600010055000100540021
:10157000010053000000530001005200010051001F
:101580000100500001004F0001004E0000004E001D
:1015900001004D0001004C0001004B0000004B0019
:1015A00001004A0001004900010048000000480015
:1015B0000100470001004600000046000100450010
:1015C000000045000100440001004300000043000A
:1015D0000100420000004200010041000000410003
:1015E0000100400001003F0000003F0001003E00FC
:1015F00000003E0001003D0000003D0001003C00F5
:1016000000003C0000003C0001003B0000003B00EB
:1016100001003A0000003A000100390000003900E2
:1016200001003800000038000000380001003700D9
:1016300000003700010036000000360000003600D0
:1016400001003500000035000000350001003400C5
:1016500000003400000034000100330000003300BB
:1016600000003300010032000000320000003200B0
:1016700001003100000031000000310001003000A5
:10168000000030000000300001002F0000002F009B
:1016900000002F0000002F0001002E0000002E008F
:1016A00000002E0001002D0000002D0000002D0084
:1016B00000002D0001002C0000002C0000002C0078
:1016C00000002C0001002B0000002B0000002B006C
:1016D00000002B0001002A0000002A0000002A0060
:1016E00000002A0001002900000029000000290054
:1016F0000000290000002900010028000000280047
:101700000000280000002800000028000100270039
:10171000000027000000270000002700000027002D
:101720000100260000002600000026000000260020
:101730000000260001002500000025000000250013
:101740000000250000002500000025000100240005
:1017500000002400000024000000240000002400F9
:1017600001002300000023000000230000002300EC
:1017700000002300000023000000230001002200DD
:1017800000002200000022000000220000002200D1
:1017900000002200010021000000210000002100C3
:1017A00000002100000021000000210000002100B5
:1017B00001002000000020000000200000002000A8
:1017C0000000200000002000000020000000200099
:1017D00001001F0000001F0000001F0000001F008C
:1017E00000001F0000001F0000001F0001001E007D
:1017F00000001E0000001E0000001E0000004D49F9
:101800004E54454D50207472696767657265640077
:101810004572723A204D494E54454D502042454440
:10182000004D415854454D50207472696767657288
:101830006564004572723A204D415854454D502020
:1018400042454400546865726D616C2052756E614A
:1018500077617900544845524D414C2052554E41D4
:101860005741590048656174696E67206661696C0B
:1018700065640048656174696E67206661696C65BE
:1018800064004D494E54454D502074726967676538
:10189000726564004572723A204D494E54454D5070
:1018A00000626564002C2073797374656D20737415
:1018B0006F7070656421204865617465725F49448A
:1018C0003A20004D415854454D5020747269676765
:1018D00065726564004572723A204D415854454D19
:1018E00050004B64200023646566696E65202044C7
:1018F000454641554C545F004B69200023646566A2
:10190000696E65202044454641554C545F004B703C
:10191000200023646566696E652020444546415574
:101920004C545F00504944204175746F74756E6566
:101930002066696E6973686564212050757420742F
:101940006865206C617374204B702C204B6920619A
:101950006E64204B6420636F6E7374616E747320C9
:1019600066726F6D2062656C6F7720696E746F2090
:10197000436F6E66696775726174696F6E2E680079
:10198000504944204175746F74756E6520666169B5
:101990006C6564212074696D656F757400504944ED
:1019A000204175746F74756E65206661696C65643D
:1019B000212054656D706572617475726520746F55
:1019C0006F206869676800204B643A2000204B69EB
:1019D0003A2000204B703A200020436C61737369F9
:1019E000632050494420002054753A2000204B7554
:1019F0003A2000206D61783A2000206D696E3A200F
:101A00000020643A200020626961733A20000000DF
:101A10000000300E0100C00E0A00500F1400D00F5D
:101A20001E0060102800E010320070113C00F01120
:101A300046007012500000135A0080136400001416
:101A40006E00901478001015820090158C0010160E
:101A500096009016A0001017AA009017B400101856
:101A6000BE009018C8001019D2009019DC00101A9E
:101A7000E600801AF000001BFA00801B0401F01B36
:101A80000E01701C1801F01C2201601D2C01E01DCC
:101A90003601501E4001D01E4A01401F5401B01FA4
:101AA0005E0130206801A020720110217C0190218C
:101AB0008601002290016026F401902A5802802EAF
:101AC000BC0250322003E03584035039E803803CE7
:101AD0004C041000C90210012C01400122017001C8
:101AE0001801B0010E01F00104015002FA00B00229
:101AF000F0003003E600D003DC009004D200700553
:101B0000C800A006BE000008B400B009AA00D00BAF
:101B1000A000600E960060118C0000158200201954
:101B20007800C01D6E00A0226400B0275A00902CDF
:101B3000500000314600E0343C0010383200903A4A
:101B40002800603C1E00A03D1400803E0A00203F9B
:101B50000000436172642072656D6F7665640043B6
:101B600061726420696E736572746564004D34320D
:101B7000380020003F000920005A00590058004654
:101B80006C6F77203200466C6F77203200466C6FA6
:101B900077203100466C6F77203100466C6F7700FC
:101BA000466C6F770046616E207370656564004611
:101BB000616E20737065656400426564004265640F
:101BC000004E6F7A7A6C652032004E6F7A7A6C65BF
:101BD0002032004E6F7A7A6C652031004E6F7A7A2F
:101BE0006C652031005370656564005370656564F1
:101BF000004D61696E004D6F76652058004D6F761F
:101C0000652059004D6F7665205A004578747275CD
:101C1000646572320045787472756465723100458E
:101C20007874727564657232004578747275646593
:101C30007231004D6F7665205A004D6F76652059E0
:101C4000004D6F76652058004D6F7665206178698C
:101C500073004D6F766520302E316D6D004D6F76BF
:101C60006520316D6D004D6F76652031306D6D00F2
:101C700050726570617265005072656865617420AC
:101C8000504C412042656400507265686561742063
:101C9000504C4120416C6C00507265686561742045
:101CA000504C412032005072656865617420504C80
:101CB0004120310050726570617265005072656834
:101CC000656174204142532042656400507265682A
:101CD0006561742041425320416C6C00507265680C
:101CE000656174204142532032005072656865611D
:101CF000742041425320310050726570617265005A
:101D00004D38300053776974636820706F7765725F
:101D1000206F6E004D38310053776974636820700E
:101D20006F776572206F666600436F6F6C646F77C4
:101D30006E005072656865617420414253005072B4
:101D4000656865617420504C41004D383400446929
:101D50007361626C65207374657070657273004D99
:101D60006F766520617869730053657420686F6DC4
:101D700065206F666673657473004732380041757D
:101D8000746F20686F6D65004D61696E0053746FEC
:101D90007265206D656D6F72790042656400426501
:101DA00064004E6F7A7A6C65004E6F7A7A6C6500CB
:101DB00046616E2073706565640046616E207370C5
:101DC0006565640054656D70657261747572650057
:101DD00053746F7265206D656D6F72790042656432
:101DE00000426564004E6F7A7A6C65004E6F7A7AB5
:101DF0006C650046616E2073706565640046616EB7
:101E00002073706565640054656D706572617475EA
:101E100072650050726568656174204142532063A9
:101E20006F6E66005072656865617420504C412089
:101E3000636F6E66005049442D43005049442D4362
:101E4000005049442D44005049442D440050494419
:101E50002D49005049442D49005049442D5000500F
:101E600049442D500020082046616374002008205A
:101E700046616374002008204D6178002008204DE1
:101E80006178002008204D696E002008204D696EA1
:101E9000004175746F74656D70004F6666004F6E1B
:101EA000200046616E2073706565640046616E2097
:101EB00073706565640042656400426564004E6F3E
:101EC0007A7A6C652032004E6F7A7A6C6520320027
:101ED0004E6F7A7A6C652031004E6F7A7A6C65208D
:101EE0003100436F6E74726F6C004573746570736C
:101EF0002F6D6D004573746570732F6D6D005A738F
:101F0000746570732F6D6D005A73746570732F6DE7
:101F10006D005973746570732F6D6D00597374651E
:101F200070732F6D6D005873746570732F6D6D0035
:101F30005873746570732F6D6D00412D74726176E6
:101F4000656C00412D74726176656C00412D72657F
:101F5000747261637400412D726574726163740000
:101F6000416D6178204500416D6178204500416DEB
:101F70006178205A00416D6178205A00416D617886
:101F8000205900416D6178205900416D61782058D9
:101F900000416D61782058005654726176206D6959
:101FA0006E005654726176206D696E00566D696ED2
:101FB00000566D696E00566D6178204500566D6162
:101FC00078204500566D6178205A00566D61782062
:101FD0005A00566D6178205900566D61782059007D
:101FE000566D6178205800566D617820580056650E
:101FF0002D6A65726B0056652D6A65726B00567AA4
:102000002D6A65726B00567A2D6A65726B00567880
:10201000792D6A65726B005678792D6A65726B004E
:10202000416363656C00416363656C00436F6E746C
:10203000726F6C0046696C2E204469612E2032005C
:1020400046696C2E204469612E20320046696C2E50
:10205000204469612E20310046696C2E204469615C
:102060002E2031004520696E206D6D33004F66666D
:10207000004F6E2000436F6E74726F6C0052657378
:10208000746F7265206661696C73616665004C6F80
:102090006164206D656D6F72790053746F72652095
:1020A0006D656D6F72790046696C616D656E740067
:1020B0004D6F74696F6E0054656D706572617475F3
:1020C0007265004D61696E00022E2E004D61696ED1
:1020D000004E6F2053442063617264005072696E39
:1020E000742066726F6D2053440053746F702070BB
:1020F00072696E7400526573756D65207072696ED9
:1021000074005061757365207072696E7400436F5E
:102110006E74726F6C0050726570617265005475F8
:102120006E6500496E666F2073637265656E0000B0
:10213000060900FE070192032120FFFF08FF07FFA9
:102140000000000600000107070602008080808072
:10215000800080030202060105A0A0050707060013
:10216000005050F850F8505005070706000020783E
:10217000A07028F020050707060000C0C810204006
:1021800098180507070600006090A040A890680214
:102190000303060104C04080030707060100204036
:1021A0008080804020030707060100804020202017
:1021B000408005050506000120A870A8200505053A
:1021C0000600012020F820200203030602FFC04081
:1021D00080050101060003F8020202060200C0C0E9
:1021E00005050506000108102040800507070600C8
:1021F000007088888888887003070706010040C03F
:1022000040404040E00507070600007088087080E5
:1022100080F8050707060000F81020100808F005F0
:10222000070706000010305090F810100507070649
:102230000000F880F00808887005070706000070A5
:102240008080F0888870050707060000F8081020D5
:102250002020200507070600007088887088887095
:1022600005070706000070888878080870020505D1
:10227000060200C0C000C0C00206060602FFC0C0C1
:1022800000C0408004070706000010204080402066
:1022900010050303060002F800F804070706010012
:1022A0008040201020408005070706000070880845
:1022B0001020002005070706000070880868A8A8FD
:1022C00070050707060000708888F8888888050769
:1022D00007060000F08888F08888F00507070600E8
:1022E0000070888080808870050707060000F088ED
:1022F00088888888F0050707060000F88080F0804D
:1023000080F8050707060000F88080F080808005CF
:102310000707060000708880B888887005070706E0
:102320000000888888F888888801070706020080EE
:10233000808080808080050707060000381010101C
:102340001090600507070600008890A0C0A0908844
:10235000050707060000808080808080F805070759
:1023600006000088D8A88888888805070706000026
:102370008888C8A89888880507070600007088889C
:1023800088888870050707060000F08888F080803C
:102390008005070706000070888888A890680507F0
:1023A00007060000F08888F0A0908805070706005F
:1023B00000788080700808F0050707060000F82004
:1023C00020202020200507070600008888888888AC
:1023D00088700507070600008888888888502005CF
:1023E00007070600008888888888A8500507070620
:1023F000000088885020508888050707060000885C
:10240000888850202020050707060000F8081020C3
:102410004080F8030707060100E08080808080E0AC
:102420000505050600018040201008030707060186
:1024300000E02020202020E00503030600042050B7
:1024400088050101060000F802020206020580402C
:10245000050505060000700878887805070706005E
:10246000008080B0C88888F00505050600007080EF
:102470008088700507070600000808689888887833
:102480000505050600007088F8807005070706003E
:10249000003048E0404040400506060600FF7088D6
:1024A000887808700507070600008080B0C8888813
:1024B0008801070706020080008080808080030872
:1024C000080601FF200020202020A0400407070666
:1024D0000000808090A0C0A090030707060100C004
:1024E0004040404040E0050505060000D0A8A8A8EF
:1024F000A8050505060000B0C888888805050506FA
:10250000000070888888700506060600FFF088883D
:10251000F080800506060600FF78888878080805A0
:102520000505060000B0C88080800505050600008E
:1025300070807008F00407070600004040E040404B
:10254000403005050506000088888898680505055F
:102550000600008888885020050505060000888848
:10256000A8A85005050506000088502050880506DB
:10257000060600FF888888780870050505060000B3
:10258000F8102040F8030707060100204040804073
:102590004020010707060200808080808080800341
:1025A00007070601008040402040408005020206E7
:1025B0000002689000000006000000000006000015
:1025C00000000006000000000006000000000006F9
:1025D00000000000000600000000000600000000EF
:1025E00000060000000000060000000000060000D9
:1025F00000000006000000000006000000000006C9
:1026000000000000000600000000000600000000BE
:1026100000060000000000060000000000060000A8
:102620000000000600000000000600000000000698
:10263000000000000006000000000006000000008E
:102640000006000000000006000000000006000078
:102650000000000600000000000600000000000668
:10266000000000000006000000000006000000005E
:102670000006000000000006000000000006000048
:102680000107070602008000808080808005070720
:102690000600002070A8A0A870200507070600000B
:1026A000304040E04050A805050506000088705005
:1026B0007088050707060000885020F820F82001E0
:1026C00007070602008080800080808005080806D9
:1026D000000030482050502090600301010601079F
:1026E000A0050707060000F888B8B8B888F80507FD
:1026F00007060001700878887800F80505050600CF
:10270000012850A05028050303060001F80808021C
:1027100002020602064080050707060000F888A8A6
:102720008898A8F8050101060006F80404040600CC
:1027300003609090600507070600002020F8202025
:1027400000F804050506000360902040F00305052D
:10275000060003E020E020E00202020602064080BC
:102760000508080600FF8888888898E880800507A3
:1027700007060000789898781818180202020602D6
:1027800002C0C00202020602FF40800305050600E7
:102790000340C04040E005070706000170888888B4
:1027A0007000F8050505060001A0502850A0050797
:1027B000070600008890A858B80808050707060013
:1027C000008890B848982038050808060000C040E6
:1027D000C048D83808080507070600002000204038
:1027E0008088700508080600004020007088F8887E
:1027F000880508080600001020007088F888880501
:1028000008080600002050007088F888880508082D
:102810000600006890007088F8888805080806009F
:10282000005000708888F888880508080600002095
:1028300050207088F888880507070600003860A0D7
:10284000B8E0A0B80508080600FF7088808088708E
:102850002060050808060000402000F880F080F89D
:10286000050808060000081000F880F080F8050848
:1028700008060000205000F880F080F805070706E1
:1028800000005000F880F080F8030808060100807E
:102890004000E0404040E0030808060100204000FE
:1028A000E0404040E003080806010040A000E0408E
:1028B0004040E0030707060100A000E0404040E080
:1028C000050707060000704848E8484870050808F2
:1028D00006000068900088C8A898880508080600C7
:1028E000004020708888888870050808060000105D
:1028F000207088888888700508080600002050002D
:102900007088888870050808060000689000708844
:10291000888870050808060000500070888888883C
:102920007005050506000188502050880508080636
:1029300000FF1070A8A8A8A87040050808060000AD
:1029400040208888888888700508080600001020C4
:10295000888888888870050808060000205000884C
:1029600088888870050808060000500088888888D4
:1029700088700508080600001020885020202020BC
:102980000509090600FFC040704848704040E00457
:1029900008080601FF609090A09090E0800508086C
:1029A00006000040200070087888780508080600B6
:1029B00000102000700878887805080806000020BC
:1029C00050007008788878050808060000689000B4
:1029D00070087888780507070600005000700878AE
:1029E000887805080806000020502070087888784C
:1029F000050606060000D02878A0A85005060606A1
:102A000000FF7080887020600508080600004020E4
:102A1000007088F88070050808060000102000701B
:102A200088F880700508080600002050007088F8BB
:102A3000807005070706000050007088F88070035A
:102A4000080806010080400040C04040E00308083C
:102A500006010020400040C04040E0030808060195
:102A60000040A00040C04040E0030707060100A06E
:102A70000040C04040E0050707060000A040A0104D
:102A8000788870050808060000689000B0C888883B
:102A900088050808060000402000708888887005B6
:102AA0000808060000102000708888887005080853
:102AB000060000205000708888887005080806000D
:102AC000006890007088888870050707060000502D
:102AD0000070888888700505050600012000F80050
:102AE000200507070600FF1070A8A8A87040050879
:102AF00008060000402000888888986805080806B5
:102B000000001020008888889868050808060000E2
:102B10002050008888889868050707060000500044
:102B200088888898680509090600FF1020008888B1
:102B300088F808700407070601FFC0406050604035
:102B4000E00508080600FF500088888878087000B3
:102B5000060900FE000000000001090008FE000058
:102B600005080806000040F0C88888987810050815
:102B700008060000C0F88888888888F805050506DA
:102B800000012030F830200508080600002070F809
:102B900020202020E00509090600FF2070A8A8B821
:102BA000888870200509090600FFE080C0B0A828C9
:102BB0003028280509090600FFF8A8888888888831
:102BC000A8F8050A0A0600FE205050505088A8A810
:102BD000887003030306000340A0400000000000CB
:102BE000000000000000007FFFE000000000000087
:102BF0000000000000007000E00000000000000085
:102C0000000000000061F86000000000000000000B
:102C10000000000041F8200000000000000000005B
:102C200000000040F0200000000000000000000054
:102C300000004060200000000000000000000000D4
:102C4000005801A07F80003FC00000000041040048
:102C50005C63A0FBC00079E0000000002082005E01
:102C6000F7A0F3C00076E0000000002082005EF7CD
:102C7000A0EBC0007EE0000000004104005C63A007
:102C80007B80003DC0000000008208005801A07B4E
:102C900080003BC000000001041000406020FBC029
:102CA0000077E00000000104100040F020FBC000AD
:102CB00070E00000000082080041F820FFC0007FA3
:102CC000E00000000041040061F8603F00001F8048
:102CD000000000000000007000E01E00000F000077
:102CE000000001FFFF807FFFE00C000006000000F5
:102CF0000001FFFF80000000000000000000000055
:102D0000000000007FFFE000000000000000000065
:102D10000000007000E00000000000000000000063
:102D20000000630C600000000000000000000000D4
:102D300000470E200000000000000000000000001E
:102D40004F0F200000000000000000000000005FA6
:102D50000FA00000000000000000000000005E075F
:102D6000A07F80003FC000000000410400406020C0
:102D7000FBC00079E00000000020820040F020F35A
:102D8000C00076E00000000020820040F020EBC090
:102D9000007EE0000000004104004060207B8000D5
:102DA0003DC0000000008208005E07A07B80003B61
:102DB000C0000000010410005F0FA0FBC00077E01E
:102DC000000000010410004F0F20FBC00070E00065
:102DD000000000820800470E20FFC0007FE00000D6
:102DE0000000410400630C603F00001F80000000F1
:102DF000000000007000E01E00000F000000000155
:102E0000FFFF807FFFE00C0000060000000001FFD4
:102E1000FF80000000FFFFFF800FFC0F81F80FFC18
:102E200000F81E0FFFFFFF800FFF0F83FE0FFF0351
:102E3000FE1E0FFFFFFF800FFF0F87FF0FFF07FF33
:102E40001F1FE00003800FFF8F8FFF0FFF87FF0F13
:102E50001EE00003800F8F8F8F8F8F8F8F8F8F1EBD
:102E6000E03E03800F8F8F8F8F8F8F8F8F87BCE017
:102E70003E03800F8F8F8F8F8F8F8F8F87BCE03EA9
:102E800003800F8F8F8F8F8F8F8F8F87FCE03E0394
:102E9000800FFF8F8F8F8FFF8F8F83F8E03E03802F
:102EA0000FFF0F8F800FFF0F8F83F8E01C03800F41
:102EB000FC0F8F800FFC0F8F83F8E00803800FFF5B
:102EC0000F8F9F8FFF0F8F83F8E00003800FFF8F1E
:102ED0008F9F8FFF8F8F83F8E00003800F8F8F8F7E
:102EE0009F8F8F8F8F87FCE00003800F8F8F8F8FD6
:102EF0008F8F8F8F87BCE00003800F8F8F8F8F8F16
:102F00008F8F8F87BCE00003800F8F8F8F8F8F8F05
:102F10008F8F873CE00003800F8F8F8F8F8F8F8F75
:102F20008F8F1EE00003800F8F8F8F8F8F8F8F8F7B
:102F30008F1EE00003800FFF8F8FFF8FFF87FF0F33
:102F40001EE00003800FFF8F87FF8FFF87FF1F1F8B
:102F5000E00003800FFF0F83FB8FFF03FE1E0FE0D7
:102F60000003800FFE0F81F38FFE00F81E0FE000BC
:102F700003800000000000000000000000E00003EB
:102F8000800000000000000000000000E00003805E
:102F90000000000000000000000000E7FFF38000D8
:102FA00000000000000000000000E7FFF3800000C8
:102FB000000000000000000000E0000380000000AE
:102FC0000000000000000000E0000380000000009E
:102FD00000000000000000E000038000000000008E
:102FE000000000000000FFFFFF8000000000000064
:102FF0000000000000FFFFFF800000000000000054
:1030000000000000FFFFFF80000000000000000043
:1030100000000000000A0B02090C0D0E0807030453
:10302000010000000000000000000000000000009F
:10303000000000000000000000000000000000127E
:10304000111000000000000000000000000000005F
:10305000000000000000000000010210202008080D
:1030600010204010204080020102010804020101EA
:1030700002040810204080804020100804020180D3
:10308000040201804020100804020108040201012A
:10309000020408102040800102040810204080052E
:1030A000050505070508080808020202020A0A08C1
:1030B00008040404040101010101010101030303E7
:1030C0000303030303040707070C0C0C0C0C0C0C84
:1030D0000C0202020206060606060606060B0B0B8B
:1030E0000B0B0B0B0B000020002300260029002CEB
:1030F000002F003200000100000301060109010059
:10310000002200250028002B002E00310034000290
:10311000010000050108010B010000210024002727
:10312000002A002D003000330001010000040107D7
:10313000010A014E414E494E495459494E46CDCCA3
:10314000CC3D0AD7233C17B7D13877CC2B32959595
:10315000E6241FB14F0A000020410000C842004091
:103160001C4620BCBE4CCA1B0E5AAEC59D74796469
:10317000AF6497DC3DDD816411241FBECFEFD1E247
:10318000DEBFCDBF00E00CBF14E0A0E0B2E0E6E798
:10319000F5EE01E00BBF02C007900D92A637B10714
:1031A000D9F727E1A6E7B4E001C01D92A035B20728
:1031B000E1F711E3C6E7D1E300E006C02297010979
:1031C000FE010BBF0E9475ECCE36D10780E00807E8
:1031D000A9F70E9424E70C94AAF20C940000452B56
:1031E000C1F020910A01206220930A013FB7F894B0
:1031F00020910B01206220930B013FBF0E94F0E45D
:103200009FB7F89480910B018F7D80930B019FBF36
:1032100008950C94F0E4FC01148217821382128248
:1032200080ED93E091838083089520ED33E0FC01ED
:10323000318320832781222319F004960C94C97DC1
:103240000895CF92DF92EF92FF920F931F93CF9347
:10325000DF93EC018F96DFDFCE01805B9F4FDBDFDA
:103260007E012FE6E20EF11C87016E013BE5C31AD9
:103270003EEFD30AC801CFDF015E1F4F0C151D05BD
:10328000C9F7FE01EA55FE4F89E181831482359624
:10329000178ACE0187539E4FBEDFFE01E658FD4FD1
:1032A000108211821282138234961082118212824D
:1032B00013821A821B8218821982F8011082FE0181
:1032C000E851FE4F108286E391E0F7019C011192D4
:1032D00021503040E1F7FE01EA57FD4F81E0808345
:1032E0001EA61DA60E94C1E4CE57DD4F68577C4E36
:1032F0008F4F9F4F688379838A839B83DF91CF9120
:103300001F910F91FF90EF90DF90CF900895FC01F7
:1033100020E03EE2DB014C91403241F0283011F4D4
:1033200030833196DB014C91408331962F5F6F5F84
:103330007F4F2B3079F7108208952F923F924F9252
:103340005F926F927F928F929F92AF92BF92CF9235
:10335000DF92EF92FF920F931F93CF93DF93CDB73E
:10336000DEB7C657D1090FB6F894DEBF0FBECDBF8A
:103370008C016B015A0129012DB73EB7E3963FAF8F
:103380002EAFE397AD961FAEAD9734E0A30EB11C00
:103390004296E5969FAF8EAFE597180199E7291AF7
:1033A0009DEF390AF801E757FD4FAF96FFAFEEAF3B
:1033B000AF973801F5E06F0E711C7E012FE5E20E2C
:1033C000F11C80E490E08C0F9D1F0496E7969FAF60
:1033D0008EAFE797E5964EAD5FADE597BE016F5FA7
:1033E0007F4FC5010E942F7C18160CF041C12C851F
:1033F000322F3871303109F0BCC0F10180819181E8
:103400000197029708F4B5C02DB73EB7E1963FAFDC
:103410002EAFE197BE016F5F7F4FC70178DF81E07C
:10342000F601908191119DC0E1E0F0E0D7010D908F
:103430000020E9F7EE19FF09EA0FFB1F31962DB7BF
:103440003EB72E1B3F0B0FB6F8943EBF0FBE2DBFED
:10345000EDB7FEB731964F01882319F063E073E0B2
:1034600001C0B601C4010E94ABEFB701C4010E94C4
:103470008CEF63E073E0C4010E948CEFCE01805CAE
:103480009F4FC9DE21E0A701B501E7968EAD9FAD44
:10349000E7970E94C07F811137C0F101808191813F
:1034A000892B91F5EDE6FFE08491882341F090911E
:1034B000C00095FFFCCF8093C6003196F5CFE5E0C4
:1034C000F3E08191882339F09091C00095FFFCCF03
:1034D0008093C600F6CF8091C00085FFFCCF8AE0C4
:1034E0008093C600F7018191882339F09091C00044
:1034F00095FFFCCF8093C600F6CF8091C00085FF7A
:10350000FCCF8AE08093C6008BE1FE01EC5BFF4FAD
:10351000DE01959601900D928A95E1F724968EAD85
:103520009FAD24979CA38BA380ED93E09AA389A3DE
:1035300020E030E0AE014F5D5F4FB401C801FDDE19
:10354000CE01819672DECE01805C9F4F6EDEE196E9
:103550002EAD3FADE1970FB6F8943EBF0FBE2DBF25
:1035600039CF80E001900020E9F73197EC19FD098F
:103570005DCF8981882309F47BC0853E09F42ACF79
:103580008E3209F427CFF80182898E3209F422CFD6
:1035900023FD20CF81E0303109F080E0F801848301
:1035A000811108C08985873409F014CF8A858E3748
:1035B00009F410CFF101808191818130910569F08A
:1035C0008230910581F1892B09F004CFBE016F5F34
:1035D0007F4FC3019CDEF60110C0AF96EEADFFAD8C
:1035E000AF9780819181019691838083F3CE9091F2
:1035F000C00095FFFCCF8093C60081918111F7CF69
:10360000F3018191882339F09091C00095FFFCCFA0
:103610008093C600F6CF8091C00085FFFCCF8AE082
:103620008093C600D7CEBE016F5F7F4FC3016FDEB0
:103630004114510439F0B301C2010E9479EF892B82
:1036400079F416C0AD96FFADAD972F2F30E0AF9651
:10365000EEADFFADAF97808191812817390741F01A
:10366000AD96FFADAD97FF5FAD96FFAFAD97B2CE14
:10367000E3962EAD3FADE3970FB6F8943EBF0FBE75
:103680002DBFCA58DF4F0FB6F894DEBF0FBECDBFB7
:10369000DF91CF911F910F91FF90EF90DF90CF902E
:1036A000BF90AF909F908F907F906F905F904F9062
:1036B0003F902F900895EF92FF920F931F93CF9317
:1036C000DF93CDB7DEB76F970FB6F894DEBF0FBEAE
:1036D000CDBF8C01FC01E957FD4F118210827C01A6
:1036E00083E3E80EF11C40E050E0BA01C7010E94FC
:1036F000E67C8BE1F701DE01159601900D928A952B
:10370000E1F7F80181A992A99C838B8380ED93E076
:103710009A83898320E030E0AE014F5F5F4F67EE10
:1037200073E0C8010ADECE0101967FDD6F960FB609
:10373000F894DEBF0FBECDBFDF91CF911F910F91E7
:10374000FF90EF900895EF92FF920F931F93CF9306
:10375000DF93EC011B828EA9882321F0CE01C39652
:103760000E94C97D7E018AE5E81A8EEFF80A45E3DA
:1037700060E0C7010E94467881111FC0EDE6FFE0BE
:103780008491882341F09091C00095FFFCCF8093F5
:10379000C6003196F5CFE8E7F3E08491882341F045
:1037A0009091C00095FFFCCF8093C6003196F5CF75
:1037B0008091C00085FFFCCF76C08E0105551E4F5D
:1037C00041E0B701C8010E94CA85811126C040E0CE
:1037D000B701C8010E94CA8581111FC0E3E7FFE05D
:1037E0008491882341F09091C00095FFFCCF809395
:1037F000C6003196F5CFE5E6F3E08491882341F0E9
:103800009091C00095FFFCCF8093C6003196F5CF14
:103810008091C00085FFFCCF46C0B801CE01C396A1
:103820000E94D37A81111FC0E3E7FFE084918823CF
:1038300041F09091C00095FFFCCF8093C600319677
:10384000F5CFE5E5F3E08491882341F09091C00045
:1038500095FFFCCF8093C6003196F5CF8091C000D4
:1038600085FFFCCF20C081E08B83EDE6FFE08491F3
:10387000882341F09091C00095FFFCCF8093C60053
:103880003196F5CFEAE4F3E08491882341F09091FA
:10389000C00095FFFCCF8093C6003196F5CF809194
:1038A000C00085FFFCCF8AE08093C600CE01805B1C
:1038B0009F4F2BE1FE01F396DC01149601900D92CF
:1038C0002A95E1F729A93AA9FC013383228332978B
:1038D000AF96D183C083DF91CF911F910F91FF905D
:1038E000EF900895FC01128213820895CF92DF9227
:1038F000EF92FF920F931F93CF93DF93CDB7DEB775
:10390000CDB6DEB6FB0101900020E9F7E61BF70B10
:1039100034968DB79EB78E1B9F0B0FB6F8949EBF43
:103920000FBE8DBF0DB71EB70F5F1F4F7F936F93F5
:1039300083E493E09F938F931F930F930E94CFEFA5
:10394000780194E0E90EF11C0F900F900F900F900A
:103950000F900F90F7018081882349F0992787FD08
:1039600090950E941AEFF70181937F01F3CF60E0F9
:10397000C8010E94B0338FE393E00E9455340FB624
:10398000F894DEBE0FBECDBEDF91CF911F910F9197
:10399000FF90EF90DF90CF900895FC0123812223C8
:1039A00011F021E022830895FC012281211112826D
:1039B0000895AF92BF92CF92DF92EF92FF920F9352
:1039C0001F93CF93DF931F92CDB7DEB78C018FE2A9
:1039D000FB0181935F01D12C21E07801FBE5EF1A17
:1039E000FEEFFF0A8FE1C82EF7018081D816C8F4D8
:1039F000B501C801CD9C800D911D11248D589F4F9C
:103A000029830E947A7AC50129815C010196F5011A
:103A10003081332321F02D3810F42F5FF6CFD3946B
:103A2000E3CF27FD11C0B501C80183539E4F0F900E
:103A3000DF91CF911F910F91FF90EF90DF90CF908A
:103A4000BF90AF900C947A7AF50110820F90DF91BD
:103A5000CF911F910F91FF90EF90DF90CF90BF908B
:103A6000AF9008953F924F925F926F927F928F92A4
:103A70009F92AF92BF92CF92DF92EF92FF920F93FD
:103A80001F93CF93DF93CDB7DEB7AC970FB6F89403
:103A9000DEBF0FBECDBF7C015B01FC0183818823AB
:103AA00009F4EDC0C70183539E4F0E94C97DF70101
:103AB0001282CE0101966C01AEDB27019EE4490E15
:103AC000511CC7018F96F20191838083F50180819B
:103AD0008F3209F077C06FE270E0C5010E9497EF66
:103AE0008C010F5F1F4F9AE0392E0115110509F463
:103AF0006FC06FE270E0C8010E9497EF4C01009721
:103B000009F467C00817190708F063C03C01601A80
:103B1000710AA301B801CE0180960E94C0EFE0E2D5
:103B2000F0E0EC0FFD1FE60DF71D1082FE01B096D0
:103B30008191882339F09091C00095FFFCCF80934C
:103B4000C600F6CF8091C00085FFFCCF3092C60042
:103B5000F201608171816115710519F06C5F7F4F11
:103B600002C060E070E021E0AE01405E5F4FCE0138
:103B700005960E94C07F81111EC0EBE1F2E08491A6
:103B8000882341F09091C00095FFFCCF8093C60040
:103B90003196F5CFFE01B0968191882339F090914E
:103BA000C00095FFFCCF8093C600F6CF8091C00087
:103BB00085FFFCCF5FC0F201D182C08284010F5F1C
:103BC0001F4F93CFC701805B9F4FF201918380838A
:103BD0008501F20180819181009711F0049602C065
:103BE00080E090E0B8010E949680811103C0E5EF6B
:103BF000F1E02EC0EDE0F2E08491882341F0909155
:103C0000C00095FFFCCF8093C6003196F5CFF80138
:103C10008191882339F09091C00095FFFCCF80936B
:103C2000C600F6CF8091C00085FFFCCF8AE080936C
:103C3000C600F701E258FD4F1082118212821382F2
:103C40001CC09091C00095FFFCCF8093C6003196B8
:103C500084918111F6CFF8018191882339F09091F8
:103C6000C00095FFFCCF8093C600F6CF8091C000C6
:103C700085FFFCCF8EE28093C600C601D6DAAC96F3
:103C80000FB6F894DEBF0FBECDBFDF91CF911F916D
:103C90000F91FF90EF90DF90CF90BF90AF909F90EB
:103CA0008F907F906F905F904F903F900895CF934B
:103CB000DF93EC018B81811103C0E3EDF1E039C0AA
:103CC000E3EEF1E08491882341F09091C00095FFEC
:103CD000FCCF8093C6003196F5CFFE01E258FD4F30
:103CE00040815181628173812AE030E086E794E06F
:103CF0000E94DB318091C00085FFFCCF8FE2809372
:103D0000C600C658DD4F488159816A817B812AE00F
:103D100030E086E794E00E94DB318091C00085FFAF
:103D2000FCCF0EC09091C00095FFFCCF8093C600E1
:103D3000319684918111F6CF8091C00085FFFCCF30
:103D40008AE08093C600DF91CF910895AF92BF9231
:103D5000CF92DF92EF92FF920F931F93CF93DF9357
:103D60005C01EB01FB0101900020E9F78F0101509C
:103D70001109061B170B6C01F3E3CF1AFEEFDF0AE4
:103D8000F60110826EE470E0CE010E9497EF7C0194
:103D9000009729F4F8013197EC0FFD1F0DC060E288
:103DA00070E00E9497EFEC0121966AE270E0C70193
:103DB0000E9497EFFC0131978DE081838AE0828336
:103DC0001382BE01C50187539E4F0E947382F60184
:103DD0008081882309F1E3E7FFE08491882341F0A3
:103DE0009091C00095FFFCCF8093C6003196F5CF2F
:103DF000EDEBF1E08491882341F09091C00095FFB4
:103E0000FCCF8093C6003196F5CF8091C00085FF2E
:103E1000FCCF8AE08093C600DF91CF911F910F9174
:103E2000FF90EF90DF90CF90BF90AF9008956F928A
:103E30007F928F929F92AF92BF92CF92DF92EF923A
:103E4000FF920F931F93CF93DF93CDB7DEB7AA975F
:103E50000FB6F894DEBF0FBECDBF8C018A579D4FC1
:103E60007C01611114C0FC018081882309F498C091
:103E70000E94C1E4F801EE57FD4F80809180A2803E
:103E8000B380681979098A099B0997FF89C0F701EE
:103E90001082F8018381811107C0C80154DCF80148
:103EA0008381882309F47CC0F80186A58F9385A5BA
:103EB0008F9384EB91E09F938F937E01F1E2EF0E5D
:103EC000F11CFF92EF920E94CFEF0F900F900F9096
:103ED0000F900F900F90B12CF70101900020E9F79F
:103EE0003197EE19FF09BE1684F46701CB0CD11C83
:103EF000B7FCDA94F6018081992787FD90950E949E
:103F00001AEFF6018083B394E7CF4801F3E38F0EF5
:103F1000911C40E050E0BA01C4010E94E67C612C93
:103F2000CE0101965C0140E050E0B501C4010E9461
:103F30002F7C18164CF5712CF50101900020E9F743
:103F40003197EA19FB097E1674F46501C70CD11C80
:103F500077FCDA94F601808190E00E941AEFF60176
:103F600080837394E9CF8A858E37E9F245E050E08B
:103F7000B701C5010E94B2EF892BA9F6B701C801AC
:103F8000B5DC66246394CFCF611004C08FEF9FEF40
:103F9000F80104C0F80185A596A5019696A785A706
:103FA000AA960FB6F894DEBF0FBECDBFDF91CF91BA
:103FB0001F910F91FF90EF90DF90CF90BF90AF9047
:103FC0009F908F907F906F9008950F931F93CF9342
:103FD000DF93EC018C0103531E4FC8010E947F7DCB
:103FE000C8010E94C97D19821882DF91CF911F916B
:103FF0000F910895CF92DF92EF92FF920F931F934C
:10400000CF93DF93CDB7DEB76F970FB6F894DEBFCF
:104010000FBECDBF8C016A017C018EE4E80EF11C5D
:10402000C801805B9F4FF70191838083E75CFD4F60
:1040300022E030E03183208332967183608340E058
:1040400050E0BA0104960E94E67CF70180819181DC
:104050002BE1FC013496DE01159601900D922A9514
:10406000E1F7FC01828193819C838B8380ED93E057
:104070009A8389839601AE014F5F5F4F67EE73E0CD
:10408000C8015BD9CE010196D0D86F960FB6F894CF
:10409000DEBF0FBECDBFDF91CF911F910F91FF907B
:1040A000EF90DF90CF9008952F923F924F925F92C2
:1040B0006F927F928F929F92AF92BF92CF92DF9238
:1040C000EF92FF920F931F93CF93DF93CDB7DEB79D
:1040D000AC970FB6F894DEBF0FBECDBF8C016B015D
:1040E000342EFC018381882309F4CDC2E053FE4FB6
:1040F0008081882309F4FAC0211103C0EDE6FFE0B6
:10410000CDC07801F8E1EF1AFEEFFF0AF7018081D8
:10411000811103C0EDE6FFE035C0E3E7FFE08491E5
:10412000882341F09091C00095FFFCCF8093C6009A
:104130003196F5CFECEFF2E08491882341F0909135
:10414000C00095FFFCCF8093C6003196F5CF4AE0C2
:1041500050E061E070E086E794E00E94AF3180912A
:10416000C00085FFFCCF8AE08093C60083EF92E019
:104170000E94BA5788C29091C00095FFFCCF8093EF
:10418000C600319684918111F6CFEAEDF2E0849178
:10419000882341F09091C00095FFFCCF8093C6002A
:1041A0003196F5CFF6018191882339F09091C000C6
:1041B00095FFFCCF8093C600F6CFEFECF2E0849140
:1041C000882341F09091C00095FFFCCF8093C600FA
:1041D0003196F5CFF70180813DE8B32EB801B89E46
:1041E000600D711D112463517E4FC801E2DBF701A0
:1041F0008081F801B89EE00DF11D1124E351FE4FBE
:104200008191882339F09091C00095FFFCCF809375
:10421000C600F6CFE9ECF2E08491882341F090915A
:10422000C00095FFFCCF8093C6003196F5CF5801B2
:10423000F2E8AF1AFDEFBF0AF501408151816281BA
:1042400073812AE030E086E794E00E94DB318091C0
:10425000C00085FFFCCF8AE08093C600F701208173
:10426000F80184E0289FE00DF11D1124AF014751B2
:104270005E4FF50180819181A281B381FA01808333
:104280009183A283B3832F5FF701208329C090918C
:10429000C00095FFFCCF8093C600319684918111B8
:1042A000F6CFE8EBF2E08491882341F09091C000D2
:1042B00095FFFCCF8093C6003196F5CFF601819132
:1042C000882339F09091C00095FFFCCF8093C60001
:1042D000F6CF8091C00085FFFCCF8AE08093C600B6
:1042E000C80183539E4F0E94C97D30C0F801E85138
:1042F000FE4F1082EDE6FFE08491882341F090911B
:10430000C00095FFFCCF8093C6003196F5CFE7EA59
:10431000F2E08491882341F09091C00095FFFCCF9A
:104320008093C6003196F5CFF6018191882339F04C
:104330009091C00095FFFCCF8093C600F6CF80918E
:10434000C00085FFFCCF8AE08093C600F80112828E
:10435000CE0101965C010E940B1928019EE4490ED2
:10436000511CC8018F96F20191838083F6018081F0
:104370008F3209F077C07601FFEFEF1AFF0A2AE0CB
:10438000222EE114F10409F473C06FE270E0C7015A
:104390000E9497EF4C01009709F46BC0E816F906EC
:1043A00008F067C03C016E187F08A301B701CE0179
:1043B00080960E94C0EFE0E2F0E0EC0FFD1FE60DFA
:1043C000F71D1082FE01B0968191882339F09091FB
:1043D000C00095FFFCCF8093C600F6CF8091C0004F
:1043E00085FFFCCF2092C600F201608171816115CA
:1043F000710519F06C5F7F4F02C060E070E021E052
:10440000AE01405E5F4FCE0105960E94C07F8111D4
:1044100021C0E3E9F2E08491882341F09091C0004B
:1044200095FFFCCF8093C6003196F5CFFE01B09684
:104430008191882339F09091C00095FFFCCF809343
:10444000C600F6CF8091C00085FFFCCF8EE280933E
:10445000C60016C1F201B182A0827401FFEFEF1A0B
:10446000FF0A8FCFC801805B9F4FF2019183808349
:104470007601C80183539E4F4C01F2016081718126
:10448000332009F4A3C06115710519F06C5F7F4FEB
:1044900002C060E070E021E0A701C4010E94C07F7B
:1044A000811103C0EBE5F2E075C0980126583D4F3D
:1044B000F40181899289A389B489F9018083918368
:1044C000A283B383E5E8F2E08491882341F09091E0
:1044D000C00095FFFCCF8093C6003196F5CFF70161
:1044E0008191882339F09091C00095FFFCCF809393
:1044F000C600F6CFEDE7F2E08491882341F0909179
:10450000C00095FFFCCF8093C6003196F5CFF9012E
:1045100040815181628173812AE030E086E794E036
:104520000E94DB318091C00085FFFCCF8AE0809340
:10453000C600F801E258FD4F1082118212821382E8
:10454000EFE6F2E08491882341F09091C00095FF5E
:10455000FCCF8093C6003196F5CF8091C00085FFD7
:10456000FCCF8AE08093C600A70160E070E0C8013C
:1045700041DDF8018289882319F0C801429601C003
:10458000C70160E07BC09091C00095FFFCCF809395
:10459000C600319684918111F6CFF701819188236D
:1045A00039F09091C00095FFFCCF8093C600F6CF04
:1045B000E8E5F2E08491882309F462C09091C0009C
:1045C00095FFFCCF8093C6003196F4CF611571053D
:1045D00019F06C5F7F4F02C060E070E026E5A70134
:1045E000C4010E94C07F811125C0E4E4F2E08491FF
:1045F000882341F09091C00095FFFCCF8093C600C6
:104600003196F5CFF7018191882339F09091C00060
:1046100095FFFCCF8093C600F6CFE1E4F2E08491F1
:10462000882371F19091C00095FFFCCF8093C60064
:104630003196F5CF81E0F8018083EFE2F2E08491DA
:10464000882341F09091C00095FFFCCF8093C60075
:104650003196F5CFF6018191882339F09091C00011
:1046600095FFFCCF8093C600F6CF8091C00085FFF8
:10467000FCCF8AE08093C60060E0C7010E941FB8AB
:10468000C5010E941519AC960FB6F894DEBF0FBE97
:10469000CDBFDF91CF911F910F91FF90EF90DF90F1
:1046A000CF90BF90AF909F908F907F906F905F90D2
:1046B0004F903F902F90089521E0FC01218320E04E
:1046C00040E0F2CCCF92DF92EF92FF920F931F93D4
:1046D000CF93DF93CDB7DEB76F970FB6F894DEBFF9
:1046E0000FBECDBF8C016C012EE4C20ED11C805BCD
:1046F0009F4FF60191838083E75CFD4F21E030E01E
:10470000318320837801F7E7EF1AFDEFFF0AF70105
:104710001182108240E050E0BA0104960E94E67CCB
:10472000F601808191812BE1FC013496DE01159622
:1047300001900D922A95E1F7FC01828193819C837F
:104740008B8380ED93E09A83898320E030E0AE0193
:104750004F5F5F4F67EE73E0C8010E949D19CE0165
:1047600001960E941519F701808191816F960FB60D
:10477000F894DEBF0FBECDBFDF91CF911F910F9197
:10478000FF90EF90DF90CF900895AF92BF92CF92BD
:10479000DF92EF92FF920F931F93CF93DF93CDB7EA
:1047A000DEB76F970FB6F894DEBF0FBECDBF8C019A
:1047B0005B01CE0101960E940B19F801E95AFF4FE7
:1047C00080817801811104C02FE2E20EF11C03C048
:1047D00030E5E30EF11C670144E0C40ED11C21E07A
:1047E000A501B601CE0105960E94C07F81112DC0A2
:1047F000EDE6FFE08491882341F09091C00095FFA1
:10480000FCCF8093C6003196F5CFEEE9F1E08491BC
:10481000882341F09091C00095FFFCCF8093C600A3
:104820003196F5CFF5018191882339F09091C00040
:1048300095FFFCCF8093C600F6CF8091C00085FF26
:10484000FCCF8AE08093C60030C0F801EB55FE4FE4
:1048500080818A30D0F491E0980F9083F8012FE1A5
:10486000829FE00DF11D1124CF0181599F4F2BE153
:10487000F601DC01149601900D922A95E1F7F701FB
:1048800022813381FC0133832283005B1F4F8BE144
:10489000FE013596D801149601900D928A95E1F7A4
:1048A0008B819C81F80193838283CE0101960E94C3
:1048B00015196F960FB6F894DEBF0FBECDBFDF910E
:1048C000CF911F910F91FF90EF90DF90CF90BF900D
:1048D000AF900895CF93DF93FC01EB55FE4F2081FD
:1048E0002223D1F021502083EC013FE1239FC00D12
:1048F000D11D1124C159DF4F805B9F4F2BE1FE0179
:104900003496DC01149601900D922A95E1F72A81E4
:104910003B81FC0133832283DF91CF910895EF9295
:10492000FF920F931F93CF93DF93EC010E94AF8F01
:104930008E0108511E4FF80180819E0123533E4F86
:1049400079018823A1F1C9010E94C97DF801808104
:1049500081508083BE01FDE88F9F600D711D112481
:1049600063517E4F21E041E0CE019EDBF801808162
:10497000FE0124E0829FE00DF11D1124E751FE4F5E
:104980004081518162817381FE01E258FD4F408375
:10499000518362837383C7010E94E67CCE01DF915D
:1049A000CF911F910F91FF90EF900C94CD1CC901F6
:1049B0000E94C97D1A8282E991E00E94553480915B
:1049C000320F882349F11092320F0091950510E0C3
:1049D000E801CC0FDD1FC755DC4E6881798188273F
:1049E00077FD8095982F0E94DDE82091400230915C
:1049F000410240914202509143020E943EEA181641
:104A00005CF419821882C801DF91CF911F910F9138
:104A1000FF90EF900C942198DF91CF911F910F910F
:104A2000FF90EF900895AF92BF92DF92EF92FF92C6
:104A30000F931F93CF93DF931F92CDB7DEB78C01F7
:104A40005B01460F8AE0D82E4A1509F43BC0750178
:104A5000F50161915F01F8018081918149830E9494
:104A6000F3F1F801808191810E94EBF1F7019081CF
:104A70004981891701F1EDE6FFE08491882341F037
:104A80009091C00095FFFCCF8093C6003196F5CF82
:104A9000E7E8F6E08491882341F09091C00095FF0B
:104AA000FCCF8093C6003196F5CF8091C00085FF82
:104AB000FCCFD092C600F80180819181019691834C
:104AC0008083C2CF0F90DF91CF911F910F91FF9004
:104AD000EF90DF90BF90AF900895EF92FF920F9309
:104AE0001F93CF93DF931F92CDB7DEB78C017B016D
:104AF000460FF8018081918149830E94EBF1F70113
:104B000081937F01F8018081918101969183808357
:104B100049814E11EECF0F90DF91CF911F910F91F0
:104B2000FF90EF900895CF92DF92EF92FF920F9354
:104B30001F93CF93DF93CDB7DEB769970FB6F89485
:104B4000DEBF0FBECDBF1D861E861F86188A80E37E
:104B500090E3A0E3B0E089879A87AB87BC8784E6BF
:104B600090E09E8B8D8B44E0BE01675F7F4FCE014E
:104B7000459659DF40E163E77FE0CE01459653DF7C
:104B800040E163E87FE0CE0145964DDF40E163E61A
:104B90007FE0CE01459647DF44E06BE57FE0CE0144
:104BA000459641DF44E067E57FE0CE0145963BDF77
:104BB00044E063E57FE0CE01459635DF44E06FE5F4
:104BC0007FE0CE0145962FDF44E063E47FE0CE0135
:104BD000459629DF44E063E97FE0CE01459623DF77
:104BE00044E06FE47FE0CE0145961DDF44E06BE4D6
:104BF0007FE0CE01459617DF44E067E47FE0CE0119
:104C0000459611DF4CE064EA75E0CE0145960BDF76
:104C100083E0888F8F8B41E06DE07AE0CE0145968E
:104C200002DF44E06EE07AE0CE014596FCDE41E032
:104C3000BE01685E7F4FCE014596F5DE41E0BE01C4
:104C4000695E7F4FCE014596EEDE44E262E17AE096
:104C5000CE014596E8DE1D821E821F82188644E042
:104C6000BE016B5F7F4FCE014596DDDE1D861E8641
:104C70001F86188A1AE0115041F044E0BE01635FBC
:104C80007F4FCE014596CFDEF6CF42E06AE776E170
:104C9000CE014596C8DE42E068E776E1CE01459652
:104CA000C2DE42E066E776E1CE014596BCDE42E038
:104CB00064E776E1CE014596B6DE42E062E776E152
:104CC000CE014596B0DE42E060E776E1CE01459642
:104CD000AADEC12C90E8D92E9BE3E92E95E4F92EAB
:104CE0001230C8F444E067E672E0CE0145969BDEE0
:104CF00044E063E672E0CE01459695DE44E06FE560
:104D000072E0CE0145968FDE44E06BE572E0CE01A5
:104D1000459689DE1AC0CD86DE86EF86F88A44E0A5
:104D2000BE01635F7F4FCE0145967DDE1D861E86E8
:104D30001F86188A04E0015041F044E0BE01635F21
:104D40007F4FCE0145966FDEF6CF1F5F143041F6E0
:104D500042E06DE072E0CE01459665DE44E063E737
:104D600072E0CE0145965FDE44E06FE672E0CE0170
:104D7000459659DE44E06BE672E0CE01459653DE7F
:104D800080E290E09C8B8B8B42E0BE016D5E7F4F9A
:104D9000CE01459648DE80E090E0A0E8BFE38D8735
:104DA0009E87AF87B88B44E0BE01635F7F4FCE0123
:104DB000459639DE41E06CEB75E0CE01459633DE79
:104DC00009E212E020E0223048F4F801808191816C
:104DD000A281B3818D879E87AF87B88B44E0BE01E7
:104DE000635F7F4FCE014596298F1DDE298D2F5F92
:104DF0000C5F1F4F243039F786E592E3A3E3B0E060
:104E000089839A83AB83BC8384E690E09A8B898BF9
:104E100044E0BE016F5F7F4FCE01419604DEEDE6B8
:104E2000FFE08491882341F09091C00095FFFCCF72
:104E30008093C6003196F5CF6D897E8985E796E02F
:104E40000E943D33EDE6F6E08491882341F0909195
:104E5000C00095FFFCCF8093C6003196F5CF8091BE
:104E6000C00085FFFCCF8AE08093C60069960FB62C
:104E7000F894DEBF0FBECDBFDF91CF911F910F9190
:104E8000FF90EF90DF90CF900895AF92BF92DF92A6
:104E9000EF92FF920F931F93CF93DF93CDB7DEB7BF
:104EA000E0970FB6F894DEBF0FBECDBF80E1EDEC0A
:104EB000F2E0DE01919601900D928A95E1F780E192
:104EC000EDEDF2E0DE01519601900D928A95E1F749
:104ED00080E1EDEEF2E0DE01119601900D928A95EF
:104EE000E1F77E0181E2E80EF11C03E71FE0BE015D
:104EF0006F5E7F4F43E85FE09E012F5F3F4FE3E629
:104F0000AE2EEFE0BE2ED12CF70181919191A191AF
:104F1000B1917F01F80181939193A193B1938F0196
:104F2000FB0181919191A191B191BF01FA0181930E
:104F30009193A193B193AF01F90181919191A191C5
:104F4000B1919F01F50181939193A193B1935F0179
:104F5000D394F4E0DF12D8CF0E940D7780E090E088
:104F6000A1EEB3E480935B0F90935C0FA0935D0F71
:104F7000B0935E0F40E050E46CE975E44093570F46
:104F80005093580F6093590F70935A0F8093530F9B
:104F90009093540FA093550FB093560F10925F0F3C
:104FA0001092600F1092610F1092620F80E29EE4E7
:104FB000A0E0B0E08093930F9093940FA093950F8F
:104FC000B093960F1092430F1092440F1092450F1A
:104FD0001092460F80E090E0A0E0B1E480934F0F84
:104FE0009093500FA093510FB093520F8DEC9CEC07
:104FF000ACECBEE380934B0F90934C0FA0934D0FFE
:10500000B0934E0F80E090E0A0EAB0E48093470FA9
:105010009093480FA093490FB0934A0F1092AC059C
:105020001092AD051092AE051092AF051092A80532
:105030001092A9051092AA051092AB051092A40532
:105040001092A5051092A6051092A70510920D0AC0
:105050008CED90E090937B1680937A168CE390E031
:105060009093791680937816109277161092761690
:1050700080EF90E0909375168093741688E790E027
:105080009093731680937216109271161092701688
:105090008AE999E9A9EEB1E48093670290936802E6
:1050A000A0936902B0936A0269E27CE587E990E423
:1050B0000E94CFA2609363027093640280936502A2
:1050C000909366026CEE71E585E392E40E94DBA2A8
:1050D00060935F027093600280936102909362021A
:1050E00080E090E0A8ECB2E480935B0290935C02D5
:1050F000A0935D02B0935E0284E190E090930E0273
:1051000080930D020E94869280E090E0A8EAB3E4CA
:105110008093730290937402A0937502B093760209
:1051200060E070E084E792E40E94CFA260936F0297
:1051300070937002809371029093720263E373E341
:1051400087EE93E40E94DBA260936B0270936C0283
:1051500080936D0290936E021092BC0580E090E007
:10516000A0E4B0E48093290290932A02A0932B023A
:10517000B0932C0280932D0290932E02A0932F02C5
:10518000B09330020E94765EEDE6FFE084918823C2
:1051900041F09091C00095FFFCCF8093C6003196FE
:1051A000F5CFE6E2F6E08491882341F09091C000CB
:1051B00095FFFCCF8093C6003196F5CF8091C0005B
:1051C00085FFFCCF8AE08093C600E0960FB6F89486
:1051D000DEBF0FBECDBFDF91CF911F910F91FF902A
:1051E000EF90DF90BF90AF9008956F927F928F9273
:1051F0009F92AF92BF92CF92DF92EF92FF920F9366
:105200001F93CF93DF93782E882389F14091730FFA
:105210005091740F6091750F7091760F8EE096E04B
:105220000E944E334091770F5091780F6091790F23
:1052300070917A0F8BE096E00E944E3340917B0F85
:1052400050917C0F60917D0F70917E0F88E096E009
:105250000E944E3340917F0F5091800F6091810FDB
:105260007091820F85E096E00E944E332FC0EDE6EC
:10527000FFE08491882341F09091C00095FFFCCF1E
:105280008093C6003196F5CFE6E1F6E0849188235D
:1052900041F09091C00095FFFCCF8093C6003196FD
:1052A000F5CF8091C00085FFFCCF8AE08093C600D7
:1052B000EDE6FFE08491882309F4A8CF9091C00027
:1052C00095FFFCCF8093C6003196F4CF8091C0004B
:1052D00085FFFCCF8AE08093C600772089F140915A
:1052E000830F5091840F6091850F7091860F82EE2D
:1052F00095E00E944E334091870F5091880F609146
:10530000890F70918A0F8FED95E00E944E33409186
:105310008B0F50918C0F60918D0F70918E0F8CEDD3
:1053200095E00E944E3340918F0F5091900F609105
:10533000910F7091920F89ED95E00E944E332FC02E
:10534000EDE6FFE08491882341F09091C00095FF45
:10535000FCCF8093C6003196F5CFEBEEF5E084915B
:10536000882341F09091C00095FFFCCF8093C60048
:105370003196F5CF8091C00085FFFCCF8AE0809305
:10538000C600EDE6FFE08491882309F4A8CF909150
:10539000C00095FFFCCF8093C6003196F4CF80917A
:1053A000C00085FFFCCF8AE08093C600772089F19A
:1053B0004091630F5091640F6091650F7091660F7B
:1053C00082EB95E00E945F334091670F5091680F28
:1053D0006091690F70916A0F8FEA95E00E945F33C8
:1053E00040916B0F50916C0F60916D0F70916E0F2B
:1053F0008CEA95E00E945F3340916F0F5091700FDF
:105400006091710F7091720F89EA95E00E945F338D
:105410002FC0EDE6FFE08491882341F09091C00019
:1054200095FFFCCF8093C6003196F5CFEBEBF5E00E
:105430008491882341F09091C00095FFFCCF809328
:10544000C6003196F5CF8091C00085FFFCCF8AE081
:105450008093C600EDE6FFE08491882309F4A8CF8D
:105460009091C00095FFFCCF8093C6003196F4CF99
:105470008091C00085FFFCCF8AE08093C600772032
:1054800029F140915B0F50915C0F60915D0F70911D
:105490005E0F8EE695E00E944E334091570F50917B
:1054A000580F6091590F70915A0F8BE695E00E944A
:1054B0004E334091530F5091540F6091550F70919E
:1054C000560F88E695E00E944E332FC0EDE6FFE0D0
:1054D0008491882341F09091C00095FFFCCF809388
:1054E000C6003196F5CFE7E7F5E08491882341F0D7
:1054F0009091C00095FFFCCF8093C6003196F5CF08
:105500008091C00085FFFCCF8AE08093C600EDE665
:10551000FFE08491882309F4B4CF9091C00095FFF7
:10552000FCCF8093C6003196F4CF8091C00085FFF8
:10553000FCCF8AE08093C600772009F449C04091EF
:105540005F0F5091600F6091610F7091620F8CEA54
:1055500094E00E944E334091430F5091440F60916C
:10556000450F7091460F89EA94E00E944E334091B6
:10557000930F5091940F6091950F7091960F86EA5A
:1055800094E00E945F3340914F0F5091500F609113
:10559000510F7091520F83EA94E00E944E33409174
:1055A0004B0F50914C0F60914D0F70914E0F80EA50
:1055B00094E00E944E334091470F5091480F609104
:1055C000490F70914A0F8DE994E00E944E332FC02D
:1055D000EDE6FFE08491882341F09091C00095FFB3
:1055E000FCCF8093C6003196F5CFE5EBF4E08491D3
:1055F000882341F09091C00095FFFCCF8093C600B6
:105600003196F5CF8091C00085FFFCCF8AE0809372
:10561000C600EDE6FFE08491882309F490CF9091D5
:10562000C00095FFFCCF8093C6003196F4CF8091E7
:10563000C00085FFFCCF8AE08093C600772029F167
:105640004091A4055091A5056091A6057091A7050C
:1056500082E894E00E944E334091A8055091A9053C
:105660006091AA057091AB058FE794E00E944E33DC
:105670004091AC055091AD056091AE057091AF05BC
:105680008CE794E00E944E332FC0EDE6FFE084915A
:10569000882341F09091C00095FFFCCF8093C60015
:1056A0003196F5CFEBE8F4E08491882341F09091B6
:1056B000C00095FFFCCF8093C6003196F5CF809156
:1056C000C00085FFFCCF8AE08093C600EDE6FFE0D6
:1056D0008491882309F4B4CF9091C00095FFFCCF4A
:1056E0008093C6003196F4CF8091C00085FFFCCF37
:1056F0008AE08093C600772089F060910D0A70E0FF
:1057000080E694E0BAD763E070E08DE594E0B5D729
:1057100063E070E08AE594E0B0D721C0E9E6F4E008
:105720008491882341F09091C00095FFFCCF809335
:10573000C6003196F5CF8091C00085FFFCCF8AE08E
:105740008093C600EDE6FFE084918823B1F290914A
:10575000C00095FFFCCF8093C6003196F5CF8091B5
:10576000C00085FFFCCF8AE08093C600FDE08F2E4D
:10577000FAE09F2EC5E0D0E0AAE06A2EA12CB12C61
:1057800005E010E06E01EE24D7FCE094FE2C7720BB
:1057900001F1B801882777FD8095982F0E94DDE8F8
:1057A000AB01BC0181E594E079D7C701B6010E9445
:1057B000DDE8AB01BC018EE494E070D7F401EA0DA2
:1057C000FB1D45815681678170858BE494E066D727
:1057D0000DC0EDE6FFE084918823D9F29091C000DE
:1057E00095FFFCCF8093C6003196F5CF8091C00025
:1057F00085FFFCCF6092C60003581F4F84E0A80EBF
:10580000B11C0C3781E0180709F0C1CFCD58DF4F2C
:105810008CE0880E911CCE3581E0D80709F0AECF20
:105820007720B1F060917A1670917B1683E294E054
:1058300024D7609178167091791680E294E01DD794
:1058400060917616709177168DE194E016D72FC08F
:10585000EDE6FFE08491882341F09091C00095FF30
:10586000FCCF8093C6003196F5CFEFE2F4E084914F
:10587000882341F09091C00095FFFCCF8093C60033
:105880003196F5CF8091C00085FFFCCF8AE08093F0
:10589000C600EDE6FFE08491882309F4C3CF909120
:1058A000C00095FFFCCF8093C6003196F4CF809165
:1058B000C00085FFFCCF8AE08093C6007720B1F05E
:1058C000609174167091751681E194E0D6D660915E
:1058D0007216709173168EE094E0CFD660917016B8
:1058E000709171168BE094E0C8D60DC0EDE6FFE034
:1058F0008491882329F39091C00095FFFCCF809379
:10590000C6003196F5CF8091C00085FFFCCF8AE0BC
:105910008093C600711024C0EDE6FFE084918823D7
:1059200041F09091C00095FFFCCF8093C600319666
:10593000F5CFEDEFF3E08491882341F09091C00022
:1059400095FFFCCF8093C6003196F5CF8091C000C3
:1059500085FFFCCF8AE08093C600EDE6FFE080C0C3
:10596000C0E0D0E01AE0BE0184EF93E086D640911B
:105970006702509168026091690270916A0281EF3A
:1059800093E08CD66091630270916402809165020D
:10599000909166020E94D5A2AB01BC018EEE93E00D
:1059A0007DD660915F02709160028091610290915A
:1059B00062020E94E1A2AB01BC018BEE93E06ED6C5
:1059C00040915B0250915C0260915D0270915E02B9
:1059D00088EE93E063D6C11107C060910D0270910B
:1059E0000E0285EE93E049D68091C00085FFFCCF82
:1059F0001093C6002196C230D10509F0B4CF409172
:105A0000730250917402609175027091760287EC76
:105A100093E044D660916F027091700280917102A0
:105A2000909172020E94D5A2AB01BC0184EC93E07C
:105A300035D660916B0270916C0280916D029091ED
:105A40006E020E94E1A2AB01BC0181EC93E026D67C
:105A50005AC09091C00095FFFCCF8093C60031964C
:105A600084918111F6CF4091670250916802609154
:105A7000690270916A028CED93E010D66091630226
:105A80007091640280916502909166020E94D5A295
:105A9000AB01BC0189ED93E001D660915F0270918A
:105AA000600280916102909162020E94E1A2AB01CA
:105AB000BC0186ED93E0F2D540915B0250915C020F
:105AC00060915D0270915E0283ED93E0E7D5609195
:105AD0000D0270910E0280ED93E0CFD58091C00051
