:100000000C947F180C94B0180C94B0180C94B01881
:100010000C94B0180C94B0180C94B0180C94B01840
:100020000C94B0180C94B0180C94B0180C94B01830
:100030000C94B0180C94B0180C94B0180C94B01820
:100040000C94B0180C94A8860C94B0180C94B018AA
:100050000C94B0180C94B0180C94219D0C9422E2CE
:100060000C94B0180C94B72F0C94B0180C94B018D2
:100070000C94B0180C94B0180C94B0180C94B018E0
:100080000C94B0180C94B0180C94B0180C94B018D0
:100090000C94B0180C94B0180C94B0180C9414DB99
:1000A0000C94B0180C94B0180C94B0180C94B018B0
:1000B0000C94B0180C94B0180C94B0180C94B018A0
:1000C0000C94B0180C94B0180C94B0180C94B01890
:1000D0000C94B0180C94B0180C94B0180C94B01880
:1000E0000C94B0189D9DAD9DCC9DDC9DF79D079E09
:1000F000229E279E2A9E2F9E329E379E419E45E33A
:100100004AE34FE359E363E3DCE36DE375E37DE347
:1001100087E391E39BE3AAE3B4E3DCE3BEE3C8E354
:10012000D2E3FDE300E4EFE3F3E3F9E337E404E4CF
:1001300008E40EE412E416E41CE420E424E437E4CA
:100140002AE42EE432E4084AD73B3BCE016E84BC5D
:10015000BFFDC12F3D6C74319ABD56833DDA3D0021
:10016000C77F11BED9E4BB4C3E916BAAAABE00006A
:1001700000803F05A84CCDB2D44EB93836A9020C48
:1001800050B9918688083CA6AAAA2ABE0000008021
:100190003F004D383420582059205A2045004361F3
:1001A0006E6E6F7420656E7465722073756264691B
:1001B000723A20006175746F25692E67006572724E
:1001C0006F722077726974696E6720746F20666938
:1001D0006C65004E6F74205344207072696E7469B0
:1001E0006E67005344207072696E74696E67206296
:1001F000797465200044656C6574696F6E20666172
:10020000696C65642C2046696C653A200046696C0F
:10021000652064656C657465643A006F70656E2076
:100220006661696C65642C2046696C653A200057EC
:10023000726974696E6720746F2066696C653A2014
:10024000002E0A006F70656E206661696C65642C13
:100250002046696C653A20002E0A006F70656E209A
:100260006661696C65642C2046696C653A200046BD
:10027000696C652073656C656374656400205369FF
:100280007A653A200046696C65206F70656E65641A
:100290003A20006F70656E206661696C65642C2081
:1002A00046696C653A20004E6F7720667265736808
:1002B0002066696C653A20004E6F7720646F696E26
:1002C000672066696C653A20002220706F730022F7
:1002D00020706172656E743A2200535542524F5538
:1002E00054494E452043414C4C20746172676574FB
:1002F0003A22004B494C4C45442E200074727969D7
:100300006E6720746F2063616C6C207375622D675B
:10031000636F64652066696C657320776974682013
:10032000746F6F206D616E79206C6576656C732ECD
:10033000204D4158206C6576656C2069733A004DFC
:100340003234004D323320257300534420636172F0
:1003500064206F6B006F70656E526F6F7420666102
:10036000696C656400766F6C756D652E696E697475
:10037000206661696C656400534420696E6974206D
:100380006661696C0020204D3230302044300020FE
:10039000204D3230302044002044697361626C6526
:1003A000640046696C616D656E7420736574746970
:1003B0006E67733A0020440020490020204D3330FE
:1003C00034205000204C00204300204400204900ED
:1003D00020204D3330312050005049442073657443
:1003E00074696E67733A0020460020420020204D59
:1003F000313435205331204800204600204200206F
:10040000204D3134352053302048004D61746572E1
:1004100069616C2068656174757020706172616DCE
:1004200065746572733A00205A0020590020204DEF
:1004300034323120580020590020580020204D34FB
:1004400032302053004D65736820626564206C650E
:1004500076656C696E673A00205A002059002020AA
:100460004D323036205800486F6D65206F666673D8
:10047000657420286D6D293A00204500205A00201F
:10048000580020420020540020204D3230352053A7
:1004900000416476616E63656420766172696162B1
:1004A0006C65733A20533D4D696E206665656472D4
:1004B00061746520286D6D2F73292C20543D4D6982
:1004C0006E2074726176656C206665656472617415
:1004D0006520286D6D2F73292C20423D6D696E6952
:1004E0006D756D207365676D656E742074696D65DB
:1004F00020286D73292C20583D6D6178696D756DCC
:10050000205859206A65726B20286D6D2F73292C35
:1005100020205A3D6D6178696D756D205A206A659D
:10052000726B20286D6D2F73292C2020453D6D6145
:1005300078696D756D2045206A65726B20286D6D38
:100540002F73290020540020520020204D323034D7
:10055000205000416363656C65726174696F6E73EE
:100560003A20503D7072696E74696E672C20523D5E
:100570007265747261637420616E6420543D74729C
:100580006176656C00204500205A0020590020202B
:100590004D3230312058004D6178696D756D2041C4
:1005A0006363656C65726174696F6E20286D6D2F71
:1005B0007332293A00204500205A0020590020209B
:1005C0004D3230332058004D6178696D756D20666D
:1005D000656564726174657320286D6D2F73293AA7
:1005E00000204500205A0020590020204D3932209B
:1005F000580053746570732070657220756E69744D
:100600003A0048617264636F6465642044656661A2
:10061000756C742053657474696E6773204C6F61D8
:100620006465640020627974657329002073746FB7
:100630007265642073657474696E67732072657483
:100640007269657665642028002062797465732973
:100650000053657474696E67732053746F726564B8
:100660002028004572726F722077726974696E6714
:1006700020746F20454550524F4D21005072696ED5
:100680007465722068616C7465642E206B696C6C93
:1006900028292063616C6C656421004B494C4C45F2
:1006A000442E20004B494C4C45442E200020746FB2
:1006B0006F206C6F6E6720657874727573696F6EEA
:1006C0002070726576656E7465640020636F6C647B
:1006D00020657874727573696F6E207072657665C7
:1006E0006E746564006F6B00526573656E643A20CA
:1006F000004F666673657473206170706C69656421
:10070000004572723A20546F6F2066617221005466
:100710006F6F206661722066726F6D20726566650C
:1007200072656E636520706F696E74004D657368E5
:1007300020585920696E646578206973206F75743C
:10074000206F6620626F756E6473004D3432312005
:1007500072657175697265732058595A207061729B
:10076000616D65746572730053657474696E67209A
:1007700054726176656C20416363656C6572617467
:10078000696F6E3A200053657474696E6720526514
:10079000747261637420416363656C65726174692E
:1007A0006F6E3A200053657474696E6720507269E9
:1007B0006E7420416363656C65726174696F6E3A33
:1007C000200053657474696E67205072696E7420DE
:1007D000616E642054726176656C20416363656C60
:1007E00065726174696F6E3A20004D313435205363
:1007F0003C696E6465783E206F7574206F66207268
:10080000616E67652028302D3129007A5F6D696E31
:100810003A2000795F6D696E3A2000785F6D696EED
:100820003A2000205A3A0020593A0020436F756E52
:100830007420583A200020453A00205A3A002059A6
:100840003A00583A004649524D574152455F4E4191
:100850004D453A4D61726C696E20312E312E302D2E
:1008600052433620284769746875622920534F55D2
:100870005243455F434F44455F55524C3A68747448
:1008800070733A2F2F6769746875622E636F6D2FCE
:100890004D61726C696E4669726D776172652F4D3C
:1008A00061726C696E2050524F544F434F4C5F56EB
:1008B000455253494F4E3A312E30204D414348491D
:1008C0004E455F545950453A426967426F7820500F
:1008D000726F204D657368204558545255444552F7
:1008E0005F434F554E543A3120555549443A63655C
:1008F0006465326132662D343161322D34373438DB
:100900002D396231322D63353563363266333637F1
:1009100066660A00426967426F782050726F204D08
:10092000657368204F66662E00426967426F7820C3
:1009300050726F204D6573682072656164792E0076
:1009400042656420646F6E652E003F0020573A00B8
:100950004265642048656174696E672E0048656170
:1009600074696E6720646F6E652E003F0020573AF1
:100970000048656174696E672E2E2E0042696742D9
:100980006F782050726F204D6573682072656164C6
:10099000792E006F6B004D3131332053004B494CA1
:1009A0004C45442E20004543484F00494E464F00D9
:1009B0004552524F52530044525952554E00434FE4
:1009C0004D4D554E49434154494F4E006F666600A8
:1009D000A609AB09B009B709BE0944454255473AD3
:1009E0000048656174696E672E2E2E004269674269
:1009F0006F782050726F204D657368207265616456
:100A0000792E002569206D696E2C2025692073657B
:100A10006300456E642066696C65206C69737400C0
:100A2000426567696E2066696C65206C6973740045
:100A30004E6F206D6F76652E00426967426F782099
:100A400050726F204D6573682072656164792E0065
:100A5000526573756D696E67207072696E740057A8
:100A600061697420666F7220757365722E2E2E0078
:100A700054455354005A206E6F7420656E7465722D
:100A800065642E0A005A206E6F7420656E7465725C
:100A900065642E0A0059206E6F7420656E7465724D
:100AA00065642E0A0059206F7574206F662072618C
:100AB0006E67652028312D33292E0A0058206E6F6D
:100AC0007420656E74657265642E0A0058206F7517
:100AD00074206F662072616E67652028312D33297E
:100AE0002E0A00473238004D6573682070726F62BD
:100AF000696E6720646F6E652E0053746172742096
:100B00006D6573682070726F62696E6720776974B3
:100B1000682022473239205331222066697273746B
:100B20002E004732380A473239205332004D657360
:100B30006820626564206C6576656C696E67206EFE
:100B40006F74206163746976652E002020000A4D61
:100B50006561737572656420706F696E74733A00B5
:100B60000A5A206F66667365743A20000A5A207329
:100B70006561726368206865696768743A20004E31
:100B8000756D20582C593A200053206F7574206FD2
:100B9000662072616E67652028302D34292E00484A
:100BA0006F6D6520582F59206265666F7265205AF7
:100BB00000486F6D6520582F59206265666F726519
:100BC000205A005761726E696E673A20486F6D69EE
:100BD0006E672042756D702044697669736F72206C
:100BE0003C2031005A2070726F6265206F75742E40
:100BF00020626564005A2070726F6265206F7574A0
:100C00002E2062656400536C6565702E2E2E0020C8
:100C1000403A002042403A00202F0020423A002073
:100C20002F0020543A00627573793A207061757311
:100C3000656420666F7220696E70757400627573EA
:100C4000793A2070617573656420666F72207573E0
:100C5000657200627573793A2070726F63657373A1
:100C6000696E6700220A00556E6B6E6F776E2063A7
:100C70006F6D6D616E643A20220020496E76616C62
:100C80006964206578747275646572200025692036
:100C9000686F757273202569206D696E7574657350
:100CA00000446F6E65207072696E74696E672066AD
:100CB000696C65004B494C4C45442E200053544F01
:100CC000505045442E20005072696E746572207336
:100CD000746F707065642064756520746F20657230
:100CE000726F72732E204669782074686520657271
:100CF000726F7220616E6420757365204D393939C9
:100D000020746F20726573746172742E202854658C
:100D10006D70657261747572652069732072657398
:100D200065742E2053657420697420616674657241
:100D30002072657374617274696E6729004E6F204A
:100D40004C696E65204E756D6265722077697468B6
:100D500020636865636B73756D2C204C6173742020
:100D60004C696E653A20004E6F20436865636B7373
:100D7000756D2077697468206C696E65206E756D7D
:100D80006265722C204C617374204C696E653A2048
:100D900000636865636B73756D206D69736D617455
:100DA00063682C204C617374204C696E653A200096
:100DB0004C696E65204E756D626572206973206E98
:100DC0006F74204C617374204C696E65204E756D94
:100DD0006265722B312C204C617374204C696E65F6
:100DE0003A20004D31313000446F6E6520736176DA
:100DF000696E672066696C652E004D3239002020CF
:100E0000506C616E6E657242756666657242797489
:100E100065733A20002046726565204D656D6F72DE
:100E2000793A200053657020323620323031360056
:100E3000436F6D70696C65643A2000286E6F6E6553
:100E40002C2064656661756C7420636F6E666967DB
:100E50002900207C20417574686F723A200032307E
:100E600031362D30342D32342031323A30300020BA
:100E70004C61737420557064617465643A2000207D
:100E8000312E312E302D524336004D61726C696E19
:100E90000020536F667477617265205265736574C4
:100EA00000205761746368646F67205265736574CE
:100EB000002042726F776E206F75742052657365E3
:100EC00074002045787465726E616C20526573659C
:100ED0007400506F7765725570007374617274009E
:100EE0002200656E7175657565696E67202200FF69
:100EF000FFFF0000A0400000A040000000400000F4
:100F00009B43000070430000964300000000000077
:100F100000000000000000009B4300007043000040
:100F20009643000000000000000000000000656320
:100F3000686F3A004572726F723A0020746F6F20CA
:100F40006C6F6E6720657874727573696F6E207050
:100F5000726576656E7465640020636F6C642065ED
:100F60007874727573696F6E2070726576656E74D1
:100F70006564007C3C3E5E2B3D3F2F5B5D3B2C2A35
:100F8000225C004D383420582059205A2045004515
:100F90006E6473746F70732025632025632025634E
:100FA00020256300205A3A0020593A0020583A0080
:100FB000656E6473746F7073206869743A200024DE
:100FC000F4D43050C38E20C2A24017828B7011120D
:100FD0007A910D816CD90AA861E108C7586607614A
:100FE0005143061E4B5D05C145A7041A4111040972
:100FF0003D9803713931034036DB0265339102D4E9
:10100000305402802E1D02632CEE01752AC501B0FA
:1010100028A001102781018F2564012B244B01E0BA
:10102000223401AC211F018D200D01801FFC0084A2
:101030001EED00971DDF00B81CD200E61BC6002085
:101040001BBC00641AB200B219A8000A19A0006AF9
:10105000189900D117910040178B00B51684003104
:10106000167E00B31579003A157300C7146F005847
:10107000146A00EE1366008813630025135E00C730
:10108000125B006C12570015125400C11151007010
:10109000114F0021114B00D61049008D104700461A
:1010A00010440002104200C00F4000800F3E00427A
:1010B0000F3C00060F3B00CB0E3800930E37005C50
:1010C0000E3500270E3400F30D3200C10D310090B3
:1010D0000D3000600D2E00320D2D00050D2C00D9B5
:1010E0000C2B00AE0C2900850C29005C0C27003568
:1010F0000C27000E0C2600E80B2400C40B2400A0D3
:101100000B23007D0B23005A0B2100390B21001803
:101110000B2000F80A1F00D90A1E00BB0A1E009D02
:101120000A1D00800A1D00630A1C00470A1B002CD0
:101130000A1B00110A1A00F7091A00DD091900C478
:10114000091900AB091900920917007B09180063FF
:101150000917004C09160036091600200916000A66
:10116000091500F5081500E0081400CC081400B8B3
:10117000081400A4081400900813007D0812006BE6
:101180000813005808120046081200340811002302
:101190000811001208110001081100F0071000E00A
:1011A000071000D0071000C0071000B0070F00A103
:1011B00007100091070E0083070F0074070F0065EA
:1011C000070E0057070E0049070E003B070D002EC3
:1011D000070E0020070D0013070D0006070D00F98C
:1011E000060C00ED060D00E0060C00D4060C00C84D
:1011F000060C00BC060C00B0060C00A4060B0099FF
:10120000060C008D060B0082060B0077060B006CA7
:10121000060B0061060A0057060B004C060A004246
:10122000060A0038060A002E060A0024060A001ADA
:10123000060A001006090007060A00FD050900F469
:10124000050900EB050900E2050900D9050900D0F0
:10125000050900C7050900BE050900B5050800AD70
:10126000050800A50509009C050800940508008CE8
:10127000050800840508007C050800740508006C5A
:10128000050700650508005D050700560508004EC6
:10129000050700470507004005080038050700312D
:1012A0000507002A050700230507001C0506001690
:1012B0000507000F0507000805060002050700FBEB
:1012C000040600F5040700EE040600E8040600E248
:1012D000040700DB040600D5040600CF040600C99D
:1012E000040600C3040600BD040600B7040600B1EE
:1012F000040500AC040600A6040600A00405009B3B
:1013000004060095040500900406008A0405008583
:10131000040500800406007A0405007504050070C9
:101320000405006B04050066040500610405005C0B
:1013300004050057040500520405004D040500484B
:10134000040500430405003E0404003A040500358A
:10135000040500300404002C0405002704040023C5
:101360000405001E0404001A0404001604050011FC
:101370000404000D04040009040500040404000032
:10138000040400FC030400F8030400F4030400F068
:10139000030400EC030400E8030400E4030400E099
:1013A000030400DC030400D8030400D4030400D0C9
:1013B000030400CC030400C8030300C50303002496
:1013C000F404D9201BC40C5C0E9804C4095F0265A8
:1013D000077101F405F900FB04B30048048700C15C
:1013E0000369005803550003034500BE023A008418
:1013F00002310053022A002902250004022000E4E1
:10140000011C00C8011900AF0117009801140084E5
:10141000011300710110006101100051010E004321
:10142000010D0036010B002B010B0020010B0015F4
:101430000109000C01090003010800FB000800F38A
:10144000000800EB000700E4000600DE000600D8FC
:10145000000600D2000600CC000500C7000500C24F
:10146000000500BD000400B9000400B5000400B18F
:10147000000400AD000400A9000400A5000300A2C0
:101480000003009F0004009B0003009800030095E8
:1014900000020093000300900003008D0002008B07
:1014A000000300880002008600020084000300811F
:1014B0000002007F0002007D0002007B0002007934
:1014C0000002007700010076000200740002007242
:1014D000000100710002006F0002006D0001006C4D
:1014E0000002006A00010069000200670001006656
:1014F000000100650001006400020062000100615B
:10150000000100600001005F0002005D0001005C5E
:101510000001005B0001005A000100590001005861
:101520000001005700010056000100550001005461
:10153000000100530000005300010052000100515F
:10154000000100500001004F0001004E0000004E5D
:101550000001004D0001004C0001004B0000004B59
:101560000001004A00010049000100480000004855
:101570000001004700010046000000460001004550
:10158000000000450001004400010043000000434A
:101590000001004200000042000100410000004143
:1015A000000100400001003F0000003F0001003E3C
:1015B0000000003E0001003D0000003D0001003C35
:1015C0000000003C0000003C0001003B0000003B2C
:1015D0000001003A0000003A000100390000003923
:1015E000000100380000003800000038000100371A
:1015F0000000003700010036000000360000003611
:101600000001003500000035000000350001003405
:1016100000000034000000340001003300000033FB
:1016200000000033000100320000003200000032F0
:1016300000010031000000310000003100010030E5
:1016400000000030000000300001002F0000002FDB
:101650000000002F0000002F0001002E0000002ECF
:101660000000002E0001002D0000002D0000002DC4
:101670000000002D0001002C0000002C0000002CB8
:101680000000002C0001002B0000002B0000002BAC
:101690000000002B0001002A0000002A0000002AA0
:1016A0000000002A00010029000000290000002994
:1016B0000000002900000029000100280000002887
:1016C000000000280000002800000028000100277A
:1016D000000000270000002700000027000000276E
:1016E0000001002600000026000000260000002661
:1016F0000000002600010025000000250000002554
:101700000000002500000025000000250001002445
:101710000000002400000024000000240000002439
:10172000000100230000002300000023000000232C
:10173000000000230000002300000023000100221D
:101740000000002200000022000000220000002211
:101750000000002200010021000000210000002103
:1017600000000021000000210000002100000021F5
:1017700000010020000000200000002000000020E8
:1017800000000020000000200000002000000020D9
:101790000001001F0000001F0000001F0000001FCC
:1017A0000000001F0000001F0000001F0001001EBD
:1017B0000000001E0000001E0000001E0000004D82
:1017C000494E54454D50207472696767657265646F
:1017D000004572723A204D494E54454D50204245C5
:1017E00044004D415854454D5020747269676765F7
:1017F000726564004572723A204D415854454D500F
:101800002042454400546865726D616C2052756ECB
:101810006177617900544845524D414C2052554EF4
:10182000415741590048656174696E672066616976
:101830006C65640048656174696E67206661696CF7
:101840006564004D494E54454D5020747269676778
:1018500065726564004572723A204D494E54454D9B
:101860005000626564002C2073797374656D207379
:10187000746F7070656421204865617465725F499A
:10188000443A20004D415854454D502074726967C8
:101890006765726564004572723A204D415854453F
:1018A0004D50004B64200023646566696E652020FE
:1018B00044454641554C545F004B69200023646504
:1018C00066696E65202044454641554C545F004B87
:1018D00070200023646566696E652020444546419A
:1018E000554C545F00504944204175746F74756EB7
:1018F000652066696E69736865642120507574207F
:10190000746865206C617374204B702C204B6920C7
:10191000616E64204B6420636F6E7374616E7473C8
:101920002066726F6D2062656C6F7720696E746FD0
:1019300020436F6E66696775726174696F6E2E6899
:1019400000504944204175746F74756E652066615E
:10195000696C6564212074696D656F757400504908
:1019600044204175746F74756E65206661696C659D
:1019700064212054656D70657261747572652074A0
:101980006F6F206869676800204B643A2000204B25
:10199000693A2000204B703A200020436C61737339
:1019A00069632050494420002054753A2000204BA0
:1019B000753A2000206D61783A2000206D696E3AFA
:1019C000200020643A200020626961733A20000000
:1019D000000000300E0100C00E0A00500F1400D0AD
:1019E0000F1E0060102800E010320070113C00F063
:1019F0001146007012500000135A0080136400005A
:101A0000146E00901478001015820090158C001050
:101A10001696009016A0001017AA009017B4001098
:101A200018BE009018C8001019D2009019DC0010E0
:101A30001AE600801AF000001BFA00801B0401F077
:101A40001B0E01701C1801F01C2201601D2C01E00E
:101A50001D3601501E4001D01E4A01401F5401B0E6
:101A60001F5E0130206801A020720110217C0190CE
:101A7000218601002290016026F401902A580280FC
:101A80002EBC0250322003E03584035039E8038035
:101A90003C4C041000C90210012C014001220170CD
:101AA000011801B0010E01F00104015002FA00B06A
:101AB00002F0003003E600D003DC009004D2007096
:101AC00005C800A006BE000008B400B009AA00D0F6
:101AD0000BA000600E960060118C000015820020A3
:101AE000197800C01D6E00A0226400B0275A009033
:101AF0002C500000314600E0343C00103832009099
:101B00003A2800603C1E00A03D1400803E0A0020E0
:101B10003F0000436172642072656D6F76656400FA
:101B20004361726420696E736572746564004D343C
:101B300032380020003F000920005A0059005800A8
:101B4000466C6F7700466C6F770046616E2073704D
:101B50006565640046616E2073706565640042656A
:101B60006400426564004E6F7A7A6C65004E6F7A4D
:101B70007A6C6500426564205A00426564205A0010
:101B80005370656564005370656564004D61696EEE
:101B9000004E65787420506F696E74002569202F9F
:101BA000202575004C6576656C696E6720446F6E04
:101BB0006521004D6F7665205A0047323800436C2E
:101BC00069636B20746F20426567696E00486F6DB2
:101BD000696E672058595A00473238004C6576655F
:101BE0006C206265640043616E63656C004D6F76C6
:101BF000652058004D6F76652059004D6F76652041
:101C00005A0045787472756465720045787472750F
:101C1000646572004D6F7665205A004D6F766520C1
:101C200059004D6F76652058004D6F7665206178BC
:101C30006973004D6F766520302E316D6D004D6FEC
:101C4000766520316D6D004D6F76652031306D6D9C
:101C500000507265706172650050726568656174EC
:101C600020504C4120426564005072656865617483
:101C700020504C4100507265706172650050726571
:101C8000686561742041425320426564005072656A
:101C900068656174204142530050726570617265DD
:101CA000004D38300053776974636820706F776532
:101CB00072206F6E004D383100537769746368206D
:101CC000706F776572206F666600436F6F6C646F2C
:101CD000776E005072656865617420414253005010
:101CE00072656865617420504C41004D3834004481
:101CF000697361626C6520737465707065727300DE
:101D00004D6F76652061786973004C6576656C204F
:101D10006265640053657420686F6D65206F666648
:101D20007365747300473238004175746F20686FB3
:101D30006D65004D61696E0053746F7265206D654D
:101D40006D6F72790042656400426564004E6F7A7F
:101D50007A6C65004E6F7A7A6C650046616E20730E
:101D6000706565640046616E20737065656400543B
:101D7000656D70657261747572650053746F72651C
:101D8000206D656D6F727900426564004265640084
:101D90004E6F7A7A6C65004E6F7A7A6C6500466198
:101DA0006E2073706565640046616E2073706565B2
:101DB000640054656D70657261747572650050726F
:101DC00065686561742041425320636F6E66005000
:101DD00072656865617420504C4120636F6E6600C7
:101DE0005049442D43005049442D43005049442D4F
:101DF00044005049442D44005049442D4900504965
:101E0000442D49005049442D50005049442D500064
:101E10002008204661637400200820466163740036
:101E20002008204D6178002008204D6178002008AE
:101E3000204D696E002008204D696E004175746F59
:101E400074656D70004F6666004F6E200046616ECF
:101E50002073706565640046616E2073706565640B
:101E60000042656400426564004E6F7A7A6C6500DA
:101E70004E6F7A7A6C6500436F6E74726F6C0045BA
:101E800073746570732F6D6D004573746570732F77
:101E90006D6D005A73746570732F6D6D005A737495
:101EA0006570732F6D6D005973746570732F6D6D50
:101EB000005973746570732F6D6D0058737465707D
:101EC000732F6D6D005873746570732F6D6D0041C5
:101ED0002D74726176656C00412D74726176656C4B
:101EE00000412D7265747261637400412D726574D6
:101EF0007261637400416D6178204500416D6178C5
:101F0000204500416D6178205A00416D6178205A6A
:101F100000416D6178205900416D61782059004180
:101F20006D6178205800416D6178205800565472D8
:101F30006176206D696E005654726176206D696E0F
:101F400000566D696E00566D696E00566D617820A1
:101F50004500566D6178204500566D6178205A0025
:101F6000566D6178205A00566D6178205900566D83
:101F70006178205900566D6178205800566D61785F
:101F800020580056652D6A65726B0056652D6A658E
:101F9000726B00567A2D6A65726B00567A2D6A65EF
:101FA000726B005678792D6A65726B005678792DC0
:101FB0006A65726B00416363656C00416363656CC5
:101FC00000426564205A00426564205A00436F6EE7
:101FD00074726F6C0046696C2E204469612E004655
:101FE000696C2E204469612E004520696E206D6D5C
:101FF00033004F6666004F6E2000436F6E74726F41
:102000006C00526573746F7265206661696C7361F0
:102010006665004C6F6164206D656D6F7279005369
:10202000746F7265206D656D6F72790046696C61C1
:102030006D656E74004D6F74696F6E0054656D70E0
:1020400065726174757265004D61696E00022E2EB5
:10205000004D61696E004E6F2053442063617264CD
:10206000005072696E742066726F6D205344005385
:10207000746F70207072696E7400526573756D654F
:10208000207072696E74005061757365207072699A
:102090006E7400436F6E74726F6C00507265706185
:1020A00072650054756E6500496E666F20736372C9
:1020B00065656E0000060900FE070192032120FFFE
:1020C000FF08FF07FF0000000600000107070602E7
:1020D0000080808080800080030202060105A0A0AD
:1020E0000507070600005050F850F8505005070744
:1020F0000600002078A07028F020050707060000E1
:10210000C0C810204098180507070600006090A07E
:1021100040A89068020303060104C040800307073B
:102120000601002040808080402003070706010050
:102130008040202020408005050506000120A87071
:10214000A8200505050600012020F8202002030331
:102150000602FFC04080050101060003F8020202EA
:10216000060200C0C00505050600010810204080D9
:1021700005070706000070888888888870030707AD
:1021800006010040C040404040E00507070600004F
:10219000708808708080F8050707060000F8102096
:1021A000100808F005070706000010305090F810DE
:1021B00010050707060000F880F00808887005077A
:1021C00007060000708080F0888870050707060009
:1021D00000F808102020202005070706000070885E
:1021E000887088887005070706000070888878085E
:1021F0000870020505060200C0C000C0C002060645
:102200000602FFC0C000C04080040707060000109F
:10221000204080402010050303060002F800F80467
:1022200007070601008040201020408005070706B0
:1022300000007088081020002005070706000070C5
:10224000880868A8A870050707060000708888F845
:10225000888888050707060000F08888F08888F0DD
:1022600005070706000070888080808870050707D2
:10227000060000F08888888888F0050707060000B7
:10228000F88080F08080F8050707060000F880805D
:10229000F0808080050707060000708880B8888875
:1022A00070050707060000888888F8888888010775
:1022B0000706020080808080808080050707060076
:1022C0000038101010109060050707060000889075
:1022D000A0C0A0908805070706000080808080804D
:1022E00080F805070706000088D8A8888888880530
:1022F00007070600008888C8A89888880507070689
:10230000000070888888888870050707060000F03C
:102310008888F0808080050707060000708888881C
:10232000A89068050707060000F08888F0A090884C
:10233000050707060000788080700808F005070789
:10234000060000F8202020202020050707060000B6
:10235000888888888888700507070600008888882C
:10236000888850200507070600008888888888A884
:102370005005070706000088885020508888050708
:1023800007060000888888502020200507070600DF
:1023900000F80810204080F8030707060100E080DD
:1023A00080808080E005050506000180402010083F
:1023B000030707060100E02020202020E00503039A
:1023C000060004205088050101060000F802020200
:1023D000060205804005050506000070087888782B
:1023E0000507070600008080B0C88888F00505054D
:1023F0000600007080808870050707060000080846
:1024000068988888780505050600007088F880704F
:102410000507070600003048E0404040400506063A
:102420000600FF708888780870050707060000809E
:1024300080B0C88888880107070602008000808075
:102440008080800308080601FF200020202020A0B3
:1024500040040707060000808090A0C0A0900307FA
:1024600007060100C04040404040E0050505060069
:1024700000D0A8A8A8A8050505060000B0C888884F
:102480008805050506000070888888700506060620
:1024900000FFF08888F080800506060600FF788837
:1024A00088780808050505060000B0C8808080050A
:1024B000050506000070807008F00407070600009C
:1024C0004040E0404040300505050600008888880F
:1024D00098680505050600008888885020050505D0
:1024E0000600008888A8A850050505060000885049
:1024F0002050880506060600FF8888887808700541
:102500000505060000F8102040F803070706010043
:102510002040408040402001070706020080808064
:1025200080808080030707060100804040204040F3
:10253000800502020600026890000000060000000C
:102540000000060000000000060000000000060079
:10255000000000000600000000000600000000006F
:102560000600000000000600000000000600000059
:102570000000060000000000060000000000060049
:10258000000000000600000000000600000000003F
:102590000600000000000600000000000600000029
:1025A0000000060000000000060000000000060019
:1025B000000000000600000000000600000000000F
:1025C00006000000000006000000000006000000F9
:1025D00000000600000000000600000000000600E9
:1025E00000000000060000000000060000000000DF
:1025F00006000000000006000000000006000000C9
:1026000000000600000107070602008000808080AD
:1026100080800507070600002070A8A0A87020058C
:102620000707060000304040E04050A805050506B9
:102630000000887050708805070706000088502049
:10264000F820F820010707060200808080008080C3
:102650008005080806000030482050502090600394
:102660000101060107A0050707060000F888B8B8B1
:10267000B888F8050707060001700878887800F820
:102680000505050600012850A05028050303060093
:1026900001F8080802020206020640800507070644
:1026A0000000F888A88898A8F8050101060006F837
:1026B000040404060003609090600507070600000C
:1026C0002020F8202000F804050506000360902073
:1026D00040F0030505060003E020E020E0020202CE
:1026E00006020640800508080600FF88888888984A
:1026F000E880800507070600007898987818181871
:10270000020202060202C0C00202020602FF40806C
:1027100003050506000340C04040E005070706002A
:1027200001708888887000F8050505060001A05032
:102730002850A00507070600008890A858B8080888
:102740000507070600008890B84898203805080853
:10275000060000C040C048D8380808050707060032
:1027600000200020408088700508080600004020F6
:10277000007088F88888050808060000102000709E
:1027800088F888880508080600002050007088F83E
:1027900088880508080600006890007088F8888816
:1027A0000508080600005000708888F88888050829
:1027B000080600002050207088F888880507070662
:1027C00000003860A0B8E0A0B80508080600FF7057
:1027D000888080887020600508080600004020007E
:1027E000F880F080F8050808060000081000F8805E
:1027F000F080F8050808060000205000F880F080FE
:10280000F80507070600005000F880F080F803087C
:1028100008060100804000E0404040E00308080650
:102820000100204000E0404040E0030808060100AD
:1028300040A000E0404040E0030707060100A00080
:10284000E0404040E0050707060000704848E848BF
:10285000487005080806000068900088C8A8988895
:1028600005080806000040207088888888700508E0
:1028700008060000102070888888887005080806FF
:102880000000205000708888887005080806000045
:10289000689000708888887005080806000050005D
:1028A00070888888887005050506000188502050CA
:1028B000880508080600FF1070A8A8A8A8704005A1
:1028C0000808060000402088888888887005080865
:1028D000060000102088888888887005080806008F
:1028E000002050008888888870050808060000507D
:1028F00000888888888870050808060000102088ED
:1029000050202020200509090600FFC040704848DB
:10291000704040E00408080601FF609090A090908D
:10292000E0800508080600004020007008788878DC
:10293000050808060000102000700878887805084F
:1029400008060000205000700878887805080806FE
:102950000000689000700878887805070706000076
:10296000500070087888780508080600002050207C
:102970007008788878050606060000D02878A0A898
:10298000500506060600FF70808870206005080864
:102990000600004020007088F880700508080600D6
:1029A000001020007088F8807005080806000020DC
:1029B00050007088F880700507070600005000700E
:1029C00088F8807003080806010080400040C0407D
:1029D00040E003080806010020400040C04040E0FD
:1029E00003080806010040A00040C04040E0030783
:1029F00007060100A00040C04040E00507070600B0
:102A000000A040A0107888700508080600006890B3
:102A100000B0C888888805080806000040200070BB
:102A200088888870050808060000102000708888D3
:102A3000887005080806000020500070888888709B
:102A400005080806000068900070888888700507EF
:102A5000070600005000708888887005050506008C
:102A6000012000F800200507070600FF1070A8A845
:102A7000A870400508080600004020008888889853
:102A800068050808060000102000888888986805F6
:102A90000808060000205000888888986805070705
:102AA000060000500088888898680509090600FF1C
:102AB000102000888888F808700407070601FFC006
:102AC0004060506040E00508080600FF500088881C
:102AD0008878087000060900FE0000000000010967
:102AE0000008FE000005080806000040F0C88888BD
:102AF000987810050808060000C0F888888888883B
:102B0000F80505050600012030F830200508080604
:102B100000002070F820202020E00509090600FFB1
:102B20002070A8A8B8888870200509090600FFE071
:102B300080C0B0A8283028280509090600FFF8A899
:102B40008888888888A8F8050A0A0600FE20505060
:102B5000505088A8A8887003030306000340A040D3
:102B60000000000000000000000000007FFFE00007
:102B700000000000000000000000007000E0000005
:102B80000000000000000000000061F8600000008C
:102B900000000000000000000041F82000000000DC
:102BA000000000000000000040F0200000000000D5
:102BB0000000000000000040602000000000000055
:102BC0000000000000005801A07F8000000000000D
:102BD00000004104005C63A0FFC000000000000092
:102BE000002082005EF7A0FFC0000000000000008F
:102BF0002082005EF7A0FFC000000000000000413E
:102C000004005C63A07F80000000000000008208D8
:102C1000005801A07F8000000000000001041000A7
:102C2000406020FFC00000000000000104100040D0
:102C3000F020FFC00000000000000082080041F802
:102C400020FFC00000000000000041040061F860A7
:102C50003F00000000000000000000007000E01EC7
:102C60000000000000000001FFFF807FFFE00C007B
:102C700000000000000001FFFF80000000000000D5
:102C80000000000000000000007FFFE000000000E6
:102C900000000000000000007000E00000000000E4
:102CA00000000000000000630C6000000000000055
:102CB000000000000000470E20000000000000009F
:102CC00000000000004F0F20000000000000000086
:102CD000000000005F0FA0000000000000000000E6
:102CE0000000005E07A07F8000000000000000419F
:102CF0000400406020FFC0000000000000002082AF
:102D00000040F020FFC00000000000000020820012
:102D100040F020FFC000000000000000410400401F
:102D200060207F80000000000000008208005E0735
:102D3000A07F80000000000000010410005F0FA0D1
:102D4000FFC0000000000000010410004F0F20FF32
:102D5000C000000000000000820800470E20FFC0F5
:102D600000000000000000410400630C603F000010
:102D70000000000000000000007000E01E000000E5
:102D80000000000001FFFF807FFFE00C000000005A
:102D900000000001FFFF80000000FFFFFF800FFC2C
:102DA0000F81F80FFC00F81E0FFFFFFF800FFF0FD1
:102DB00083FE0FFF03FE1E0FFFFFFF800FFF0F8735
:102DC000FF0FFF07FF1F1FE00003800FFF8F8FFF24
:102DD0000FFF87FF0F1EE00003800F8F8F8F8F8FF5
:102DE0008F8F8F8F1EE03E03800F8F8F8F8F8F8F7F
:102DF0008F8F87BCE03E03800F8F8F8F8F8F8F8FD9
:102E00008F87BCE03E03800F8F8F8F8F8F8F8F8FC8
:102E100087FCE03E03800FFF8F8F8F8FFF8F8F83A4
:102E2000F8E03E03800FFF0F8F800FFF0F8F83F8B6
:102E3000E01C03800FFC0F8F800FFC0F8F83F8E0E6
:102E40000803800FFF0F8F9F8FFF0F8F83F8E00025
:102E500003800FFF8F8F9F8FFF8F8F83F8E000031A
:102E6000800F8F8F8F9F8F8F8F8F87FCE000038065
:102E70000F8F8F8F8F8F8F8F8F87BCE00003800F16
:102E80008F8F8F8F8F8F8F8F87BCE00003800F8F86
:102E90008F8F8F8F8F8F8F873CE00003800F8F8FF6
:102EA0008F8F8F8F8F8F8F1EE00003800F8F8F8FFC
:102EB0008F8F8F8F8F8F1EE00003800FFF8F8FFF0C
:102EC0008FFF87FF0F1EE00003800FFF8F87FF8FAC
:102ED000FF87FF1F1FE00003800FFF0F83FB8FFFA3
:102EE00003FE1E0FE00003800FFE0F81F38FFE0034
:102EF000F81E0FE00003800000000000000000004A
:102F00000000E0000380000000000000000000005E
:102F100000E000038000000000000000000000004E
:102F2000E7FFF3800000000000000000000000E761
:102F3000FFF3800000000000000000000000E0003F
:102F400003800000000000000000000000E000031B
:102F5000800000000000000000000000E00003808E
:102F60000000000000000000000000FFFFFF8000E4
:102F700000000000000000000000FFFFFF800000D4
:102F8000000000000000000000FFFFFF80000000C4
:102F9000000000000000000000000A0B02090C0DF8
:102FA0000E080703040100000000000000000000FC
:102FB0000000000000000000000000000000000011
:102FC00000000000121110000000000000000000CE
:102FD00000000000000000000000000000000102EE
:102FE000102020080810204010204080020102011B
:102FF00008040201010204081020408080402010D3
:10300000080402018004020180402010080402012B
:103010000804020101020408102040800102040893
:10302000102040800505050507050808080802026C
:1030300002020A0A08080404040401010101010152
:1030400001010303030303030303040707070C0C35
:103050000C0C0C0C0C0C02020202060606060606FC
:1030600006060B0B0B0B0B0B0B0B000020002300B9
:10307000260029002C002F0032000001000003016F
:103080000601090100002200250028002B002E0067
:103090003100340002010000050108010B010000AD
:1030A0002100240027002A002D00300033000101F8
:1030B0000000040107010A014E414E494E4954598E
:1030C000494E46CDCCCC3D0AD7233C17B7D13877F3
:1030D000CC2B329595E6241FB14F0A000020410009
:1030E00000C84200401C4620BCBE4CCA1B0E5AAE53
:1030F000C59D74000062366242DAE8DA0862112483
:103100001FBECFEFD1E2DEBFCDBF00E00CBF14E0A9
:10311000A0E0B2E0ECECF0EE01E00BBF02C00790E3
:103120000D92AE35B107D9F726E1AEE5B4E001C0A6
:103130001D92A43FB207E1F710E3CCEFD0E300E02B
:1031400006C022970109FE010BBF0E9420EAC43F7E
:10315000D10780E00807A9F70E94CFE40C9455F04E
:103160000C940000452BC1F020910A0120622093AD
:103170000A013FB7F89420910B01206220930B01C4
:103180003FBF0E949BE29FB7F89480910B018F7D17
:1031900080930B019FBF08950C949BE2FC01148265
:1031A0001782138212828EEB93E0918380830895BD
:1031B0002EEB33E0FC01318320832781222319F099
:1031C00004960C94787B0895CF92DF92EF92FF9251
:1031D0000F931F93CF93DF93EC018F96DFDFCE0128
:1031E000805B9F4FDBDF7E012FE6E20EF11C870143
:1031F0006E013BE5C31A3EEFD30AC801CFDF015E83
:103200001F4F0C151D05C9F7FE01EA55FE4F89E158
:10321000818314823596178ACE0187539E4FBEDF75
:10322000FE01E658FD4F10821182128213823496FD
:1032300010821182128213821A821B8218821982D2
:10324000F8011082FE01E851FE4F108286E391E002
:10325000F7019C01119221503040E1F7FE01EA573D
:10326000FD4F81E080831EA61DA60E946CE2CE5712
:10327000DD4F68577C4E8F4F9F4F688379838A83D9
:103280009B83DF91CF911F910F91FF90EF90DF9083
:10329000CF900895FC0120E03EE2DB014C914032EA
:1032A00041F0283011F430833196DB014C9140839A
:1032B00031962F5F6F5F7F4F2B3079F71082089523
:1032C0002F923F924F925F926F927F928F929F9236
:1032D000AF92BF92CF92DF92EF92FF920F931F9324
:1032E000CF93DF93CDB7DEB7C657D1090FB6F894A9
:1032F000DEBF0FBECDBF8C016B015A0129012DB776
:103300003EB7E3963FAF2EAFE397AD961FAEAD97B6
:1033100034E0A30EB11C4296E5969FAF8EAFE597C1
:10332000180199E7291A9DEF390AF801E757FD4F6F
:10333000AF96FFAFEEAFAF973801F5E06F0E711C9F
:103340007E012FE5E20EF11C80E490E08C0F9D1FC2
:103350000496E7969FAF8EAFE797E5964EAD5FADCB
:10336000E597BE016F5F7F4FC5010E94DE79181699
:103370000CF041C12C85322F3871303109F0BCC0BE
:10338000F101808191810197029708F4B5C02DB7B2
:103390003EB7E1963FAF2EAFE197BE016F5F7F4F23
:1033A000C70178DF81E0F601908191119DC0E1E0D5
:1033B000F0E0D7010D900020E9F7EE19FF09EA0FC0
:1033C000FB1F31962DB73EB72E1B3F0B0FB6F8945F
:1033D0003EBF0FBE2DBFEDB7FEB731964F0188231C
:1033E00019F065EF72E001C0B601C4010E9456ED0C
:1033F000B701C4010E9437ED65EF72E0C4010E947D
:1034000037EDCE01805C9F4FC9DE21E0A701B501F9
:10341000E7968EAD9FADE7970E946F7D811137C013
:10342000F10180819181892B91F5EEE2FFE0849199
:10343000882341F09091C00095FFFCCF8093C60097
:103440003196F5CFE7EFF2E08191882339F0909142
:10345000C00095FFFCCF8093C600F6CF8091C000DE
:1034600085FFFCCF8AE08093C600F7018191882315
:1034700039F09091C00095FFFCCF8093C600F6CF45
:103480008091C00085FFFCCF8AE08093C6008BE16D
:10349000FE01EC5BFF4FDE01959601900D928A953F
:1034A000E1F724968EAD9FAD24979CA38BA38EEB62
:1034B00093E09AA389A320E030E0AE014F5D5F4F17
:1034C000B401C801FDDECE01819672DECE01805CC2
:1034D0009F4F6EDEE1962EAD3FADE1970FB6F894AB
:1034E0003EBF0FBE2DBF39CF80E001900020E9F72D
:1034F0003197EC19FD095DCF8981882309F47BC0E0
:10350000853E09F42ACF8E3209F427CFF80182894B
:103510008E3209F422CF23FD20CF81E0303109F033
:1035200080E0F8018483811108C08985873409F01F
:1035300014CF8A858E3709F410CFF10180819181F3
:103540008130910569F08230910581F1892B09F074
:1035500004CFBE016F5F7F4FC3019CDEF60110C038
:10356000AF96EEADFFADAF978081918101969183CB
:103570008083F3CE9091C00095FFFCCF8093C6006E
:1035800081918111F7CFF3018191882339F09091D6
:10359000C00095FFFCCF8093C600F6CF8091C0009D
:1035A00085FFFCCF8AE08093C600D7CEBE016F5F57
:1035B0007F4FC3016FDE4114510439F0B301C201E2
:1035C0000E9424ED892B79F416C0AD96FFADAD971E
:1035D0002F2F30E0AF96EEADFFADAF978081918198
:1035E0002817390741F0AD96FFADAD97FF5FAD9657
:1035F000FFAFAD97B2CEE3962EAD3FADE3970FB6DA
:10360000F8943EBF0FBE2DBFCA58DF4F0FB6F894D7
:10361000DEBF0FBECDBFDF91CF911F910F91FF9005
:10362000EF90DF90CF90BF90AF909F908F907F9062
:103630006F905F904F903F902F900895EF92FF9280
:103640000F931F93CF93DF93CDB7DEB76F970FB66E
:10365000F894DEBF0FBECDBF8C01FC01E957FD4FD2
:10366000118210827C0183E3E80EF11C40E050E0FF
:10367000BA01C7010E94957A8BE1F701DE01159628
:1036800001900D928A95E1F7F80181A992A99C8396
:103690008B838EEB93E09A83898320E030E0AE0148
:1036A0004F5F5F4F65ED73E0C8010ADECE01019602
:1036B0007FDD6F960FB6F894DEBF0FBECDBFDF91F2
:1036C000CF911F910F91FF90EF900895EF92FF928D
:1036D0000F931F93CF93DF93EC011B828EA9882356
:1036E00021F0CE01C3960E94787B7E018AE5E81A1C
:1036F0008EEFF80A45E360E0C7010E94F57581117D
:103700001FC0EEE2FFE08491882341F09091C00059
:1037100095FFFCCF8093C6003196F5CFE8E7F3E044
:103720008491882341F09091C00095FFFCCF809355
:10373000C6003196F5CF8091C00085FFFCCF76C0E2
:103740008E0105551E4F41E0B701C8010E947983E3
:10375000811126C040E0B701C8010E947983811120
:103760001FC0E4E3FFE08491882341F09091C00002
:1037700095FFFCCF8093C6003196F5CFE5E6F3E0E8
:103780008491882341F09091C00095FFFCCF8093F5
:10379000C6003196F5CF8091C00085FFFCCF46C0B2
:1037A000B801CE01C3960E94827881111FC0E4E364
:1037B000FFE08491882341F09091C00095FFFCCFF9
:1037C0008093C6003196F5CFE5E5F3E08491882338
:1037D00041F09091C00095FFFCCF8093C6003196D8
:1037E000F5CF8091C00085FFFCCF20C081E08B83A6
:1037F000EEE2FFE08491882341F09091C00095FFB4
:10380000FCCF8093C6003196F5CFEAE4F3E08491D3
:10381000882341F09091C00095FFFCCF8093C600B3
:103820003196F5CF8091C00085FFFCCF8AE0809370
:10383000C600CE01805B9F4F2BE1FE01F396DC01B9
:10384000149601900D922A95E1F729A93AA9FC0155
:10385000338322833297AF96D183C083DF91CF9198
:103860001F910F91FF90EF900895FC011282138237
:103870000895CF92DF92EF92FF920F931F93CF9311
:10388000DF93CDB7DEB7CDB6DEB6FB0101900020E9
:10389000E9F7E61BF70B34968DB79EB78E1B9F0B8F
:1038A0000FB6F8949EBF0FBE8DBF0DB71EB70F5F4A
:1038B0001F4F7F936F9383E493E09F938F931F93A6
:1038C0000F930E947AED780194E0E90EF11C0F90BD
:1038D0000F900F900F900F900F90F7018081882329
:1038E00049F0992787FD90950E94C5ECF7018193D7
:1038F0007F01F3CF60E0C8010E94F4328FE393E0D0
:103900000E9499330FB6F894DEBE0FBECDBEDF9194
:10391000CF911F910F91FF90EF90DF90CF9008957E
:10392000FC012381222311F021E022830895FC0170
:103930002281211112820895AF92BF92CF92DF921D
:10394000EF92FF920F931F93CF93DF931F92CDB708
:10395000DEB78C018FE2FB0181935F01D12C21E066
:103960007801FBE5EF1AFEEFFF0A8FE1C82EF701A1
:103970008081D816C8F4B501C801CD9C800D911D79
:1039800011248D589F4F29830E942978C5012981D0
:103990005C010196F5013081332321F02D3810F4BC
:1039A0002F5FF6CFD394E3CF27FD11C0B501C80137
:1039B00083539E4F0F90DF91CF911F910F91FF90F6
:1039C000EF90DF90CF90BF90AF900C942978F501E5
:1039D00010820F90DF91CF911F910F91FF90EF9088
:1039E000DF90CF90BF90AF9008953F924F925F923B
:1039F0006F927F928F929F92AF92BF92CF92DF92FF
:103A0000EF92FF920F931F93CF93DF93CDB7DEB763
:103A1000AC970FB6F894DEBF0FBECDBF7C015B0143
:103A2000FC018381882309F4EDC0C70183539E4FB5
:103A30000E94787BF7011282CE0101966C01AEDB09
:103A400027019EE4490E511CC7018F96F201918314
:103A50008083F50180818F3209F077C06FE270E0DA
:103A6000C5010E9442ED8C010F5F1F4F9AE0392E75
:103A70000115110509F46FC06FE270E0C8010E94E2
:103A800042ED4C01009709F467C00817190708F0C8
:103A900063C03C01601A710AA301B801CE0180968F
:103AA0000E946BEDE0E2F0E0EC0FFD1FE60DF71D6C
:103AB0001082FE01B0968191882339F09091C00068
:103AC00095FFFCCF8093C600F6CF8091C00085FFA4
:103AD000FCCF3092C600F2016081718161157105E1
:103AE00019F06C5F7F4F02C060E070E021E0AE0132
:103AF000405E5F4FCE0105960E946F7D81111EC012
:103B0000EBE1F2E08491882341F09091C00095FFB1
:103B1000FCCF8093C6003196F5CFFE01B09681911F
:103B2000882339F09091C00095FFFCCF8093C600A8
:103B3000F6CF8091C00085FFFCCF5FC0F201D1823B
:103B4000C08284010F5F1F4F93CFC701805B9F4FDF
:103B5000F201918380838501F20180819181009738
:103B600011F0049602C080E090E0B8010E94457E0A
:103B7000811103C0E5EFF1E02EC0EDE0F2E08491A9
:103B8000882341F09091C00095FFFCCF8093C60040
:103B90003196F5CFF8018191882339F09091C000DA
:103BA00095FFFCCF8093C600F6CF8091C00085FFC3
:103BB000FCCF8AE08093C600F701E258FD4F1082E7
:103BC0001182128213821CC09091C00095FFFCCF1D
:103BD0008093C600319684918111F6CFF8018191CE
:103BE000882339F09091C00095FFFCCF8093C600E8
:103BF000F6CF8091C00085FFFCCF8EE28093C60097
:103C0000C601D6DAAC960FB6F894DEBF0FBECDBFB4
:103C1000DF91CF911F910F91FF90EF90DF90CF90A8
:103C2000BF90AF909F908F907F906F905F904F90DC
:103C30003F900895CF93DF93EC018B81811103C0F6
:103C4000E3EDF1E039C0E3EEF1E08491882341F047
:103C50009091C00095FFFCCF8093C6003196F5CFC0
:103C6000FE01E258FD4F40815181628173812AE05B
:103C700030E08EE594E00E941F318091C00085FF06
:103C8000FCCF8FE28093C600C658DD4F4881598132
:103C90006A817B812AE030E08EE594E00E941F314A
:103CA0008091C00085FFFCCF0EC09091C00095FFB1
:103CB000FCCF8093C600319684918111F6CF80911C
:103CC000C00085FFFCCF8AE08093C600DF91CF91D2
:103CD0000895AF92BF92CF92DF92EF92FF920F932F
:103CE0001F93CF93DF935C01EB01FB010190002058
:103CF000E9F78F0101501109061B170B6C01F3E363
:103D0000CF1AFEEFDF0AF60110826EE470E0CE01FA
:103D10000E9442ED7C01009729F4F8013197EC0FE5
:103D2000FD1F0DC060E270E00E9442EDEC012196A3
:103D30006AE270E0C7010E9442EDFC0131978DE01C
:103D400081838AE082831382BE01C50187539E4F1F
:103D50000E942280F6018081882309F1E4E3FFE0DC
:103D60008491882341F09091C00095FFFCCF80930F
:103D7000C6003196F5CFEDEBF1E08491882341F058
:103D80009091C00095FFFCCF8093C6003196F5CF8F
:103D90008091C00085FFFCCF8AE08093C600DF9150
:103DA000CF911F910F91FF90EF90DF90CF90BF9038
:103DB000AF9008956F927F928F929F92AF92BF9231
:103DC000CF92DF92EF92FF920F931F93CF93DF93E7
:103DD000CDB7DEB7AA970FB6F894DEBF0FBECDBF42
:103DE0008C018A579D4F7C01611114C0FC018081B8
:103DF000882309F498C00E946CE2F801EE57FD4F49
:103E000080809180A280B380681979098A099B0912
:103E100097FF89C0F7011082F8018381811107C0E3
:103E2000C80154DCF8018381882309F47CC0F801BF
:103E300086A58F9385A58F9384EB91E09F938F93B5
:103E40007E01F1E2EF0EF11CFF92EF920E947AEDFB
:103E50000F900F900F900F900F900F90B12CF701D3
:103E600001900020E9F73197EE19FF09BE1684F49E
:103E70006701CB0CD11CB7FCDA94F601808199273D
:103E800087FD90950E94C5ECF6018083B394E7CF3F
:103E90004801F3E38F0E911C40E050E0BA01C401E9
:103EA0000E94957A612CCE0101965C0140E050E0C1
:103EB000B501C4010E94DE7918164CF5712CF5018C
:103EC00001900020E9F73197EA19FB097E1674F496
:103ED0006501C70CD11C77FCDA94F601808190E073
:103EE0000E94C5ECF60180837394E9CF8A858E37F2
:103EF000E9F245E050E0B701C5010E945DED892B74
:103F0000A9F6B701C801B5DC66246394CFCF611070
:103F100004C08FEF9FEFF80104C0F80185A596A5B6
:103F2000019696A785A7AA960FB6F894DEBF0FBE96
:103F3000CDBFDF91CF911F910F91FF90EF90DF9058
:103F4000CF90BF90AF909F908F907F906F9008958B
:103F50000F931F93CF93DF93EC018C0103531E4FFC
:103F6000C8010E942E7BC8010E94787B19821882AA
:103F7000DF91CF911F910F910895CF92DF92EF9231
:103F8000FF920F931F93CF93DF93CDB7DEB76F9759
:103F90000FB6F894DEBF0FBECDBF8C016A017C0165
:103FA0008EE4E80EF11CC801805B9F4FF7019183FE
:103FB0008083E75CFD4F22E030E03183208332963E
:103FC0007183608340E050E0BA0104960E94957AC4
:103FD000F701808191812BE1FC013496DE01159679
:103FE00001900D922A95E1F7FC01828193819C83D7
:103FF0008B838EEB93E09A8389839601AE014F5FAA
:104000005F4F65ED73E0C8015BD9CE010196D0D852
:104010006F960FB6F894DEBF0FBECDBFDF91CF9184
:104020001F910F91FF90EF90DF90CF9008952F9206
:104030003F924F925F926F927F928F929F92AF9238
:10404000BF92CF92DF92EF92FF920F931F93CF9385
:10405000DF93CDB7DEB7AC970FB6F894DEBF0FBED7
:10406000CDBF8C016B01342EFC018381882309F4C0
:10407000CDC2E053FE4F8081882309F4FAC021119C
:1040800003C0EEE2FFE0CDC07801F8E1EF1AFEEFE9
:10409000FF0AF7018081811103C0EEE2FFE035C025
:1040A000E4E3FFE08491882341F09091C00095FF04
:1040B000FCCF8093C6003196F5CFECEFF2E084910F
:1040C000882341F09091C00095FFFCCF8093C600FB
:1040D0003196F5CF4AE050E061E070E08EE594E083
:1040E0000E94F3308091C00085FFFCCF8AE080936E
:1040F000C60083EF92E00E94735588C29091C00081
:1041000095FFFCCF8093C600319684918111F6CF44
:10411000EAEDF2E08491882341F09091C00095FF90
:10412000FCCF8093C6003196F5CFF60181918823AC
:1041300039F09091C00095FFFCCF8093C600F6CF78
:10414000EFECF2E08491882341F09091C00095FF5C
:10415000FCCF8093C6003196F5CFF70180813DE812
:10416000B32EB801B89E600D711D112463517E4FAE
:10417000C801E2DBF7018081F801B89EE00DF11D76
:104180001124E351FE4F8191882339F09091C000B2
:1041900095FFFCCF8093C600F6CFE9ECF2E0849166
:1041A000882341F09091C00095FFFCCF8093C6001A
:1041B0003196F5CF5801F2E8AF1AFDEFBF0AF501CD
:1041C00040815181628173812AE030E08EE594E084
:1041D0000E941F318091C00085FFFCCF8AE0809350
:1041E000C600F7012081F80184E0289FE00DF11D51
:1041F0001124AF0147515E4FF50180819181A28169
:10420000B381FA0180839183A283B3832F5FF70187
:10421000208329C09091C00095FFFCCF8093C600F9
:10422000319684918111F6CFE8EBF2E084918823F6
:1042300041F09091C00095FFFCCF8093C60031966D
:10424000F5CFF6018191882339F09091C00095FF58
:10425000FCCF8093C600F6CF8091C00085FFFCCFD5
:104260008AE08093C600C80183539E4F0E94787BEA
:1042700030C0F801E851FE4F1082EEE2FFE0849179
:10428000882341F09091C00095FFFCCF8093C60039
:104290003196F5CFE7EAF2E08491882341F09091DE
:1042A000C00095FFFCCF8093C6003196F5CFF60194
:1042B0008191882339F09091C00095FFFCCF8093C5
:1042C000C600F6CF8091C00085FFFCCF8AE08093C6
:1042D000C600F8011282CE0101965C010E94CE1840
:1042E00028019EE4490E511CC8018F96F20191836A
:1042F0008083F60180818F3209F077C07601FFEF6D
:10430000EF1AFF0A2AE0222EE114F10409F473C027
:104310006FE270E0C7010E9442ED4C01009709F482
:104320006BC0E816F90608F067C03C016E187F08FC
:10433000A301B701CE0180960E946BEDE0E2F0E0B0
:10434000EC0FFD1FE60DF71D1082FE01B096819166
:10435000882339F09091C00095FFFCCF8093C60070
:10436000F6CF8091C00085FFFCCF2092C600F201FD
:10437000608171816115710519F06C5F7F4F02C01A
:1043800060E070E021E0AE01405E5F4FCE01059637
:104390000E946F7D811121C0E3E9F2E084918823BE
:1043A00041F09091C00095FFFCCF8093C6003196FC
:1043B000F5CFFE01B0968191882339F09091C0002D
:1043C00095FFFCCF8093C600F6CF8091C00085FF9B
:1043D000FCCF8EE28093C60016C1F201B182A082AA
:1043E0007401FFEFEF1AFF0A8FCFC801805B9F4F68
:1043F000F201918380837601C80183539E4F4C0163
:10440000F20160817181332009F4A3C06115710547
:1044100019F06C5F7F4F02C060E070E021E0A701FF
:10442000C4010E946F7D811103C0EBE5F2E075C00D
:10443000980126583D4FF40181899289A389B48956
:10444000F90180839183A283B383E5E8F2E084914C
:10445000882341F09091C00095FFFCCF8093C60067
:104460003196F5CFF7018191882339F09091C00002
:1044700095FFFCCF8093C600F6CFEDE7F2E0849184
:10448000882341F09091C00095FFFCCF8093C60037
:104490003196F5CFF90140815181628173812AE023
:1044A00030E08EE594E00E941F318091C00085FFCE
:1044B000FCCF8AE08093C600F801E258FD4F1082DD
:1044C000118212821382EFE6F2E08491882341F098
:1044D0009091C00095FFFCCF8093C6003196F5CF38
:1044E0008091C00085FFFCCF8AE08093C600A701C1
:1044F00060E070E0C80141DDF8018289882319F08D
:10450000C801429601C0C70160E07BC09091C00025
:1045100095FFFCCF8093C600319684918111F6CF30
:10452000F7018191882339F09091C00095FFFCCF6D
:104530008093C600F6CFE8E5F2E08491882309F481
:1045400062C09091C00095FFFCCF8093C600319669
:10455000F4CF6115710519F06C5F7F4F02C060E008
:1045600070E026E5A701C4010E946F7D811125C07E
:10457000E4E4F2E08491882341F09091C00095FF3B
:10458000FCCF8093C6003196F5CFF7018191882347
:1045900039F09091C00095FFFCCF8093C600F6CF14
:1045A000E1E4F2E08491882371F19091C00095FFDD
:1045B000FCCF8093C6003196F5CF81E0F80180836F
:1045C000EFE2F2E08491882341F09091C00095FFE2
:1045D000FCCF8093C6003196F5CFF60181918823F8
:1045E00039F09091C00095FFFCCF8093C600F6CFC4
:1045F0008091C00085FFFCCF8AE08093C60060E018
:10460000C7010E946EB5C5010E94D818AC960FB6BE
:10461000F894DEBF0FBECDBFDF91CF911F910F91F8
:10462000FF90EF90DF90CF90BF90AF909F908F90D2
:104630007F906F905F904F903F902F90089521E072
:10464000FC01218320E040E0F2CCCF92DF92EF9298
:10465000FF920F931F93CF93DF93CDB7DEB76F9782
:104660000FB6F894DEBF0FBECDBF8C016C012EE4F7
:10467000C20ED11C805B9F4FF60191838083E75C63
:10468000FD4F21E030E0318320837801F7E7EF1A16
:10469000FDEFFF0AF7011182108240E050E0BA01FD
:1046A00004960E94957AF601808191812BE1FC01AC
:1046B0003496DE01159601900D922A95E1F7FC01E2
:1046C000828193819C838B838EEB93E09A83898391
:1046D00020E030E0AE014F5F5F4F65ED73E0C80151
:1046E0000E946019CE0101960E94D818F7018081BE
:1046F00091816F960FB6F894DEBF0FBECDBFDF91EC
:10470000CF911F910F91FF90EF90DF90CF90089580
:10471000AF92BF92CF92DF92EF92FF920F931F93CF
:10472000CF93DF93CDB7DEB76F970FB6F894DEBFA8
:104730000FBECDBF8C015B01CE0101960E94CE1849
:10474000F801E95AFF4F80817801811104C02FE2FE
:10475000E20EF11C03C030E5E30EF11C670144E0FA
:10476000C40ED11C21E0A501B601CE0105960E9420
:104770006F7D81112DC0EEE2FFE08491882341F02E
:104780009091C00095FFFCCF8093C6003196F5CF85
:10479000EEE9F1E08491882341F09091C00095FF0B
:1047A000FCCF8093C6003196F5CFF5018191882327
:1047B00039F09091C00095FFFCCF8093C600F6CFF2
:1047C0008091C00085FFFCCF8AE08093C60030C096
:1047D000F801EB55FE4F80818A30D0F491E0980FBC
:1047E0009083F8012FE1829FE00DF11D1124CF018C
:1047F00081599F4F2BE1F601DC01149601900D9237
:104800002A95E1F7F70122813381FC01338322836A
:10481000005B1F4F8BE1FE013596D8011496019085
:104820000D928A95E1F78B819C81F80193838283B5
:10483000CE0101960E94D8186F960FB6F894DEBF8D
:104840000FBECDBFDF91CF911F910F91FF90EF90E1
:10485000DF90CF90BF90AF900895CF93DF93FC018E
:10486000EB55FE4F20812223D1F021502083EC0113
:104870003FE1239FC00DD11D1124C159DF4F805B43
:104880009F4F2BE1FE013496DC01149601900D92AE
:104890002A95E1F72A813B81FC0133832283DF9152
:1048A000CF910895EF92FF920F931F93CF93DF93D1
:1048B000EC010E94458D8E0108511E4FF801808148
:1048C0009E0123533E4F79018823A1F1C9010E9423
:1048D000787BF801808181508083BE01FDE88F9F45
:1048E000600D711D112463517E4F21E041E0CE0126
:1048F0009EDBF8018081FE0124E0829FE00DF11D26
:104900001124E751FE4F4081518162817381FE0184
:10491000E258FD4F4083518362837383C7010E9435
:10492000957ACE01DF91CF911F910F91FF90EF907B
:104930000C94901CC9010E94787B1A8282E991E054
:104940000E94993380910D0F882349F110920D0F29
:1049500000916D0510E0E801CC0FDD1FC55BDC4E5A
:1049600068817981882777FD8095982F0E9488E655
:10497000209136023091370240913802509139022D
:104980000E94E9E718165CF419821882C801DF91C9
:10499000CF911F910F91FF90EF900C94DF94DF91D6
:1049A000CF911F910F91FF90EF900895AF92BF921A
:1049B000DF92EF92FF920F931F93CF93DF931F929B
:1049C000CDB7DEB78C015B01460F8AE0D82E4A15C1
:1049D00009F43BC07501F50161915F01F801808127
:1049E000918149830E949EEFF801808191810E940C
:1049F00096EFF70190814981891701F1EEE2FFE01E
:104A00008491882341F09091C00095FFFCCF809362
:104A1000C6003196F5CFE3E6F6E08491882341F0B5
:104A20009091C00095FFFCCF8093C6003196F5CFE2
:104A30008091C00085FFFCCFD092C600F801808134
:104A40009181019691838083C2CF0F90DF91CF91A6
:104A50001F910F91FF90EF90DF90BF90AF9008955E
:104A6000EF92FF920F931F93CF93DF931F92CDB7D7
:104A7000DEB78C017B01460FF8018081918149836B
:104A80000E9496EFF70181937F01F8018081918167
:104A900001969183808349814E11EECF0F90DF9173
:104AA000CF911F910F91FF90EF900895CF92DF92D9
:104AB000EF92FF920F931F93CF93DF93CDB7DEB7A3
:104AC00068970FB6F894DEBF0FBECDBF1D861E8659
:104AD0001F86188A80E390E3A0E3B0E089879A8775
:104AE000AB87BC8784E690E09E8B8D8B44E0BE0153
:104AF000675F7F4FCE01459659DF40E16EE47FE06E
:104B0000CE01459653DF40E16EE57FE0CE0145964C
:104B10004DDF40E16EE37FE0CE01459647DF44E0A4
:104B200066E37FE0CE01459641DF44E062E37FE04B
:104B3000CE0145963BDF44E06EE27FE0CE01459634
:104B400035DF44E06AE37FE0CE0145962FDF44E0A5
:104B50006EE17FE0CE01459629DF44E06EE67FE01E
:104B6000CE01459623DF44E06AE27FE0CE01459620
:104B70001DDF44E066E27FE0CE01459617DF44E0AA
:104B800062E27FE0CE01459611DF4CE06CE775E014
:104B9000CE0145960BDF83E0888F8F8B41E065EE79
:104BA00079E0CE01459602DF44E066EE79E0CE0181
:104BB0004596FCDE41E0BE01685E7F4FCE01459622
:104BC000F5DE41E0BE01695E7F4FCE014596EEDE27
:104BD00044E26AEE79E0CE014596E8DE1D821E824F
:104BE0001F82188644E0BE016B5F7F4FCE01459661
:104BF000DDDE1D861E861F86188A1AE0115041F0E0
:104C000044E0BE01635F7F4FCE014596CFDEF6CF15
:104C100042E06EE176E1CE014596C8DE42E06CE10D
:104C200076E1CE014596C2DE42E06AE176E1CE0150
:104C30004596BCDE42E068E176E1CE014596B6DEFF
:104C400042E066E176E1CE014596B0DE42E064E105
:104C500076E1CE014596AADEC12C90E8D92E9BE3E1
:104C6000E92E95E4F92E111119C044E069E572E0CE
:104C7000CE0145969BDE44E065E572E0CE014596A7
:104C800095DE44E061E572E0CE0145968FDE44E0BA
:104C90006DE472E0CE01459689DE1AC0CD86DE86CF
:104CA000EF86F88A44E0BE01635F7F4FCE014596F0
:104CB0007DDE1D861E861F86188A04E0015041F0A5
:104CC00044E0BE01635F7F4FCE0145966FDEF6CFB5
:104CD0001F5F143041F642E06DE072E0CE01459670
:104CE00065DE44E065E672E0CE0145965FDE44E0B5
:104CF00061E672E0CE01459659DE44E06DE572E072
:104D0000CE01459653DE80E290E09C8B8B8B42E097
:104D1000BE016D5E7F4FCE01459648DE80E090E09B
:104D2000A0E8BFE38D879E87AF87B88B44E0BE01C4
:104D3000635F7F4FCE01459639DE41E064E975E05F
:104D4000CE01459633DE10E011110CC08091250292
:104D500090912602A0912702B09128028D879E870C
:104D6000AF87B88B44E0BE01635F7F4FCE014596AD
:104D70001DDE1F5F143041F786E592E3A3E3B0E048
:104D800089839A83AB83BC8384E690E09A8B898B7A
:104D900044E0BE016F5F7F4FCE01419607DEEEE239
:104DA000FFE08491882341F09091C00095FFFCCFF3
:104DB0008093C6003196F5CF6D897E8981E596E0B6
:104DC0000E948132E9E4F6E08491882341F09091D9
:104DD000C00095FFFCCF8093C6003196F5CF80913F
:104DE000C00085FFFCCF8AE08093C60068960FB6AE
:104DF000F894DEBF0FBECDBFDF91CF911F910F9111
:104E0000FF90EF90DF90CF900895AF92BF92DF9226
:104E1000EF92FF920F931F93CF93DF93CDB7DEB73F
:104E2000E0970FB6F894DEBF0FBECDBF80E1EFEB89
:104E3000F2E0DE01919601900D928A95E1F780E112
:104E4000EFECF2E0DE01519601900D928A95E1F7C8
:104E500080E1EFEDF2E0DE01119601900D928A956E
:104E6000E1F77E0181E2E80EF11C0EE41FE0BE01D5
:104E70006F5E7F4F4EE55FE09E012F5F3F4FEEE399
:104E8000AE2EEFE0BE2ED12CF70181919191A19130
:104E9000B1917F01F80181939193A193B1938F0117
:104EA000FB0181919191A191B191BF01FA0181938F
:104EB0009193A193B193AF01F90181919191A19146
:104EC000B1919F01F50181939193A193B1935F01FA
:104ED000D394F4E0DF12D8CF0E94BC7480E090E05D
:104EE000AAE7B4E48093360F9093370FA093380F5E
:104EF000B093390F40E050E46CE975E44093320F11
:104F00005093330F6093340F7093350F80932E0FAF
:104F100090932F0FA093300FB093310F10923A0F50
:104F200010923B0F10923C0F10923D0F80E29EE4D6
:104F3000A0E0B0E080936E0F90936F0FA093700F7E
:104F4000B093710F10921E0F10921F0F1092200F2E
:104F50001092210F80E090E0A0E0B1E480932A0F4E
:104F600090932B0FA0932C0FB0932D0F8DEC9CECF6
:104F7000ACECBEE38093260F9093270FA093280FED
:104F8000B093290F80E090E0A0EAB0E48093220F74
:104F90009093230FA093240FB093250F10928405B4
:104FA0001092850510928605109287051092800553
:104FB00010928105109282051092830510927C0553
:104FC00010927D0510927E0510927F051092E509E2
:104FD0008CED90E090931F1680931E168CE390E06A
:104FE00090931D1680931C1610921B1610921A1681
:104FF00080EF90E0909319168093181688E790E060
:105000009093171680931616109215161092141678
:105010008FE195E8A9EBB1E48093590290935A028D
:10502000A0935B02B0935C026CEE71E588E79FE3AE
:105030000E94E89E60935502709356028093570237
:105040009093580269E27CED89E093E40E94F49E1B
:1050500060935102709352028093530290935402D2
:1050600080E090E0A8ECB2E480934D0290934E0271
:10507000A0934F02B093500284E190E090930E020F
:1050800080930D020E94B98F80E090E0A8EAB3E41B
:105090008093650290936602A0936702B0936802C2
:1050A00060E070E084E792E40E94E89E6093610211
:1050B00070936202809363029093640263E373E3EC
:1050C00087EE93E40E94F49E60935D0270935E020B
:1050D00080935F02909360021092940580E090E0CC
:1050E000A0E4B0E48093250290932602A0932702C7
:1050F000B09328020E942E5CEEE2FFE084918823A8
:1051000041F09091C00095FFFCCF8093C60031968E
:10511000F5CFE2E0F6E08491882341F09091C00061
:1051200095FFFCCF8093C6003196F5CF8091C000EB
:1051300085FFFCCF8AE08093C600E0960FB6F89416
:10514000DEBF0FBECDBFDF91CF911F910F91FF90BA
:10515000EF90DF90BF90AF9008956F927F928F9203
:105160009F92AF92BF92CF92DF92EF92FF920F93F6
:105170001F93CF93DF93782E882389F140914E0FB0
:1051800050914F0F6091500F7091510F8AEE95E042
:105190000E9492324091520F5091530F6091540FE0
:1051A0007091550F87EE95E00E9492324091560F14
:1051B0005091570F6091580F7091590F84EE95E000
:1051C0000E94923240915A0F50915B0F60915C0F98
:1051D00070915D0F81EE95E00E9492322FC0EEE259
:1051E000FFE08491882341F09091C00095FFFCCFAF
:1051F0008093C6003196F5CFE2EFF5E084918823E5
:1052000041F09091C00095FFFCCF8093C60031968D
:10521000F5CF8091C00085FFFCCF8AE08093C60067
:10522000EEE2FFE08491882309F4A8CF9091C000BA
:1052300095FFFCCF8093C6003196F4CF8091C000DB
:1052400085FFFCCF8AE08093C600772089F14091EA
:105250005E0F50915F0F6091600F7091610F8EEB48
:1052600095E00E9492324091620F5091630F6091DD
:10527000640F7091650F8BEB95E00E949232409124
:10528000660F5091670F6091680F7091690F88EBFE
:1052900095E00E94923240916A0F50916B0F60919D
:1052A0006C0F70916D0F85EB95E00E9492322FC0CC
:1052B000EEE2FFE08491882341F09091C00095FFD9
:1052C000FCCF8093C6003196F5CFE7ECF5E08491F2
:1052D000882341F09091C00095FFFCCF8093C600D9
:1052E0003196F5CF8091C00085FFFCCF8AE0809396
:1052F000C600EEE2FFE08491882309F4A8CF9091E4
:10530000C00095FFFCCF8093C6003196F4CF80910A
:10531000C00085FFFCCF8AE08093C600772089F12A
:1053200040913E0F50913F0F6091400F7091410F9F
:105330008EE895E00E94A3324091420F5091430FB6
:105340006091440F7091450F8BE895E00E94A33265
:105350004091460F5091470F6091480F7091490F4F
:1053600088E895E00E94A33240914A0F50914B0F7C
:1053700060914C0F70914D0F85E895E00E94A3322B
:105380002FC0EEE2FFE08491882341F09091C000AD
:1053900095FFFCCF8093C6003196F5CFE7E9F5E0A5
:1053A0008491882341F09091C00095FFFCCF8093B9
:1053B000C6003196F5CF8091C00085FFFCCF8AE012
:1053C0008093C600EEE2FFE08491882309F4A8CF21
:1053D0009091C00095FFFCCF8093C6003196F4CF2A
:1053E0008091C00085FFFCCF8AE08093C6007720C3
:1053F00029F14091360F5091370F6091380F70911D
:10540000390F8AE495E00E9492324091320F509118
:10541000330F6091340F7091350F87E495E00E944F
:10542000923240912E0F50912F0F6091300F70915A
:10543000310F84E495E00E9492322FC0EEE2FFE04B
:105440008491882341F09091C00095FFFCCF809318
:10545000C6003196F5CFE3E5F5E08491882341F06D
:105460009091C00095FFFCCF8093C6003196F5CF98
:105470008091C00085FFFCCF8AE08093C600EEE2F9
:10548000FFE08491882309F4B4CF9091C00095FF88
:10549000FCCF8093C6003196F4CF8091C00085FF89
:1054A000FCCF8AE08093C600772009F448C0409181
:1054B0003A0F50913B0F60913C0F70913D0F88E87F
:1054C00094E00E94923240911E0F50911F0F609104
:1054D000200F7091210F85E894E00E949232409154
:1054E0006E0F50916F0F6091700F7091710F82E885
:1054F00094E00E94A33240912A0F50912B0F6091AB
:105500002C0F70912D0F8FE794E00E949232409102
:10551000260F5091270F6091280F7091290F8CE76B
:1055200094E00E9492324091220F5091230F60919B
:10553000240F7091250F89E794E0F4D72FC0EEE295
:10554000FFE08491882341F09091C00095FFFCCF4B
:105550008093C6003196F5CFE1E9F4E08491882389
:1055600041F09091C00095FFFCCF8093C60031962A
:10557000F5CF8091C00085FFFCCF8AE08093C60004
:10558000EEE2FFE08491882309F491CF9091C0006E
:1055900095FFFCCF8093C6003196F4CF8091C00078
:1055A00085FFFCCF8AE08093C600772011F14091FF
:1055B0007C0550917D0560917E0570917F058EE59B
:1055C00094E0B0D7409180055091810560918205AB
:1055D000709183058BE594E0A5D7409184055091A7
:1055E0008505609186057091870588E594E09AD7D6
:1055F0002FC0EEE2FFE08491882341F09091C0003B
:1056000095FFFCCF8093C6003196F5CFE7E6F4E036
:105610008491882341F09091C00095FFFCCF809346
:10562000C6003196F5CF8091C00085FFFCCF8AE09F
:105630008093C600EEE2FFE08491882309F4B7CF9F
:105640009091C00095FFFCCF8093C6003196F4CFB7
:105650008091C00085FFFCCF8AE08093C600772050
:1056600089F06091E50970E08CE394E04AD763E04B
:1056700070E089E394E045D763E070E086E394E06E
:1056800040D721C0E5E4F4E08491882341F0909173
:10569000C00095FFFCCF8093C6003196F5CF809176
:1056A000C00085FFFCCF8AE08093C600EEE2FFE0F9
:1056B00084918823B1F29091C00095FFFCCF809334
:1056C000C6003196F5CF8091C00085FFFCCF8AE0FF
:1056D0008093C600F5EE8F2EF9E09F2EC5E0D0E056
:1056E000AAE06A2EA12CB12C05E010E06E01EE2498
:1056F000D7FCE094FE2C772001F1B801882777FDD4
:105700008095982F0E9488E6AB01BC018DE294E061
:1057100009D7C701B6010E9488E6AB01BC018AE245
:1057200094E000D7F401EA0DFB1D458156816781A5
:10573000708587E294E0F6D60DC0EEE2FFE084913A
:105740008823D9F29091C00095FFFCCF8093C600CA
:105750003196F5CF8091C00085FFFCCF6092C600E6
:105760000F561F4F84E0A80EB11C083B81E01807BC
:1057700009F0C1CFC15ADF4F8CE0880E911CC232B4
:1057800081E0D80709F0AECF7720B1F060911E1606
:1057900070911F168FEF93E0B4D660911C16709134
:1057A0001D168CEF93E0ADD660911A1670911B1602
:1057B00089EF93E0A6D62FC0EEE2FFE08491882324
:1057C00041F09091C00095FFFCCF8093C6003196C8
:1057D000F5CFEBE0F4E08491882341F09091C00094
:1057E00095FFFCCF8093C6003196F5CF8091C00025
:1057F00085FFFCCF8AE08093C600EEE2FFE0849153
:10580000882309F4C3CF9091C00095FFFCCF80930B
:10581000C6003196F4CF8091C00085FFFCCF8AE0AE
:105820008093C6007720B1F0609118167091191618
:105830008DEE93E066D660911616709117168AEE7B
:1058400093E05FD6609114167091151687EE93E081
:1058500058D60DC0EEE2FFE08491882329F39091A1
:10586000C00095FFFCCF8093C6003196F5CF8091A4
:10587000C00085FFFCCF8AE08093C600772009F442
:105880003CC04091590250915A0260915B02709164
:105890005C0280ED93E046D660915502709156020D
:1058A00080915702909158020E94EE9EAB01BC017C
:1058B0008DEC93E037D66091510270915202809145
:1058C0005302909154020E94FA9EAB01BC018AECF3
:1058D00093E028D640914D0250914E0260914F02C4
:1058E0007091500287EC93E01DD660910D0270918B
:1058F0000E0284EC93E005D62FC0EEE2FFE0849127
:10590000882341F09091C00095FFFCCF8093C600A2
:105910003196F5CFE9EDF3E08491882341F0909141
:10592000C00095FFFCCF8093C6003196F5CF8091E3
:10593000C00085FFFCCF8AE08093C600EEE2FFE066
:105940008491882309F49DCF9091C00095FFFCCFEE
:105950008093C6003196F4CF8091C00085FFFCCFC4
:105960008AE08093C600772051F140916502509102
:10597000660260916702709168028BEB93E0D2D56A
:105980006091610270916202809163029091640261
:105990000E94EE9EAB01BC0188EB93E0C3D5609101
:1059A0005D0270915E0280915F02909160020E94A0
:1059B000FA9EAB01BC0185EB93E0B4D50DC0EEE2DD
:1059C000FFE08491882389F29091C00095FFFCCF7D
:1059D0008093C6003196F5CF8091C00085FFFCCF43
:1059E0008AE08093C600772061F0409125025091B3
:1059F000260260912702709128028FE893E092D5E9
:105A000045C0EEE2FFE08491882341F09091C00010
:105A100095FFFCCF8093C6003196F5CFE2EAF3E024
:105A20008491882341F09091C00095FFFCCF809332
:105A3000C6003196F5CF80919405811103C0E8E945
:105A4000F3E00CC08091C00085FFFCCF0EC09091A8
:105A5000C00095FFFCCF8093C600319684918111E0
:105A6000F6CF8091C00085FFFCCF8AE08093C6000E
:105A7000EEE2FFE08491882309F4B7CF9091C00053
:105A800095FFFCCF8093C6003196F4CF8091C00083
:105A900085FFFCCF8AE08093C60080919405811138
:105AA00023C071100DC0EEE2FFE007C09091C0006E
:105AB00095FFFCCF8093C600319684918111F6CF7B
:105AC000E5E8F3E007C09091C00095FFFCCF80931C
:105AD000C600319684918111F6CF8091C00085FF78
